@ba16 ; Affinity 
@bb01 ; MemBank 
@bc03 ; Command 
:020000020A00F2
:1000000037C1FFCF81E084C082E082C083E080C03E
:10001000F0D0F3C085E07CC086E07AC087E078C08D
:1000200088E076C089E074C08AE072C08BE070C05E
:1000300071C000008BD09DC08EE06AC08FE068C0A8
:1000400080E166C081E164C082E162C083E160C09A
:1000500084E15EC085E15CC086E15AC087E158C09A
:10006000CEC0000089E154C08AE152C08BE150C08B
:100070008CE14EC08DE14CC08EE14AC08FE148C09A
:1000800080E246C081E244C082E242C0EBC0000090
:1000900084E23EC085E23CC086E23AC087E238C0D6
:1000A00088E236C089E234C08AE232C08BE230C0D6
:1000B0008CE22EC08DE22CC08EE22AC08FE228C0D6
:1000C00080E326C081E324C082E322C083E320C012
:1000D00084E31EC085E31CC086E31AC087E318C012
:1000E00088E316C089E314C08AE312C08BE310C012
:1000F0008CE30EC08DE30CC08EE30AC08FE308C012
:1001000001006FD10201000044444444B3A8C57FFC
:1001100098D2FFCF0FB73F014001E0914A6AE395C3
:10012000ED3008F0EE27E0934A6AF0E0E756FF4E24
:100130000994DEC2E9C2EFC21FC3A3C3A6C3A9C309
:10014000ACC3AFC3B2C3B5C3B8C3BBC3E89B08C09D
:10015000E89820921301C0924208CF90CF90189552
:10016000209252010091160B0093160B2092150B52
:100170001895FF93EF93EFB7EF93DF93CF93BF9370
:10018000AF93F894E0911C0BF0911D0B7894A09123
:10019000C669B091C769E093C669F093C769EA1B65
:1001A000E093C869FB0BF093C9696894B2E0E0374B
:1001B000FB0708F4ED9AB2E0E43FFB0730F0E89467
:1001C000B4E0E833FB0708F4ED9AF1E4E091E1696B
:1001D000E21104C05299F061E3E003C0B399F06109
:1001E000E5E0E0934102F093140BE091CA69FAE173
:1001F000099401E00093530118950C941E203F01CF
:10020000E091356AF091366A0091100601930091F1
:1002100011060083E091376AF091386A01910093EA
:100220000C060191009308060191009309060191C3
:100230000093000601910093010601910093A00034
:1002400001910093356A01910093366A0191009300
:100250000B06019100930A06E093376AF093386A1F
:10026000F30118950FB72092031021600FBF189566
:10027000A895F89422242DBAE8EDE0933400E5E83F
:10028000E0930110EFE1F9E6EDBFFEBF4F98479A0A
:10029000E0E0F9E6C0EADBE021922197E9F720925D
:1002A0000508A2E4A0931202ABE4A0931402A3E019
:1002B000A0934102A8E0A0935604A4E0A093710487
:1002C000A0937704A09372040D98059A0C98049A51
:1002D0004F9A47984F98479A4798629869986F98AD
:1002E00061986798E0E0FBE02082218222862386E5
:1002F000A0EEBEE22486B587A1E0A683A1E0A58397
:10030000A3E0A083E0E1FBE02082A2E0A183A1E4DE
:10031000A483A1E0A683A583A3E0A083A3E0A09388
:100320002002A5E0A0932102E1E0E093C001E3E414
:10033000E093C901EEEEE093CB01E1E0E093C80168
:10034000A0E1A0931102E0E8FBE0A2E0A093490243
:10035000A0934A02A4E0A08BA18BA1E8A087A1876B
:10036000E0E8FBE0B8EDA0E0A183A0E0A283A3E376
:10037000B0933400A28BAFEFA2A723A6A6A727A60F
:10038000A0A7A1A7A4A7A5A7A685A0FFFDCFA3E02E
:10039000B0933400A083A0915101A0FDFCCFA9E14E
:1003A000A0935001A1E0A0935301A0935201E0E07B
:1003B000F6E0A1E1A083A0E0A183ABE0A283A0E0EE
:1003C000A383A0E0A483A2E0A0930506A7E0A087F2
:1003D000A1E0A187A5E8A093A200A4E0A0937604E1
:1003E000A1E4A093A006AFEF2092A206A093A306DB
:1003F0000E948E22E8EDE4BFE8E0E09300010E9455
:10040000021CB1D70E94DE210E94E1210E94CD1E74
:100410000E94FD1D4AD1EBD36FD50E94271F0E9479
:10042000941F0E947022E1E0E0931168E09110684F
:10043000E395E09310684FD30C94AD1F0895A88105
:10044000A3700E94801EB9810E943B1EEA2FBBC68A
:10045000AA81B9810E94811EE881E370E093CA6A93
:10046000BB810E943B1EA093CB6AB3950E943B1EAA
:10047000A093CC6AB3950E943B1EA093CD6AB3951E
:100480000E943B1EA093CE6ACAECDAE69EC679F4BF
:100490000E94D21EE53058F0A881A3700E94801EF1
:1004A000B981AA810E943E1E2160EA2F8CC6A1C696
:1004B00087C6E9F70E94D21EE131C8F3B981AA814B
:1004C0000E94811EEAECFAE6A881A370A083AC81A9
:1004D000A183BD81B283BE81B383BF81B483BB815D
:1004E0000E943E1EA093CB6AB395A091CC6A0E9455
:1004F0003E1EA093CC6AB395A091CD6A0E943E1E89
:10050000A093CD6AB395A091CE6A0E943E1EA0939F
:10051000CE6A2160CAECDAE658C60C9408000C9446
:1005200009000C940A000C940B000C940C000C9421
:100530000D000C940E000C940F000C9410000C9401
:1005400011000C9412000C9413000C9414000C94E1
:1005500015000C9416000C9417000C9418000C94C1
:1005600019000C941A000C941B000C941C000C94A1
:100570001D000C941E000C941F000C9420000C9481
:1005800021000C9422000C9423000C9424000C9461
:1005900025000C9426000C9427000C9428000C9441
:1005A00029000C942A000C942B000C942C000C9421
:1005B0002D000C942E000C942F000C9430000C9401
:1005C00031000C9432000C9433000C9434000C94E1
:1005D00035000C9436000C9437000C9438000C94C1
:1005E00039000C943A000C943B000C943C000C94A1
:1005F0003D00E0E003C0E0E101C0EFEFE095E499E9
:100600000AC0E093A80B2092A90BEFEFE093AC0B8C
:10061000E093AD0B09C0E093AC0B2092AD0BEFEF74
:10062000E093A80BE093A90BEFEFE093AA0B2092C5
:10063000AB0BE093AE0B2092AF0BE1E0E093840BA9
:10064000089500240A94E0E8FBE000A601A604A6B1
:1006500005A6EACF0024E0E8FBE000A601A604A678
:1006600005A6E2CFE0912F70E1FF03C000C0E0E0FB
:1006700001C0E1E8E093880BE093890B0895E1E085
:10068000F2E02092A80B2092A90B2092AC0BE093F1
:10069000AD0B2092AA0BE093AB0B2092AE0BF09324
:1006A000AF0BE1E0E093840B08954F9A479AE091F5
:1006B0002268E211EE13E4EDE09322680E94321307
:1006C0002CBAE0E000C0FE2FFF7721F0EA9509F494
:1006D000E29A09F0E298E0933E6A0895E09108708A
:1006E000E09321680895E0913E6AE078ECCF0895A8
:1006F00020924A6AA6DFE0910770FCE0EF9FE0E5F8
:10070000F7E0E00DF11DE1C0E1996198E19B679888
:10071000E0EBF4E0DAC061986798E39928C0E091D3
:100720004B6AF3E700904C6A10904D6AF0810F1A03
:100730001208F0913A6A0F0E121C00924C6A109245
:100740004D6A0F2EF3E70192E0934B6A2092050663
:10075000E19904C0E19AEAE5F5EC03C0E198EAE822
:10076000F5EC00902F7002FC7896EBD102C020923D
:100770004A6AE0ECF3E0A9C0619A679AE091446AA2
:10078000F091456AF7FF05C0F095E195FF4FF7FD41
:10079000FFE7EE0FFF1FEE0FF21D08F4FFEFF093DF
:1007A0003B6AE0910470E095E6950E2E0694E00D0C
:1007B0000694E00DE05FEF9FF001EE0FFF1F08F4DD
:1007C000FFEFFF2321F4E0913B6AE211F1E0F093A7
:1007D0003A6AE0913C6AEE2321F0FE1769F068F076
:1007E00022C020923A6A20923B6AEFEFE0934A6A75
:1007F00000DFE0ECFDE569C07BCFE091396AF09164
:100800003270EF1720F4E395E093396A71CF0090CE
:100810003C6A10904D6AE0E0101410F4E0913170E1
:10082000E093406A2AC0E091396AE211EA95E093C8
:10083000396A5ECFF0913C6AF695EF0F08F4EFEF5E
:10084000F091406AEF0F08F4EFEFF0912268EF9F0C
:10085000E12DE03F08F0EFEFD1CEF091426AF6953E
:10086000F695F45F07C0F0913C6AF695F695F45F53
:1008700001C0FCE0EF9FF00128C0E9E9DBDFE0E523
:10088000F8CFE5EAD7DFE8E7F4CFE2EBD3DFECE837
:10089000F0CFEFEBCFDFE0EAECCFECECCBDFE8EC36
:1008A000E8CFE8EDC7DFE8ECD8CFE5EEC3DFE8EC52
:1008B000DACFE5EEBFDFE8ECD6CFECECBBDFE8E764
:1008C000D8CFE2EBB7DFE0E5D4CFE0930C0BF093A9
:1008D0000D0BE1E0E093060B0401F3010FBF189547
:1008E000E09B80913870E09980913A70E09B909104
:1008F0003770E09990913970E0912F70E0FF04C05B
:10090000E091946AE1FD38C0E0913C6AEE23A1F1E8
:10091000E8528058E802000C111C812D8058E091AB
:100920003B6AE99FF001E89FE001F89F0D0E121C61
:10093000CC0F001C111C80E0881FE0911D68F09115
:100940001E68C0911F68D09120680092C56A1092FD
:10095000C66AE09B05C0E019F109C80BD20904C0C2
:10096000E00DF11DC81FD21DE0931D68F0931E68B5
:10097000C0931F68D0932068E091426AF091307074
:10098000EF1BE093426AC0913F6AE0913D6AF091AB
:100990003E6ACF01982797FDF078CF018F779F7738
:1009A000E299CC27891721F4903089F0891769F0F2
:1009B00030F0C150F0F4C0910370EA9509C0C15005
:1009C000C0F4C0910270E39503C0CC2701C0EF2FA3
:1009D000E7FFE09AE7FDE098E0933D6AEF77E09368
:1009E0003C6AE099E498E09BE49AE099E598E09B02
:1009F000E59AC0933F6A0895E0912168E211EA9573
:100A0000E0932168E211EE136EDEE0910470E1954F
:100A1000E03408F4E0E4E03C08F0E0ECE093436A02
:100A2000E0913C6AF0914D6AFE17E091226830F047
:100A3000F0913370EF1730F0EA9502C0E39511F0B2
:100A4000E09322680895019009928A95E1F708954C
:100A500029928A95E9F70895799FE001689FD0016E
:100A6000699FB00DC11DD21D789FB00DC11DD21D53
:100A7000089580E404C080E202C080E100C0C08329
:100A8000D1838283238224822582E2CF0DD007C0C6
:100A90000BD003C009D0AA0FBB1FAA0FBB1FAA0F00
:100AA000BB1FAA0FBB1F0895B381A081AB0FB181FB
:100AB000B21DDC91CC93A481B581AD1BB209AC0F02
:100AC000B21DA483B583C281D381D395DC1708F00E
:100AD000DD27D3830895C0E0D8E6A6E1B0E00EC0DC
:100AE000C0E0D8E6AAE1B0E014C0C0E0D8E680E0FB
:100AF000AFDF00C0EFEFE0931B6808951ADDF0014F
:100B0000A095B095C095D095A083B183C283D383BF
:100B100008950FDDF00180830895E091356AF0912A
:100B2000366AEF2B0895CF93C091356AC21106C083
:100B3000C091366AC21102C0CF9103C0CF91889490
:100B40000895CF93C2E0C0930A06C1E0C0930D069A
:100B5000C191C0930006C191C0930206C191C09398
:100B60000306C191C0930406C191C0930C06C191C4
:100B7000C0930806C191C0930906C191C0930006B5
:100B8000C191C0930106C191C093A000C191C093CF
:100B9000356AC191C093366AC191C0930B06C19169
:100BA000C0930A06E093376AF093386ACF910894AD
:100BB0000895769567957695679576956795769578
:100BC00067958091061190910711861B970B609194
:100BD00004117091051140DFC695B795C695B7957C
:100BE000C695B795C695B7957C2F6B2F0895E7EB03
:100BF000FAE6C0E0D4E73FDFEBEAFAE6C0E2D4E78A
:100C00003ADFE1EBFAE6C0E4D4E735DFEDEBFAE6F4
:100C1000C0E6D4E730CF80911368FFE0E0E080FFCA
:100C20000AC0E59BE160E599E26081FF04C0E599B7
:100C3000E460E59BE8600E9499220895F894E091B1
:100C40000C6A20920C6A7894E03009F40895EB3233
:100C500008F0F4CBC0910A6AD9E6ED5CF0E0F94EF9
:100C600009950C945F16EACBE9CB94C09CC0E6CB07
:100C7000E5CBE4CBE3CBE2CBC4C0D1C0E3C0EEC054
:100C8000FDC0DCCBDBCBDACBD9CBD8CBD7CBD6CB2B
:100C9000D5CBD4CBD3CBD2CBD1CBD0CBCFCBCECB70
:100CA000CDCBCCCBCBCBCACBC9CBC8CBC7CBC6CBA0
:100CB000C5CBC4CBC3CBC2CBC1CB00C10895A895D3
:100CC000F8946091D36A7091D46A789472DFEB01E2
:100CD000CF5DD040E7EBFAE6DBDEB093C76AC091A8
:100CE000CF6ACC0FC091D06ACC1F08F4CC27EBEAB6
:100CF000FAE6CEDEB093D56AC091D16ACC0FC0912E
:100D0000D26ACC1F08F4CC27E1EBFAE6C1DEB0933F
:100D1000D66AA091D56AAB0FA795A093E269A253BA
:100D200008F4A0E0A093C86AC091466AD091476ACF
:100D3000CC0FDD1F08F4DFEFCD2FEDEBFAE6A8DED8
:100D4000B093D76A80911A70A0913470B091D76A2D
:100D5000BA1708F08160A0913570B091C76ABA17D0
:100D600008F08460A0913670B091C86ABA1708F094
:100D7000886080931A700895E091E169E03039F05D
:100D8000EAEBF5ECD0CEE091E169E030C9F3E2EDB9
:100D9000F5ECC9CEA3DC898190911268809312682A
:100DA000891399DEABC09ADC8981F0911268809337
:100DB0001268F8278A8190911368809313688927B5
:100DC000F82BE0910D6AE530C8F08B8190911468A2
:100DD000809314688927F82BE63080F08C819091FD
:100DE0001568809315688927F82BE73038F08D81D6
:100DF00090911668809316688927F82BF2116BDEA4
:100E00007BC0FF27888184FB880F80F9909113684D
:100E1000EFE14DD080931368F2115DDE73C0FF27C0
:100E20008881909113683AD0809313688881880FE5
:100E3000829590911468E1E03AD080931468F211A1
:100E40004ADE60C0FF278881880F90911468EEE128
:100E50002ED080931468F2113EDE54C0FF278981A2
:100E6000909114681BD080931468898190911568C3
:100E700019D080931568F2112EDE44C0FF278981B6
:100E8000909115680BD080931568898190911668B0
:100E900009D080931668F2111EDE34C08295880F47
:100EA000E0EE05C0869586958695EFE100C08E231D
:100EB000E095E9238E2B9827F92B0895E881E930F6
:100EC00068F4F0E0EB59F84E099409C00BC00BC070
:100ED0000AC009C008C0089508950895089580E5DE
:100EE0000C942C2266CBE756E0931168F4DDE09178
:100EF0001168E130B9F7089501D004C0E09112689B
:100F00000C9463138091136884FF08C020921D68BD
:100F100020921E6820921F68209220688091146899
:100F200008958F93EBEFF9E6A0910D6A8A2F8C0F4D
:100F3000B081A193BA17A081B991BA07B1938C136C
:100F4000FACFC0910A6A8F91089514D1E3E2ABC041
:100F5000EB99FBCFE881E03011F0ECE1A4C0EB9914
:100F6000F4CFEDE1A0C0EB99F0CF2AD1E1E09BC036
:100F7000EB99EBCF3ED1E2E096C0EB99E6CF39D1C9
:100F8000E3E091C0EB99E1CF1BD1E4E08CC0EB9999
:100F9000DCCFF0D0EFE187C0EB99D7CF0ED1E0E204
:100FA00082C0EB99D2CF0CD1E1E27DC0EB99CDCFDD
:100FB000E5E079C0EB99C9CFE6E075C0EB99C5CF04
:100FC000FFD0E7E070C0EB99C0CFFAD0E8E06BC08B
:100FD000EB99BBCF0ED1E9E066C0EB99B6CF09D152
:100FE000EAE061C0EB99B1CF04D1EBE05CC0EB99D2
:100FF000ACCFFFD0ECE057C0EB99A7CFFAD0EDE033
:1010000052C0EB99A2CFF5D0EEE04DC0EB999DCF49
:10101000F0D0EFE048C0EB9998CFEBD0E0E143C0CF
:10102000EB9993CFE6D0E1E13EC0EB998ECFE1D0D2
:10103000E2E139C0EB9989CFC3D0E3E134C0EB9949
:1010400084CFBED0E4E12FC0BBD0E5E12CC0E0915D
:101050000D6AE43011F058F41CC0E881E3FD03C0D0
:10106000EED9E6E120C05DDF12DAE7E11CC0E881DD
:10107000FE2FE370F3FD05C0F2FF07C0E9D9E8E1F8
:1010800012C04FDF16DAE9E10EC0EB995ECFEBE15B
:101090000AC0EB995ACFE2E206C0EB9956CFEEE1D7
:1010A00002C0EAE100C0E0930C6AE091D069E093ED
:1010B0000B6A20620895E0910D6AE350EB30C0F4B2
:1010C000E0930D6AF0E0E758F74E099589F4E09156
:1010D0000D6AA8E0B1EBAE0FB21DBC91CB0FAE2FE5
:1010E000AB1BA0930D6AC0930A6A7ED0EAE2DBCF05
:1010F0002CCF12C00FC010C020C00CC018C01DC023
:1011000019C015C009C016C0000000020004020684
:10111000040006001894089598940895E8E0F8E60D
:1011200021C0ECE0F8E61EC0EEE0F8E61BC0E0E00F
:10113000F8E610C0E4E0F8E605C0F3DFD1F0EEDF3A
:10114000C1F0F2CFA581BD81AB1799F4A481BC8118
:10115000AB1779F4A381BB81AB1759F4A281BA8193
:10116000AB1739F4A181B981AB1719F4A081B8810B
:10117000AB170895E091D86AE395E23008F0E0E01B
:10118000E093D86AF0E0EA53F74E099401C00BC02F
:10119000E0911970E5FF05C0E0910D70EF73E06814
:1011A0008BC0E0E089C0E0911970E5FF03C0E091D9
:1011B0000E7087C0E09100707FC079D087D0DACF01
:1011C00076D088D0D7CF88D0D5CFE991DE0162D054
:1011D000E85FE883ED91E983ED91EA83ED91EB839C
:1011E000ED91EC837ED0C6CFE0910100F0E07FD09E
:1011F00085C05DD0E091D96AE395E63008F0E0E083
:10120000E093D96AF0E0E85FF64E44D00995B2CF9A
:1012100005C006C007C008C009C00AC00BD00EC078
:1012200029D02CC02FD032C00DD010C013D016C082
:1012300019D01CC0E0914D6AF0E054C0E0912A68DA
:10124000F7E050C0E091D76AF8E04CC0E091106838
:10125000F9E048C0E091996AFAE044C0E091956AEB
:10126000FBE040C0E091546AFCE03CC0E091556A6C
:10127000FDE038C0E0911F68F8E134C0E0912068DB
:10128000F9E130C0E091C76AFAE12CC0E091C86A88
:10129000FEE228C0CCEED9E60895A4EEB9E60895A2
:1012A000A6EEB9E60895A091E369B9E60895F8DFDE
:1012B000A093E369089522C0EDDFF1E0F883E983AC
:1012C00024C0E8DFF2E0F883E9831FC0CFE021C04B
:1012D000C0EF1FC0CCE31DC0DDDFE9DF2882E9835A
:1012E0001EC026C0E983FA83F7E0F8831DC0D2DF71
:1012F000E883F9832A822B822C821FC0F091F46943
:10130000FF0F28F1FF0F18F12BC0C7DFE3E021D05A
:1013100068C9C9DFE1E01DD0CD93CACFC4DFE3E0E7
:1013200018D05FD9C5CFBFDFE7E013D058D9C0CF01
:10133000B7DFFFE315D04FD9BBCFB2DFFFE310D04B
:101340004CD9B6CFAADFFFEF0BD043D9B1CFF0E035
:1013500007C0F091F46902C0FF1FC8F3E695E0F3FF
:10136000F093F4690895E0E0E093CA692092F4698B
:101370000895FFFFFFFFFFFFFFFFFFFFFFFFFFFFDE
:1014000026C03FC01EC13AC170C180C1A2C1ABC1DC
:10141000BBC1C3C1CBC1D3C1DEC13DC042C06BC0E3
:10142000B7C0C9C0E3C0E5C0E6C0E7C0E8C0E9C0D6
:10143000EAC0EBC0ECC0EDC0EEC0EFC0F0C0F1C040
:10144000F2C0F3C0E0912768E395E0932768EC9938
:101450000C94101EE2E0E093110BF89420921A0B0A
:1014600020921B0B78942092C6692092C76933247E
:1014700003C0E3E03E2E00C0E398E998ED98E1E078
:10148000B0C1ED99E4CF1EF43394E1E0AAC1E32D9D
:10149000E43108F4ECCF3092D069E39A6DDCEEE0F1
:1014A000A0C1ED99D4CF1EF3E39A6DDCEE27529BD9
:1014B000E395E093E169E998EA98EB982092D16985
:1014C0002092CF69E2EDF9E6CFE02192CA95E9F7E3
:1014D000E0912868E395E43650F0E0912768F091B8
:1014E0002968E0932968EF1BE0932A68E0E0E09325
:1014F0002868E2E176C1ED99A5CFE091D169EF309E
:1015000008F0A0CFF2EDEF0FF9E6F21D3192E25DA7
:10151000E093D169E091CF69E325E093CF6946F587
:1015200009F090CFE3E0E093110BE0912368F09194
:1015300024683196E0932368F0932468E09125684D
:10154000F0912668E21DF21DE0932568F09326686D
:10155000E091C869F091C969F695E795F695E79528
:10156000F695E795F211EFEFE093F869E1E139C103
:10157000E091C869F091C969F695E795F695E79508
:10158000F695E795F211EFEFE093F669E0E129C1F6
:10159000ED9B0EF457CFE091C869F091C969F695BB
:1015A000E795F695E795F695E795F211EFEFE0935D
:1015B000F769E2E116C1ED9B0EF044CFE2E0E09363
:1015C000110B2092C6692092C769E091C869F09119
:1015D000C969F695E795F695E795F695E795F211C1
:1015E000EFEFE093F9690FD1E2E0FBC0E398E3E1AC
:1015F0001EC0E4E11FC0E5E11AC0E6E11BC0E7E15F
:1016000016C0E8E117C0E9E112C0EAE113C0EBE15E
:101610000EC0ECE10FC0EDE10AC0EEE10BC0EFE15E
:1016200006C0E0E207C0E1E202C0EFE003C0330C15
:1016300030F8D7C01EF030FC05CFD3C030FE02CF4B
:10164000D0C0E39AEAEEF5EC6EDA0EF000CFC0916E
:10165000F469D0911970EB99D860D3FFC070D09124
:101660001870EB99D260EA99D0FFCC7FD1FFC3709C
:10167000C093F469529BB399FCCE00C0E99AD09113
:101680002A70C0910A0BCD23D0912970CD0FCF7055
:10169000C093F569C15BDCE0F001CD9FF894009246
:1016A0001C0B10921D0B78940F01E091C869F0910A
:1016B000C969F695E795F695E795F695E795F211E0
:1016C000EFEFE093FA69E0E00E949512E0E0E0932A
:1016D000110BE091F469E0FF06C0C090E469E89A5C
:1016E000EDE0E0931301E4E07CC0F091F469E09157
:1016F000E569F1FDE0934208E8E6F1E0F894E09353
:101700001C0BF0931D0B7894E5E06BC0D0912C700E
:10171000C0910A0BCD23D0912B70CD0FCF70CE5A34
:10172000D091F569CD1BDCE0F001CD9FF8940092DB
:101730001C0B10921D0B78940F01E091F469E2FFED
:1017400006C0C090E669E89AEDE0E0931301E6E098
:1017500048C0E0EFF0E0F894E0931C0BF0931D0B11
:101760007894E7E03EC0F091F469E091E769F3FD19
:10177000E0934208E0EEF1E0F894E0931C0BF09364
:101780001D0B7894E8E02DC0F091F469E091E869D0
:10179000F4FDE0934208E9E024C0F091F469E0919F
:1017A000E969F5FDE0934208EAE01BC0F091F469B5
:1017B000E091EA69F6FDE0934208EBE012C0F09197
:1017C000F469E091EB69F7FDE0934208E2E0E09311
:1017D000110BECE006C02092F4690E94A922E0E01F
:1017E00000C0E093CA69AF91BF91CF91DF91E1E072
:1017F000E093150BE1E0E0935201EF91EFBFEF9121
:10180000FF9108950895C2EDD9E6A091D169209283
:101810000C6AE881E25FF0E0F34E0994FFC010C16A
:101820000FC10EC10DC10CC10BC10AC109C108C154
:1018300007C106C105C104C103C102C101C100C184
:10184000FFC0FEC0FDC0FCC0FBC0FAC0F9C0F8C0BC
:10185000F7C0F6C0F5C0F4C0F3C0F2C0F1C0F0C0EC
:10186000EFC0EEC0EDC0ECC0EBC0EAC0E9C0E8C01C
:10187000E7C0E6C0E5C0E4C0E3C0E2C0E1C0E0C04C
:10188000DFC0DEC0DDC0DCC0DBC0DAC0D9C0D8C07C
:10189000D7C0D6C0D5C0D4C0D3C0D2C0D1C0D0C0AC
:1018A000CFC0CEC0CDC0CCC0CBC0CAC0C9C0C8C0DC
:1018B000C7C0C6C0C5C0C4C0C3C0C2C0C1C0C0C00C
:1018C000BFC0BEC0BDC0BCC0BBC0BAC0B9C0B8C03C
:1018D000B7C0B6C0B5C0B4C0B3C0B2C0B1C0B0C06C
:1018E000AFC0AEC0ADC0ACC0ABC0AAC0A9C0A8C09C
:1018F000A7C0A6C0A5C0A4C0A3C0A2C0A0C09FC0CE
:101900009EC09DC09CC09BC09AC099C098C097C003
:1019100096C095C094C093C092C091C09FC09EC015
:101920009DC09CC09BC09AC099C098C097C096C0EB
:1019300095C094C093C092C091C090C08FC08EC01B
:101940008DC08CC08BC08AC089C088C087C086C04B
:1019500085C084C083C082C081C080C07FC07EC07B
:101960007DC07CC07BC07AC079C078C077C076C0AB
:1019700075C074C073C072C071C070C06FC06EC0DB
:101980006DC06CC06BC06AC069C068C067C066C00B
:1019900065C064C063C062C061C060C060C05FC039
:1019A0005EC05DC05CC05BC05AC059C058C057C063
:1019B00056C055C054C053C052C051C050C04FC093
:1019C0004EC04DC04CC04BC04AC049C048C047C0C3
:1019D00046C045C044C043C042C041C040C03FC0F3
:1019E0003EC03DC03CC03BC03AC039C01AC019C05F
:1019F00018C017C016C015C014C013C012C011C043
:101A000010C00FC00EC00DC00CC00BC00AC009C072
:101A100008C007C006C00DC009C00EC0A150219665
:101A200036C0A0930D6AC0930A6A33CBA1502196A9
:101A3000C6C0A1502196C4C0A1502196BBC000C011
:101A4000EA9AE881F0910070B0911970B5FFEF1338
:101A50007CCAA15021961BC0EB9AFBCF1ACBEA9A05
:101A6000E981E330E88111F4E03C79F0F0910D7008
:101A7000B0911970B5FDEF1368CAE981F0910E704D
:101A8000EF1363CAA250229602C0EB9AFBCFA09339
:101A90000D6AC0930A6AE881E295EF70EE5AF0E0B1
:101AA000F24E09940FC024C039C038C05CCA5BCA6A
:101AB0005ACA59CA8DCA8CCA95CA8FCA55C054C051
:101AC000C6CAC2CAE991EF70E859F0E0F24E099433
:101AD000B1CAB5CAE2CAE1CAD8CAD7CAD6CAD5CA33
:101AE000D4CAD3CA5ECA5DCAD0CACFCACECA54CA83
:101AF000E991EF70E258F0E0F24E0994C6CAC5CA07
:101B000046CA45CAC2CAC1CAC0CABFCABECABDCA7D
:101B1000BCCABBCABACAB9CAB8CAB7CAE991EF71D6
:101B2000EC56F0E0F24E0994B0CAAFCAAECAADCAE4
:101B3000ACCAABCAAACAA9CAA8CAA7CAA6CAA5CA11
:101B4000A4CAA3CAA2CAA1CAA0CA9FCA9ECA9DCA41
:101B50009CCA9BCA9ACA99CA98CA97CA96CA95CA71
:101B60000CCA10CA92CA04CAE991EF71E654F0E0B7
:101B7000F24E099428CA1ACA1DCA87CA86CA85CADB
:101B800084CA83CA82CA81CA80CA7FCA7ECA7DCA01
:101B90007CCA7BCA7ACA79CA78CA77CA76CA75CA31
:101BA00074CA73CA2ECA32CA36CA3ACA3ECA06CAEA
:101BB0001ECA22CAA0930D6AC0930A6AC9C965CA1F
:101BC000A0930D6AC0930A6AE991E03F08F45DCAE8
:101BD000EF70E351F0E0F24E099457CA56CA55CA65
:101BE00054CA53CA52CA51CA66CA4FCA4ECA4DCA0B
:101BF0004CCA4BCA4ACA49CA48CA20D016D0F0912A
:101C00000C68E0910D68EF01CD2B49F0F0930D7059
:101C1000E0930E70E0911970E062E09319700895FE
:101C2000F8940E94071F0C94D91269D0B0E029D013
:101C3000B395A0910F6ABA17D1F70895E091FF15F7
:101C4000E030A9F0EF3F09F0E2D059D0B0E0A8951C
:101C50000FD020F4CE2FD4E18A2FDCD0B395A09101
:101C60000F6ABA17A9F7CFEFD5E180E0D5D0089574
:101C70002AD03396099427D03196099424D03296ED
:101C8000099421D030960994A0E01BC0EA81A98173
:101C900016C0EA81F4E1A081F0E7A08310C0EA81D8
:101CA000F0E7A0810CC0EA81F0E791D008C0E9819B
:101CB000FA81A08104C0E981FA81A08300C0089460
:101CC000089588940895CB2FD0910F6ACD1778F49A
:101CD000D0E0CC0FDD1FCC0FDD1FF091106ADF0FBD
:101CE000E881E43149F0F0E0E55FFC4D0895C0E0A3
:101CF000DAECEBE0F3E20895E981FA810895A0E0DF
:101D0000B0E0B03059F4A03019F0A13021F006C095
:101D1000AEE6B8EC05C0A3E5BAEC02C0A0E0B8ECB2
:101D2000A0930F6AB093106A089503C007C009C05A
:101D300010C0A0910014A0930070C1CFA0910070BA
:101D4000BECFAA2329F022F0E0E0F0E740D0B7CFE1
:101D50009BCFE0E0A3E0B3CF97CF02C003C094CF06
:101D6000ADE0ADCFA83011F4EC9AA9CF8DCF03C070
:101D700007C009C00FC0A0912F14A0932F709FCF50
:101D8000A0912F709CCFEA2F0E943413EFE2F0E76E
:101D90001ED095CFEFE2A0E092CF2092116A209260
:101DA000126A089504D0FE2FE0E2EF1B0895E0913F
:101DB000126AF091116AEF1B08F4E1950895E09121
:101DC000126AF091116A8894EF1308940895C091F3
:101DD000126ACD5ED0E0D549B993E993F993A993FE
:101DE000C351C03208F0CC27C093126A0895C09145
:101DF000116ACD5ED0E0D549B991E991F991A991E7
:101E0000C351C03208F0CC27C093116A089590E303
:101E1000889408C092E102C093E100C0A881A8178D
:101E2000A9F00894A0910210A1FDFCCFA0FDFACF6B
:101E3000ADE9A4BF9093001008F48993A4BFA1E07A
:101E4000A0930010A0910210A1FDFCCF0895EAED2F
:101E5000FAE622C2D3EA19C21AD2CDD118D2E09141
:101E60000210E1FDFACFABDFC0F7C1DFC081CA17B6
:101E7000B1F3A083F4E1CDE9D3E1C4BFD093001066
:101E8000A083D1E0C4BFD0930010D1E0D093041060
:101E9000D0930310E2CF84E190E00E942F210E94B2
:101EA000D7210E940322F7CFF2D1A5D1F0D10E9411
:101EB0001E16FBCFEAEDFAE6F4D185E090E00E9431
:101EC0002F218FE090E00E942F21F4CF00003BD221
:101ED000F0910C68E0910D68EF2BA9F02AD282E313
:101EE00090E00E942F212AD288EC90E00E942F21BE
:101EF00020D282E390E00E942F2120D288EE93E04E
:101F00000E942F21E4CF15D282E390E00E942F217E
:101F100015D282EE94E00E942F21D9CF0C94701438
:101F20000E940B160C94FC14F3ECECE9DAE6C6E51F
:101F300082E10E94231514D037D03FD047D04FD034
:101F400057D05FD067D06FD011272227D9E0C9E9D9
:101F5000C093926AD093936A089578940C94B71FB3
:101F6000E6E5FAE6E0938F6AF093906A08950E949E
:101F70002A1F2092966A2092976A2092986A1D7F63
:101F8000E091966AF091976AC091986A3196C21D65
:101F900011FDEFCF2223D1F3E093966AF093976A75
:101FA000C093986A28D1ECCFEBEDFFE1E0933F6955
:101FB000F0933E6908950C942C1FE4EEFFE1E0934A
:101FC0005F69F0935E6908950C944B1FEDEEFFE19D
:101FD000E0936169F09360690895A2E92DC0E6EF8E
:101FE000FFE1E0936369F09362690895A3E924C077
:101FF000EFEFFFE1E0936569F09364690895A4E968
:102000001BC0E8E0F0E2E0938569F09384690895ED
:102010000C94541FE1E1F0E2E093A569F093A46908
:1020200008950C945A1FEAE1F0E2E093C569F09339
:10203000C46908950C94661F0C94C31210FD77C0F8
:10204000F093A16AFFB7F093A06A1160E093A26ACF
:10205000D093A36AC093A46AB093A56AA093A66A1A
:102060009093A76A8093A86A1092A96A0092AA6ABC
:10207000C091946AC395C093946A09F41860CF70B4
:1020800009F41460C0FD14C01061C091926AD0912F
:10209000936AC15015F41062C97F10F41064C979B5
:1020A000D04010F41068D970C093926AD093936AAC
:1020B00017FD4DD06ED014FD0E948E1F13FD0E949F
:1020C000901F14FF1BC0DAE6CCE6A1E0E881F9819D
:1020D000319788F071F42A2BE883F983EA81FB8138
:1020E000FE2B49F0FB810180A0950A22A095018278
:1020F00002C0E883F9832496AA0F41F70090AA6AE8
:102100001090A96A8091A86A9091A76AA091A66A86
:10211000B091A56AC091A46AD091A36AE091A26A25
:102120001270F091A06AFFBFF091A16A0895F8942F
:10213000E1E0F1E00E948722FFEF3197F1F7E0E064
:10214000F1E00E948722F0E43197F1F7F0CFE091BF
:10215000976AF091986AEE0FFF1FEBE8FE9F000C64
:10216000111CE4E6E119E093956A1260C0919A6A45
:10217000D0919B6AC0939C6AD0939D6AD695C7956F
:10218000D695C795C093996A20929B6A20929A6AC5
:102190000895E091946AEF70E093916AEE0FF0E099
:1021A000EC52FF4D099408950C94D3200C94D32045
:1021B0000C94D3200C94D3200C94D3200C94D320D3
:1021C0000C94D3200C94D3200C94D3200C94D320C3
:1021D0000C94D3200C94D3200C94D3200C94D320B3
:1021E0000C94D3200C94D320F0918C6AFF0F11F043
:1021F0002F1708F40895E0919A6AF0919B6A31963E
:10220000E0939A6AF0939B6AC0918F6AD091906A2A
:10221000EDB7FEB7E993F883E0E2F22FC0E8FF0FD5
:1022200030F019F0C695E450D1F7CC27EE27C093D3
:102230008C6AE0938E6AE695E0938D6ADAE6C6E5ED
:10224000CE0FD21DC0938F6AD093906AE991F88126
:10225000CFB7F894EDBFFEBFCFBF08959927C8E66A
:10226000DAE6B0918E6ACB0FD21DBFB7F89488839F
:102270009983D0918C6AD0952D23BFBFBCCF07D056
:10228000BACF03D0B8CFD0918C6A2D2B0895D091BE
:102290008C6AD0952D230895208221820895689418
:1022A00001C0E894D0918C6ABFB7F894C081CC2368
:1022B00021F0CE7FC083BFBF0895C181CD2BC183E4
:1022C000BFBF0EF0DCCFCBCFBFB7F894C191D081A8
:1022D000DD2321F4C160C293BFBF08952082229202
:1022E000BFBF0DC0BFB7F894D081D260D193D08169
:1022F000DD2311F4BFBF08952082BFBF00C0E8E610
:10230000FAE6CD2F3496CC0F41F0E0F7F894219205
:10231000219221922192BFBFF6CFB7CF208208959C
:10232000BFB7F894A081AE7FA083BFBF0895F8DF48
:10233000B8CFE1E0F1E00E9487220895E0E0F1E00B
:102340000E9487220895CCEDDAE6E8E8F3EC0C2E43
:102350009FEFA191B191BF3F81F011968FEF8395CF
:102360001D901120E1F3821183958993981788F3CA
:102370008211982F82110C2EECCF90939E6A0894B4
:10238000C009C0939F6A0895006920694069606927
:102390006269646966698669A669FFFF1F693D69AC
:1023A0005D695F69616963698369A369C369B69996
:1023B00004C0E5E5119B0C94C31207C044245524C6
:1023C0000895AD980895AD9A0895E0910408E7FF47
:1023D0000895E0910008E0930071089502D08CE226
:1023E0003BC001D003C08F93829501C08F938F7043
:1023F000805D8A3308F0895F2FD08F9108958AE03D
:102400002BD08DE029C00F01451451F0F091040844
:10241000F5FF06C0F2E7E52DF081F0930208539432
:10242000F0010895451459F0F0910408F5FFFACF32
:10243000F2E7E52DF081F09302085394F3CF08956D
:10244000C42DD2E70190002029F00882C395C51160
:10245000F9CFCA954C2ED8CF0F01F201FA95EF179C
:1024600019F0F2E780834394CFCF8F938E2FF20140
:10247000FA95EF1719F0F2E7808343948F9108954E
:102480008991ACDF9A95E1F70895899182118813BB
:102490000895E2DFFACFCAEAD4ECF7DF80911C6836
:1024A000A0DFCAEBD4ECF1DFBDCF0A0D1B5B3434E7
:1024B0006D2E2E2E5B424C442D005D1B5B6D0A0D74
:1024C0000000CAECD4ECE1DFADCF0A0D1B5B343366
:1024D0006D2E2E2E5B5550445D1B5B6D0A0D00006A
:1024E000C2EFD4ECD2DFC0E0D8E690E1C9DF87DFED
:1024F00099CF0A0D1B5B34326D2E2E2E5B4150504E
:102500005D1B5B6D202D2000E2E0F2E000C0EF23B8
:10251000F0950090C36A0F22E02904C0E0E002C0F9
:10252000EFEF00C0E093C36A00C0E091C36A0C946F
:102530009712EF23F0950090C46A0F22E02906C09D
:10254000E0E004C0E5E502C0EFEF00C0E093C46A3C
:1025500000C0E091C46A0C949512310B0000010791
:1025600001310080446A00010040403100800000D9
:102570000002310B0000010701310081446A0001B3
:1025800000404031008100000002310B00000101D9
:1025900007310080446A00010040403100800000A3
:1025A0000002310B0000010107310081446A000183
:1025B00000404031008100000002310300000100B2
:1025C00010310080CF6A00010040403100800000DF
:1025D000000231030000011000310080D16A0001C7
:1025E00000404031008000000002110B000001118A
:1025F00040110080336A0001011140110083466AD6
:102600000001014240110081D36A000100404011E5
:1026100000800000000238CB37CB36CB35CB34CB33
:1026200035CB32CB31CB35CB3ACB3DCB2FCB2CCBB3
:102630003ECB2ACB29CB28CB3ACB3DCB25CB24CBC9
:1026400023CB22CB21CBFFFFFFFFFFFFFFFFFFFFCD
:1028000014951E7F080101FF080402FF080403FF5E
:10281000088004FF084005FF0416000014AC1E00E9
:10282000040206FF084007FF081008FF0404000028
:102830000800090008000A0008010BFF08010CFF4E
:1028400008C30DFF08E80EFF08000FFF080010FF87
:10285000080011000800120008001300080014000E
:102860000800150008001600080017FF0896181148
:10287000080A1911101A7000040000FF04FF00FF7D
:1028800008011BFF08021CFF08041DFF08081EFFAB
:1028900008101FFF082020FF084021FF088022FFAA
:1028A000080023FF080024FF080025FF080026FF7A
:1028B000080027FF080028FF0804290F08002A0F36
:1028C00008042B0F08002C0F08052DFF080A2EFF07
:1028D00014B71EFF080B30FF0814313F0802320FF7
:1028E00008D433FF08C834FF086435FF086436FF96
:1028F000088037FF088038FF088039FF08803AFFDA
:1029000000000000000000000000000000000000C7
:1029100000000000000000000000000000000000B7
:1029200000000000000000000000000000000000A7
:102930000000000000000000000000000000000097
:102940000000000000000000000000000000000087
:102950000000000000000000000000000000000077
:102960000000000000000000000000000000000067
:102970000000000000000000000000000000000057
:102980000C0368000C0268000C0168000C00680071
:102990000C0768000C0668000C0568000C04680051
:1029A00008003BFF08003CFF040100000409000090
:1029B0000401000004000000FFFFFFFFFFFFFFFF16
:102A000004090000040100000000000000000000B4
:102A10000C0368000C0268000C0168000C006800E0
:102A20000C0768000C0668000C0568000C046800C0
:102A30000C0877000C0977000C0A77000C0B770064
:102A40000C0C77000C0D77000C0E77000C0F770044
:102A50000C1077000C1177000C1277000C13770024
:102A60000C1477000C1577000C1677000C17770004
:102A70000C1877000C1977000C1A77000C1B7700E4
:102A80000C1C77000C1D77000C1E77000C1F7700C4
:102A90000C2077000C2177000C2277000C237700A4
:102AA0000C2477000C2577000C2677000C27770084
:102AB0000C2877000C2977000C2A77000C2B770064
:102AC0000C2C77000C2D77000C2E77000C2F770044
:102AD0000C3077000C3177000C3277000C33770024
:102AE0000C3477000C3577000C3677000C39770002
:102AF0000C3A770000000000000000000C1C680089
:102B00000C1D68000C1E68000C1F68000C2068007B
:102B10000C2368000C2468000C2568000C26680053
:102B20000C1A77000C1B77000C546A000C556A00D5
:102B30000CF669000CF769000CF869000CF96900E3
:102B40000CFA69000CD0690004550000FFFFFFFF7C
:00000001FF
; 
; *** EOF 
