@ba16 ; Affinity 
@bb01 ; MemBank 
@bc03 ; Command 
:020000020C00F0
:100000003CC1089581E084C082E082C083E080C06A
:10001000E8D0EBC085E07CC086E07AC087E078C09D
:1000200088E076C089E074C08AE072C08BE070C05E
:1000300072C000008EC000008EE06AC08FE068C011
:1000400080E166C081E164C082E162C083E160C09A
:1000500084E15EC085E15CC086E15AC0FBC000005F
:10006000C6C0000089E154C08AE152C08BE150C093
:100070008CE14EC08DE14CC08EE14AC08FE148C09A
:1000800080E246C081E244C082E242C0F0C000008B
:1000900084E23EC085E23CC086E23AC087E238C0D6
:1000A00088E236C089E234C08AE232C08BE230C0D6
:1000B0008CE22EC08DE22CC08EE22AC08FE228C0D6
:1000C00080E326C081E324C082E322C083E320C012
:1000D00084E31EC085E31CC086E31AC087E318C012
:1000E00088E316C089E314C08AE312C08BE310C012
:1000F0008CE30EC08DE30CC08EE30AC08FE308C012
:1001000001006FD1020100002238916807F5441AFE
:10011000A89516D2FFCF0FB73F014001E0916C6A5E
:10012000E395EF3008F0EE27E0936C6AF0E0E656D6
:10013000FF4E099467C277C27CC293C21DC321C31C
:1001400025C329C32DC331C335C339C33EC344C3FB
:100150004BC3E89B06C0E89820921301C092420866
:100160001895FF93EF93EFB7EF93DF93CF93BF9380
:10017000AF93E0911C0BF0911D0BA091C669B0915B
:10018000C769E093C669F093C769EA1BE093C86941
:10019000FB0BF093C9696894B2E0E037FB0708F401
:1001A000ED9AB3E0EC30FB0730F0E894B4E0E833CC
:1001B000FB0708F4ED9AF091140BE0E1A091E169DE
:1001C000EE9BFE27EE98E3E0A211E5E0E09341020A
:1001D000F093140BEFEFE093160BE091CA69F2E293
:1001E000099401E00093530118950C947B2B3F0177
:1001F000E091646AF091656A0091100601930091A4
:1002000011060083E091666AF091676A019100939C
:100210000C060191009308060191009309060191D3
:100220000093000601910093010601910093A00044
:1002300001910093646A01910093656A01910093B2
:100240000B06019100930A06E093666AF093676AD1
:10025000F301189500E3009386060091870600934A
:10026000870604FF189504E00093396A18950FB7C4
:100270002092031021600FBF1895A895F8942224AE
:100280002DBAE8EDE4BFE5E8E0930110EFE1F9E60F
:10029000EDBFFEBFE0E0F9E6C8E6D9E02192219784
:1002A000E9F720920508A2E4A0931202ABE4A09320
:1002B0001402A3E0A0934102A8E0A0935704A4E095
:1002C000A0937104A0937704A093B104A0931504A4
:1002D000A09314040D98059A0C98049A4F9A479885
:1002E0004F98479A4798A198699A6F9A619867982A
:1002F000A4E0A0937204A0937004A093B004A0E0C3
:10030000A093E605A1E0A093030AA1E0A093000A50
:10031000E0E0FBE02082218222862386A0EEBEE27E
:100320002486B587A1E0A683A1E0A583A3E0A083EE
:10033000E0E1FBE02082A2E0A183A1E4A483A1E0AC
:10034000A683A583A3E0A083A3E0A0932002A5E059
:10035000A0932102B8EDA1E0A093C001A3E4B4BF33
:10036000A093C901AEEEB4BFA093CB01A1E0B4BF8E
:10037000A093C801A0E1A0931102E0E8FBE0A2E095
:10038000A0934902A0934A02A4E0A08BA18BA1E80C
:10039000A087A187E0E8FBE0B8EDA0E0A183A0E0A2
:1003A000A283A3E3B4BFA28BAFEFA2A723A6A6A705
:1003B00027A6A0A7A1A7A4A7A5A7A685A0FFFDCFB4
:1003C000C0910614A1E0C13009F4A3E0C23009F4E1
:1003D000A9E0C33009F4ABE0B4BFA083A091510100
:1003E000A0FDFCCFA9E1A0935001A1E0A09353018F
:1003F000A0935201A5E8A093A000A5E0A093A400BB
:10040000A5E0A093A200E0E0F6E0A1E1A083A0E0D7
:10041000A183ABE0A283A0E0A383A0E0A483A2E039
:10042000A0930506A7E0A087A1E0A187AFEFA09366
:100430008506A3E0A0938206A1E3A0938606A7E128
:10044000A0938006A4E0A0937604A1E4A093A00664
:10045000A4E72092A206A093A3060E944B2DE8EDEC
:10046000E4BFE8E0E09300010E948C1E0E94EE21B0
:100470000E94402D0E94402D0E944A280E94AC28D4
:100480007ED01DD50E94081B4AD70E94A02A0E9438
:1004900095240E94F12A0E94402DE1E0E0935068EB
:1004A000D2D3EFEFE093060BE093160BE0935301EA
:1004B000E09304100C940A2B08950895E0E006C020
:1004C000E79904C000C0E49924C019C0E4990CC0A5
:1004D00000C0E095E093A80B2092A90BEFEFE0930A
:1004E000AC0BE093AD0B1FC0E095E093AC0B2092FA
:1004F000AD0BEFEFE093A80BE093A90B14C0E093D2
:10050000AC0B2092AD0BE0E0E093A80BE093A90BBD
:100510000AC0E093A80B2092A90BE0E0E093AC0B9B
:10052000E093AD0B00C0EFEFE093AA0B2092AB0B72
:10053000E093AE0B2092AF0BE1E0E093840B0895C3
:10054000EFEF0E2EE0E8FBE000A601A604A605A64C
:10055000EACFE0E00E2EE0E8FBE000A601A604A64C
:1005600005A6E1CFE0913170E1FF03C000C0E0E0FB
:1005700001C0E1E8E093880BE093890B08954F9A5E
:10058000479A0E94B2122CBA8091317084FDE79A8A
:1005900082FD15D082FF0FD0C0936D6AE093926800
:1005A000F0936F6AE0910268E1FF0DD0E4E6FBE6AC
:1005B000C0E6D2E7DAC2CBE0E9E0F0EC0895CFEF95
:1005C000E9E0F8EF0895E0E0FE2FFF7729F0EA95E3
:1005D000FA9511F4E29A01C0E298E09398680895C0
:1005E000E0919668EE230895E0910870E093A86882
:1005F0000895E0919868E078E7CFECE0E0936C6ACA
:1006000008950895E1E0E0936C6A9ADFE49B6198B5
:10061000E4996798E0910770F0E3EF9FE0EBF4E076
:10062000E00DF11DF0C0E1E0E0936C6AE0EBF4E076
:10063000EAC0E2E0E0936C6A619867982092050650
:10064000E19904C0E19AECEDFAED03C0E198ECE029
:10065000FBED0090317003FC78966BD3E0EBF4E097
:10066000D2C0E09132700090317000FE05C0F09170
:100670009668EF0F08F4EFEFF0ECEF9FE091686AF7
:10068000F091696AF7FF05C0F095E195FF4FF7FD1E
:10069000FFE7EE0FFF1FE0939468F0939568CF9308
:1006A000C12DC095EC9FE12DFC9F0E0E121C10F089
:1006B000000C111CCF91F12D08F4FFEFF09393681B
:1006C000E0919668EE2341F0529902C0B39B35C089
:1006D000FE1789F008F111C0209293682092946867
:1006E00020929568EFEFE0936C6A20929168E6DEC5
:1006F000E4EFFBE088C0E89420C0E0919168E2302C
:1007000008F0EA95E0939168E091A968E211EA9512
:10071000E093A968E89411C0F0919268E091916823
:10072000EF1708F4E395E0939168E091A968E395E9
:10073000E211E093A968689400C0619A679A1090EA
:10074000A968E0916F6A0EF0E19DE12DB9DEE091BC
:100750009168F0E0E355FC4E099437C030C02AC0E0
:1007600024C01EC018C012C00CC006C000C0E3E008
:10077000E0936C6AEFEF43C0E4E0E0936C6AEFEF64
:100780003EC0E5E0E0936C6AEFEF39C0E6E0E0934D
:100790006C6AE0EF34C0E7E0E0936C6AECED2FC0E8
:1007A000E8E0E0936C6AE8EC2AC0E9E0E0936C6A68
:1007B000E4EB25C0EAE0E0936C6AECE820C0E0914D
:1007C0006D6AE0936C6AEFEF1AC0EFEFE0936C6A2A
:1007D000E0E07CDEEFEF13C0EDE0E0936C6AE0EF69
:1007E00078DEEFEFFFEF0CC0EFEFE0936C6AE0EF25
:1007F0007BDEEFEFFFEF04C0E091A96861CEFCE083
:10080000EF9FF00100C0E0930C0BF0930D0BE1E0C3
:10081000E093060B0401F3010FBF18959091377018
:1008200010903870191A8FB780FD11940090966857
:10083000000C09F44EC0019C80FD911980FF910DC0
:1008400010903970919D000C111CE099812DE09B56
:10085000892FF894E0919468F09195687894E89FD6
:10086000E12DF99F0E0E121C80E0881FEAE9F8E6E0
:10087000A081B181C281D381E09905C0A019B109DD
:10088000C80BD20904C0A00DB11DC81FD21DA08382
:10089000B183F894C283D3837894A481B581C6814F
:1008A000D781A00DB11DC81FD21DA483B583F894B4
:1008B000C683D7837894A285B385C485D585A019CE
:1008C000B109C80BD209A287B387F894C487D5872A
:1008D0007894C0919968D0913C6AE0919768F091C2
:1008E0009868CF019827E89497FD689497FDF07871
:1008F000CF018F779F77E299CC27923010F0D2FD0D
:100900009695A091786BAC7011F09927F0788917C3
:1009100021F49030A9F0891789F040F0D5FDC0E0AE
:10092000C15078F4C0910370EA950BC0D4FDC0E0CB
:10093000C15038F4C0910270E39503C0CC2701C0C8
:10094000EF2FC0939968E0939768E7FFE09AE7FD7F
:10095000E098EF77E093966809F0E2E00EF4E0614A
:10096000F091E169F0FDE460E09BF095F0FFE86054
:10097000809130709CB382FD909590FFE160FFE123
:100980000E943326F0E0E0FDF160E3FDF260E4FD5B
:10099000F860F0937C6B9CB381FD909590FDE49A98
:1009A00090FFE498E4E6F091A968FE9F000C121C09
:1009B0001092AC680895EAE9F8E60580A681B7814F
:1009C000000CAA1FBB1F000CAA1FBB1F000CAA1FF4
:1009D000BB1F02101196A087B18724822582268230
:1009E0002782B695A795B0913C70AB9FD001CFEF11
:1009F000AA0FBB1F30F0AA0FB21D18F0ACEEAB9FD0
:100A0000C12DE4E6FBE6C0D0B093AD68E091A868E4
:100A1000E211EA95E093A868E211EE13EADD089589
:100A20002092576B0895E091576BE43020F4F0E08A
:100A3000E55EFA4E099403C005C00DC013C0E091F5
:100A40005168C2CDE091546BF091556B2AD0E09182
:100A5000566BBADD19C0C8DD2AD0E091566BE0783C
:100A6000B3DD12C00895E0E012C06F707F78E62F0A
:100A7000A72FAA0FA7F9F0E0E093546BF093556B02
:100A8000A093566BE1E003C0E091576BE395E093D0
:100A9000576B0895E091576BE03009F0E33008950B
:100AA000F0E00CD028822982EA83FB83089506D0E7
:100AB0000B8007FC08950F900F900895C4EAD8E6C4
:100AC000A2E5BBE60895F894B6D0F894C6D00C948D
:100AD0003917F894A6D0B7D00C9439170E944F2D2F
:100AE000F894A895FFCF0C943B17E770F0E0EA501C
:100AF000F545E0810895010204081020408001902E
:100B000009928A95E1F7089501901990011411F462
:100B10008A95D1F7089529928A95E9F70895208258
:100B200021822282238208959FEF99938A95E9F783
:100B30000895E0E0FFE80990E025E0818A95D9F783
:100B4000EE230895799FE001689FD001699FB00D61
:100B5000C11DD21D789FB00DC11DD21D089580E426
:100B600006C080E204C080E102C088E000C0C0830B
:100B7000D1838283238224822582CDCF11D00BC0E2
:100B80000FD007C00DD003C00BD0AA0FBB1FAA0FF8
:100B9000BB1FAA0FBB1FAA0FBB1FAA0FBB1F089525
:100BA000B381A081AB0FB181B21DDC91CC93A48144
:100BB000B581AD1BB209AC0FB21DA483B583C28150
:100BC000D381D395DC1708F0DD27D38308951FD098
:100BD00005FE0EC001800DC01AD006FE09C00180BE
:100BE0000AC015D007FE04C0018007C010D039F03C
:100BF0000895000C111C000C111C000C111C10821B
:100C00000FB6F8942182228223820FBE08951180AC
:100C1000100C11821280121C128203800394038232
:100C20000895C0E0D8E6AAE1B0E01FC0C0E0D8E671
:100C3000AEE1B0E027C0C0E0D8E680E46CDFEFEFC3
:100C4000E0931F680895C0E4D8E6AAE3B0E00DC0C1
:100C5000C0E4D8E6AEE3B0E015C0C0E4D8E680E872
:100C60005ADFEFEFE0937F6808950E94FB16F001D2
:100C7000A095B095C095D095A083B183C283D3834E
:100C8000248208950E94FB16F00180830895E0916C
:100C90003B70E53008F0E2E0F0E0E05BF94E0994EB
:100CA00021C01EC00AC006C000C080918868209282
:100CB00088681AC08091786B17C090914C688091B9
:100CC0004D68892B31F00CD009D014D009D006D052
:100CD00014C006D003D014C00C94022D0C94072D20
:100CE000FBDF05C0FBDF03C08211FACFFBCF82E33D
:100CF00090E009C088EC90E006C088EE93E003C065
:100D000088EE93E000C00C94982CE091646AF09116
:100D1000656AEF2B0895CF93C091646AC21106C033
:100D2000C091656AC21102C0CF9103C0CF9188946F
:100D30000895CF93C2E0C0930A06C1E0C0930D06A8
:100D4000C191C0930006C191C0930206C191C093A6
:100D50000306C191C0930406C191C0930C06C191D2
:100D6000C0930806C191C0930906C191C0930006C3
:100D7000C191C0930106C191C093A000C191C093DD
:100D8000646AC191C093656AC191C0930B06C19119
:100D9000C0930A06E093666AF093676ACF9108945D
:100DA0000895769567957695679576956795769586
:100DB00067958091061190910711861B970B6091A2
:100DC000041170910511BEDEC695B795C695B7950D
:100DD000C695B795C695B7957C2F6B2F08950C9443
:100DE00010000C9411000C9412000C9413000C943D
:100DF00014000C9415000C9416000C9417000C941D
:100E000018000C9419000C941A000C941B000C94FC
:100E10001C000C941D000C941E000C941F000C94DC
:100E200020000C9421000C9422000C9423000C94BC
:100E300024000C9425000C9426000C9427000C949C
:100E400028000C9429000C942A000C942B000C947C
:100E50002C000C942D000C942E000C942F000C945C
:100E600030000C9431000C9432000C9433000C943C
:100E700034000C9435000C9436000C9437000C941C
:100E800038000C9439000C943A000C943B000C94FC
:100E90003C000C943D000C943E000C943F000C94DC
:100EA00040000C9441000C9442000C9443000C94BC
:100EB00044000C9445000C9446000C944700EFE766
:100EC000E0936A6BE8E5FBE6C0E0D2E74ADEEEE5D8
:100ED000FBE6C0E2D2E745CE0895F894E091266A99
:100EE0002092266A7894E03009F40895EE3208F0F2
:100EF000E4CAC091246AD9E6EE57F0E0F84E0995AD
:100F00000C94B017DACAE2C00BC10FC1D6CAD5CA59
:100F1000D4CAD3CAD2CA34C148C166C174C187C158
:100F20009AC1ADC1C0C1D3C1E6C1AEC0C6CAC5CAAF
:100F3000C4CAC3CAC2CAC1CAC0CABFCABECABDCA5D
:100F4000BCCABBCAB1C0B9CAB8CAB7CAB6CAABC0B4
:100F5000F1C1F0C1EFC1EEC1EDC1EBC107C2EBC100
:100F6000A895F8946091886B7091896B789419DFDB
:100F7000EB01CF5DD040E2E7FBE60C2E28DE689463
:100F8000E091E169F0913070EF27E0FDE894D091B5
:100F9000846BC091856BC7FF05C0C095D195CF4FBD
:100FA000C7FDCFE7DD0FCC1FE8E5FBE6E9DD16F076
:100FB000B0938A6B16F4B0938B6BD091866BC09113
:100FC000876BC7FF05C0C095D195CF4FC7FDCFE751
:100FD000DD0FCC1FEEE5FBE6D3DD16F4B0938A6B94
:100FE00016F0B0938B6BA0918A6BAB0FA795A09373
:100FF000E469A25308F4A0E0A0937D6BA0918A6BF2
:10100000B0918B6BAB1BA058EAE6FBE60A2EDFDD46
:10101000C0916B6AEEE6FBE60C2ED9DDE091346AF6
:10102000F091366AEF1708F4EF2FE093376AE091FA
:10103000376AE093386A80E0A0913470A093A306E9
:10104000B0ECAB9FB0916E6BB11508F08160A091D0
:101050003570B091726BB25308F4B0E0BA1708F073
:101060008460A0913670B091E469BA1708F0886086
:101070000E94492609F082608093786B90911A70E3
:10108000982B90931A70089520925168E2E5F8E643
:1010900021922192219221922192219221922192B8
:1010A0002192D1DD3CC10895E091276AE33019F027
:1010B00099818A8103C090E089818F77EFB7F89496
:1010C0008093106A9093116AEFBF0895E881E4FB62
:1010D000EE0FE0F9E6FBEF71E43010F4E6950DC099
:1010E000E450F0E08091197084FDE35C84FDFF48DA
:1010F00084FFEC5F84FFFE44E081E7F994D1EF13B5
:10110000A2DD0FC103070C1015191E22272B303446
:10111000393D42464B4F54585D61666A6F73787E25
:10112000E98181D1EF138FDDFCC0E9817CD1FE27FD
:10113000F0E08A8190915268809352688927F82B59
:10114000E091276AE530C8F08B81909153688093D5
:1011500053688927F82BE63080F08C819091546891
:10116000809354688927F82BE73038F08D8190916F
:101170005568809355688927F82BF21164DDCFC03C
:10118000FF27E091126A8091136A8695EE1FE09521
:10119000EF71888184FB880F80F9909152683CD16F
:1011A00080935268F2114FDDBEC0FF27888182957F
:1011B000880F90915268E091126AEE0FE095E07E00
:1011C0002BD1809352688881880F829590915368C3
:1011D000E091126AEE0FEE1FE095E1701DD1809351
:1011E0005368F21130DD9FC0FF278881880F9091EE
:1011F0005368E091136AE095EE710ED180935368C5
:10120000F21121DD90C0FF27E091136AE5FD0895FA
:10121000898190915368F7D0809353688981909128
:101220005468F5D080935468F2110DDD7CC0FF271F
:10123000E091136AE5FD0895898190915468E3D0A7
:1012400080935468898190915568E1D08093556866
:10125000F211F9DC68C0FF27E091136AE6FD0895FA
:10126000898190915568CFD08093556889819091FC
:101270005668CDD080935668F211E5DC54C0FF2744
:10128000E091136AE6FD0895898190915668BBD07C
:1012900080935668898190915768B9D08093576838
:1012A000F211D1DC40C0FF27E091136AE6FD0895FA
:1012B000898190915768A7D08093576889819091D0
:1012C0005868A5D080935868F211BDDC2CC0FF2768
:1012D000E091136AE6FD089589819091586893D052
:1012E0008093586889819091596891D0809359680A
:1012F000F211A9DC18C0FF27E091136AE6FD0895FA
:101300008981909159687FD08093596889819091A3
:101310005A687DD080935A68F21195DC04C001D0E0
:1013200002C062D992C380915268809153685CD99F
:101330008CC389CC089554D9C1F430D031F482E003
:10134000CEEFD5E10E948D28C0CB8091276A8530F1
:1013500038F02196E0E2F8E683E0D6DB31F0B5CB59
:10136000F981E0912268FE13B0CB0895E881E9305D
:1013700008F00895F0E0E254F64E099408C008C061
:1013800008C008C00895089508950895089508951F
:101390009ACB99CBE1E0E093506855CCF0914C6842
:1013A000E0914D68EF2B0895E23060F100900570F8
:1013B000109001700118039400928E6800900470E0
:1013C000109005700118039400928F68FE2FE0348E
:1013D00008F0FFE300908E680F9E000C111CF09146
:1013E0000170F695F10DE03438F0EF5300908F68FE
:1013F0000E9E000C111CF10DEF2FE7FDEFE7E23020
:1014000008F4E2E008958295880FE0EE05C0869525
:1014100086958695EFE100C08E23E095E9238E2B1B
:101420009827F92B0895FE2F8091146A8211089550
:10143000F0910F70F078EC99EF2780911970F0E837
:1014400080FDEF2780912268F091E169F07887FDB7
:10145000EF27E7FBEF77A8DFE7F9F0915168E0931A
:1014600051680895529B05C0EEE5FBED54CC5299AE
:10147000FBCFE6E7FBED4FCCA881A3700E940B2ABF
:10148000B981CF93DF930E94A729DF91CF91689410
:1014900009F4E89440F5F881EA81FC7039F0F43001
:1014A00031F0FC3041F0E4FF14C00CC01CC0DEF091
:1014B000AE17C1F018C0AE2F0E94AC29A1F498F469
:1014C000216010C0AE2F0E94B02969F460F4216041
:1014D00009C04EF0E3FB09DBAE230EF0EE27EA274E
:1014E00009F001C08AC80895A881A3700E940B2A40
:1014F000B9810E94A72911F4EA2FFAC2EEC2AA818B
:10150000B9810E940C2AE881E370E0937F6BBB8174
:101510000E94A72999F7A093806BB3950E94A729F1
:1015200069F7A093816BB3950E94A72939F7A0931F
:10153000826BB3950E94A72909F7A093836BCFE72D
:10154000DBE6D8C2CAC2E89402C0689400C081F445
:101550000E944F28E53060F0A881A3700E940B2AFA
:10156000B981AA810E94AB2921F42160EA2FC0C26F
:10157000BCC2B3C2B9F50E944F28E13198F1B981DC
:10158000AA810E940C2AEFE7FBE6A881A370A08342
:10159000AC81A183BD81B283BE81B383BF81B4839B
:1015A000BB810E94AC29F9F4A093806BB395A09104
:1015B000816B0E94AC29B9F4A093816BB395A09183
:1015C000826B0E94AC2979F4A093826BB395A091B1
:1015D000836B0E94AC2939F4A093836B2160CFE721
:1015E000DBE688C282C279C20E945C2878F0A0E063
:1015F0000E940B2ABCE10E94A72949F4E881E0FB84
:10160000A5F90E94AC2919F4216089C26EC265C295
:10161000E0EFE093CC6A0E94EF16E093CD6A0E945F
:10162000FF16D093CE6AC093CF6AB093D06AA093CE
:10163000D16AC8EDDAE6E0E8E88385E00E94991512
:10164000E883C2EDDAE6E0EDE883E0E0E983E0E09C
:10165000EA832B822C8285E00E949915E88322D0B0
:1016600000C0F7E0E0910A0BEF230DC0E091E26AC1
:10167000F091E36AEA953AF4FF0FF760FF77E091A3
:101680000A0BEF2300C0E093E26AF093E36A089547
:10169000F0914C68E0914D68EF2B0895E091E16A7C
:1016A000EE2308952092E16A0895F091E06AE093B4
:1016B000E06AFE1B08F4F195F53008F0F3CF0895C9
:1016C000CF93DF93ECECFAE6A991AF70B191BF70C4
:1016D000AB1731F4A991B191AB1711F4E23DD1F7F9
:1016E000DF91CF9108958F93E5E1FAE6A091276A03
:1016F0008A2F8C0FB081A193BA17A081B991BA0734
:10170000B1938C13FACFC091246A8F910895E2E0CF
:1017100013C0E3E011C0E4E00FC0E5E00DC0E6E077
:101720000BC0EAE009C0E3E0F4E007C0E4E0F7E062
:1017300004C0E6E0F9E001C0FE2FAE1718F0FA177A
:1017400008F00895E0918C68F0918D683196E093EF
:101750008C68F0938D68E0918468E395E0938468E9
:10176000EF91EF9100C0E0E0A7C083D1E4E2A4C014
:10177000CEDFEEE1A1C0CBDFD2D1E1E09DC0C9DF79
:10178000CED1E5E299C0C5DFCAD1E2E095C0CEDF97
:10179000C6D1E3E091C0BFDFA5D1E4E08DC0C3DFD7
:1017A0009ED1E0E289C0B3DF9AD1E1E285C0AFDF2C
:1017B00099D1E2E281C0B3DFE5E07EC0ACDFE6E0D4
:1017C0007BC0A7DF8FD1E7E077C0A5DF8BD1E8E052
:1017D00073C09DDFA4D1E9E06FC099DFA0D1EAE03A
:1017E0006BC095DF9CD1EBE067C093DF98D1ECE054
:1017F00063C08FDF94D1EDE05FC08BDF90D1EEE06E
:101800005BC087DF8CD1EFE057C083DF88D1E0E198
:1018100053C07FDF84D1E1E14FC07BDF80D1E2E1C3
:101820004BC075DFE091296AE395E211E093296AE4
:10183000E3E144C06CDF56D1E4E13EC074DF52D135
:10184000E5E13AC0A43011F098F425C0E881E3FD49
:1018500005C0E2FF1DC048DEE6E12EC0E2FF04C085
:1018600042DF71DEE7E128C03EDF6FDEE8E124C041
:10187000E881FE2FE370F3FD06C0F2FF09C04DDFE3
:101880003EDEE9E119C055DF2EDF74DEEAE114C067
:1018900029D1ECE111C026D1E3E20EC0EFE10CC08A
:1018A00042DFE0912A6AE395E211E0932A6AE2308E
:1018B00009F4E2DDEBE104C02092296A20922A6A51
:1018C000E093266AE091D069E093256A206208954A
:1018D00024DFEA81EADEDCDE39F4E0DE29F4C6DE6C
:1018E00019F4D1D1E6E2E8CF3ECF17DFEA81DDDEA1
:1018F000CFDE39F4D3DE29F4B9DE19F4C4D1E7E23E
:10190000DBCF31CF0ADFEA81D0DE2DCF06DFEA81DF
:10191000CCDEBEDE31F4C2DE21F4A3DEB4D1E9E2D6
:10192000CBCF21CF2197CCDE09F01FCFE1E0E093B0
:10193000E16AB1D1EAE2C0CFF4DE2197C1DE09F05D
:1019400014CFFE81EF81F06CF0930F6AE0930E6A82
:10195000E1E0E093E16A9BD1EBE2AECFEDE2ACCF08
:10196000E091276AE350EB30F8F4E093276AF0E067
:10197000E952F34E0995D1F4E091276AA4ECB9EB52
:10198000AE0FB21DBC91CB0FAE2FAB1BA093276A3D
:10199000C093246AD9E6E881E93040F4F0E0E851E8
:1019A000F34E0995ECE288CFCDDEDDCEDECE1FC052
:1019B0001CC01DC02DC019C025C02AC026C022C011
:1019C00016C023C000000002000402060400060046
:1019D00008C007C006C005C006C005C004C003C0DB
:1019E00002C097D0089581D00895189408959894CE
:1019F0000895E8E4F8E621C0ECE4F8E61EC0EEE461
:101A0000F8E61BC0E0E4F8E610C0E4E4F8E605C040
:101A1000F3DFD1F0EEDFC1F0F2CFA581BD81AB17CE
:101A200099F4A481BC81AB1779F4A381BB81AB1776
:101A300059F4A281BA81AB1739F4A181B981AB17EE
:101A400019F4A081B881AB170895E0919068E3FD87
:101A5000EA95E83008F4E0E0E09390680895E091BA
:101A60009068E3FFE395E73009F4EFE0E0939068D6
:101A70000895E0918C6BE395E33008F0E0E0E093AB
:101A80008C6BF0E0EB5BF24E099402C00CC015C009
:101A9000E0911970E5FF05C0E0910D70EF73E0680B
:101AA000BFC0E0E0BDC0E0911970E5FF03C0E09168
:101AB0000E70BBC0E0910070B3C0E0911870E3FFFE
:101AC000D8CFF0913A6AE0E0F2FDE160F3FDE26028
:101AD000F1FDE460F5FDE860ADC09DD0CACF9BD0BC
:101AE000AED0C7CF98D0AFD0C4CF95D0AED0C1CFF5
:101AF000B0D0BFCFE991DE0181D0E85FE883ED91FE
:101B0000E983ED91EA83ED91EB83ED91EC83A6D02F
:101B1000B0CFE0E0F0E0A0E0B0E0C1D0C8C07BD042
:101B2000E0918D6BE395EA3008F0E0E0E0938D6B97
:101B3000F0E0E256F24E62D009959BCF90C008C00B
:101B400009C00AC00BC00CC00DC00EC00FC010C031
:101B500011D014C03FD042C045D04CC047D02EC099
:101B600011D014C017D01AC01DD020C023D026C059
:101B700029D02CC0E091AD68F0E080C0E09187688A
:101B8000F7E07CC0E0916E6BF8E078C0E09104680B
:101B9000F9E074C0E091BA6AFAE070C0E091B66A08
:101BA000FBE06CC0E091A268FCE068C0E091A36833
:101BB000FDE064C0E0916A6BFEE060C0E091BF6A46
:101BC000FFE05CC0E091A968F0E158C0E091916845
:101BD000F1E154C0E0919C68F8E150C0E0919D684B
:101BE000F9E14CC0E091726BFAE148C0E0917C6B86
:101BF000FBE144C0E0917D6BFEE240C0CEEED9E651
:101C00000895A6EEB9E60895A8EEB9E60895A09164
:101C1000E569B9E60895F8DFA093E569089547C03E
:101C2000EDDFF1E0F883E98349C0E8DFF2E0F88313
:101C3000E98344C0E3DFF3E0F883E9833FC0CFE00A
:101C400041C0C0EF3FC0CCE33DC0CFE03BD0CCE3D0
:101C500039C0D4DFE0DF2882E9833AC042C0C6EF52
:101C6000D9E6E4E0E883A0E8B8E6ED91EC83ED91F5
:101C7000EB83ED91EA83ED91E98333C0E983FA8345
:101C8000F7E0F8832AC0EF9ACCECDAE634C0EF9A9A
:101C9000C2EDDAE630C0EF9AC8EDDAE62CC0AEDF6E
:101CA000E883F983AA83BB83E0E1EC831FC0F09152
:101CB000FB69FF0F28F1FF0F18F12BC0A2DFE3E053
:101CC00021D0F1C8A4DFE1E01DD0CD93A5CF9FDFE7
:101CD000E3E018D0E8D8A0CF9ADFE7E013D0E1D84E
:101CE0009BCF92DFFFE315D0D8D896CF8DDFFFE3EF
:101CF00010D0D5D891CF85DFFFEF0BD0CCD88CCFCB
:101D0000F0E007C0F091FB6902C0FF1FC8F3E69541
:101D1000E0F3F093FB6908950895C2EDD9E6A09130
:101D2000D1692092266AE881E856F0E0F14E0994E4
:101D3000FFC014C113C112C111C110C10FC10EC126
:101D40000DC10CC10BC10AC109C108C107C106C13F
:101D500005C104C103C102C101C100C1FFC0FEC071
:101D6000FDC0FCC0FBC0FAC0F9C0F8C0F7C0F6C0A7
:101D7000F5C0F4C0F3C0F2C0F1C0F0C0EFC0EEC0D7
:101D8000EDC0ECC0EBC0EAC0E9C0E8C0E7C0E6C007
:101D9000E5C0E4C0E3C0E2C0E1C0E0C0DFC0DEC037
:101DA000DDC0DCC0DBC0DAC0D9C0D8C0D7C0D6C067
:101DB000D5C0D4C0D3C0D2C0D1C0D0C0CFC0CEC097
:101DC000CDC0CCC0CBC0CAC0C9C0C8C0C7C0C6C0C7
:101DD000C5C0C4C0C3C0C2C0C1C0C0C0BFC0BEC0F7
:101DE000BDC0BCC0BBC0BAC0B9C0B8C0B7C0B6C027
:101DF000B5C0B4C0B3C0B2C0B1C0B0C0AFC0AEC057
:101E0000ADC0ACC0ABC0AAC0A9C0A8C0A7C0A6C086
:101E1000A0C09FC09EC09DC09CC09BC09AC099C0DE
:101E200098C097C096C095C094C093C092C091C00E
:101E3000B0C0AFC0AEC0ADC0ACC0ABC0AAC0A9C03E
:101E4000A8C0A7C0A6C0A5C0A4C0A3C0A2C0A1C06E
:101E5000A0C09FC09EC09DC09CC09BC09AC099C09E
:101E600098C097C096C095C094C093C092C091C0CE
:101E700090C08FC08EC08DC08CC08BC08AC089C0FE
:101E800088C087C086C085C084C083C082C081C02E
:101E900080C07FC07EC07DC07CC07BC07AC079C05E
:101EA00078C077C076C075C074C073C072C071C08E
:101EB00071C070C06FC06EC06DC06CC06BC06AC0B6
:101EC00069C068C067C066C065C064C063C062C0E6
:101ED00061C060C05FC05EC05DC05CC05BC05AC016
:101EE00059C058C057C056C055C054C053C052C046
:101EF00051C050C04FC04EC04DC04CC04BC04AC076
:101F00001AC019C018C017C016C015C014C013C01D
:101F100012C011C010C00FC00EC00DC00CC00BC04D
:101F20000AC009C008C007C006C00DC009C00EC065
:101F3000A150219670C0A093276AC093246AABCCAD
:101F4000A150219625C1A15021962BC2A1502196C6
:101F500017C1E091296AE33008F0A2CCEA9AE9912E
:101F6000A1506894F091106AFE13E894B091116A40
:101F7000B211E894BF2BF0910E6AFE1739F4F0917C
:101F80000F6AF7FD03C0B21128C045C00EF0EDCBBB
:101F900032C081CCEA9AE981F881A2502296E330DE
:101FA00021F4F03C11F4EB9A57C0B0910F6ABF17BF
:101FB000B0910E6ABE0741F4E091106AF091116A87
:101FC000EF2BE2110AC027C0B091116ABF17B09180
:101FD000106ABE0709F0C9CB0EC0E0911170EC6722
:101FE000E093126AE0911270E160E093136AE1E01D
:101FF000E093146A16C0EC9AE0911170E095E378D2
:10200000E093126AE0911270E095EE7FE093136A1C
:102010002092146A06C02092126A2092136A2092BB
:10202000146AA093276AC093246AE881E295EF704E
:10203000E45EF0E0FF4D09942BC040C055C054C091
:102040009ACB99CB98CB97CBC4CBC3CBCACBC5CBC0
:1020500071C070C0F7CBF2CBA093276AC093246AFB
:10206000EA98E881E295EF70E85CF0E0FF4D0994B2
:102070007ACB79CB78CB77CB76CB75CB74CB73CB54
:1020800072CB71CB70CB6FCB6ECB6DCBDBCBD6CBAA
:10209000E991EF70E25BF0E0FF4D0994C2CBCACB4F
:1020A000FDCBFCCBF5CBF4CBF3CBF2CBF1CBF0CB30
:1020B0007ECB7DCBEDCBECCBEBCB75CBE991EF7051
:1020C000EC59F0E0FF4D0994E3CBE2CB68CB67CB52
:1020D000DFCBDECBDDCBDCCBDBCBDACBD9CBD8CBCC
:1020E000D7CBD6CBD5CBD4CBE991EF71E658F0E086
:1020F000FF4D0994CDCBCCCBCBCBCACBC9CBC8CB76
:10210000C7CBC6CBC5CBC4CBC3CBC2CBC1CBC0CB5B
:10211000BFCBBECBBDCBBCCBBBCBBACBB9CBB8CB8B
:10212000B7CBB6CBB5CBB4CBB3CBB2CB30CB33CBB9
:1021300026CB29CBE991EF71E056F0E0FF4D0994F1
:1021400044CB39CB3BCBA4CBA3CBA2CBA1CBA0CB55
:102150009FCB9ECB9DCB9CCB9BCB9ACB99CB98CB4B
:1021600097CB96CB95CB94CB93CB92CB91CB90CB7B
:1021700044CB47CB4ACB4DCB50CB23CB36CB39CB03
:10218000A093276AC093246AE881E211ECCAF0CADE
:10219000A093276AC093246AE991EF52F0E0FF4DC3
:1021A0000994E1CAE0CADFCADECADDCADCCADBCAFA
:1021B000DACAD9CAD8CAD7CAD6CAD5CAD4CAD3CA1B
:1021C000D2CAD1CAD0CACFCACECACDCACCCACBCA4B
:1021D000CACAC9CAC8CAC7CAC6CAC5CAC4CAC3CA7B
:1021E000C2CAC1CAC0CABFCABECABDCABCCABBCAAB
:1021F000BACAB9CAB8CAB7CAB6CAB5CAB4CAB3CADB
:10220000B2CAB1CAB0CAAFCAAECAADCAACCAABCA0A
:10221000AACAA9CAA8CAA7CAA6CAA5CAA4CAA3CA3A
:10222000A2CAA1CAA0CA9FCA9ECA9DCA9CCA9BCA6A
:102230009ACA99CA98CA97CA96CA95CA94CA93CA9A
:1022400092CA91CA90CA8FCA8ECA8DCA8CCA8BCACA
:102250008ACA89CA88CA87CA86CA85CA84CA83CAFA
:1022600082CA81CA80CA7FCA7ECA7DCA7CCA7BCA2A
:102270007ACA79CA78CA77CA76CA75CA74CA73CA5A
:1022800072CA71CA70CA6FCA6ECA6DCA6CCA6BCA8A
:102290006ACA69CA68CA67CA66CA65CA64CA63CABA
:1022A00062CA61CA60CA5FCA5ECA5DCA5CCA5BCAEA
:1022B0005ACA59CA58CA57CA56CA55CA54CA53CA1A
:1022C00052CA51CA50CA4FCA4ECA4DCA4CCA4BCA4A
:1022D0004ACA49CA48CA47CA46CA45CA44CA43CA7A
:1022E00042CA41CA40CA3FCA3ECA3DCA3CCA3BCAAA
:1022F0003ACA39CA38CA37CA36CA35CA34CA33CADA
:1023000032CA31CA30CA2FCA2ECA2DCA2CCA2BCA09
:102310002ACA29CA28CA27CA26CA25CA24CA23CA39
:1023200022CA21CA20CA1FCA1ECA1DCA1CCA1BCA69
:102330001ACA19CA18CA17CA16CA15CA14CA13CA99
:1023400012CAF0CAEFCAEECAEDCAECCAEBCAEACAB0
:10235000E9CAE8CAE7CAE6CAE5CAE4CAE3CAE2CA01
:10236000E1CAEACAE9CAE8CAE7CAE6CAE5CAE4CAEB
:10237000E3CAE2CAE1CAE0CADFCADECADDCADCCA11
:10238000DBCAF1C9F0C9EFC9EEC9EDC9ECC9EBC9A7
:10239000EAC9E9C9E8C9E7C9E6C99ACAA6CAB2CA78
:1023A000B5CAA093276AC093246AE991E03F08F474
:1023B000DAC9EF70E252F0E0FE4D0994CFCAD3C9FA
:1023C000D2C9D1C9D0C9CFC9CEC9CACACCC9CBC953
:1023D000CAC9C9C9C8C9C7C9C6C9C5C9E0E0E09367
:1023E000CA692092FB690895FFFFFFFFFFFFFFFF0F
:1024000026C04EC050C059C062C069C070C087C1EC
:10241000ADC1E1C1EFC111C218C226C22EC236C27F
:102420003EC249C270C08AC0C7C019C12EC14BC1CB
:102430004CC14DC14EC14FC150C151C152C153C118
:1024400054C155C156C157C158C159C15AC1E2E022
:10245000E093110B332424C0E0918868F0918968DF
:102460003196E0938868F09389680AC0E0918A68A1
:10247000F0918B683196E0938A68F0938B6800C086
:10248000E0918468E395E093846800C0332403C03E
:10249000E3E03E2E00C0E398E998ED98E1E03AC20F
:1024A0000E94F22800C0ED99F1CF86F73394E4E959
:1024B000FBED0E948B16E3E02DC2ED99E7CF36F7D6
:1024C0003394ECEAFBED0E948B16E4E023C2ED9915
:1024D000DDCFE6F633940E94321AE5E01BC2ED9997
:1024E000D5CFA6F633940E94371AE6E013C2ED99D1
:1024F000CDCF2EF4339409F43A94E6E00BC2E32DE9
:10250000E43108F4C3CF3092D069E091C869F0910A
:10251000C969F695E795F695E795F695E795E21D75
:10252000E001FBEAEF9F1092FE690E01E2EDF9E691
:10253000CFE02192CA95E9F7E3E1ECC10EF0ED9905
:10254000A5CFE091C869F091C969F695E795F69530
:10255000E795F695E795E21DE001FBEAEF9F109203
:10256000FF690E01EE27529BEFEFF091E169E093D6
:10257000E169FE13EE9AE998EA98EF98EB98EC98E7
:102580002092D1692092CF69E0918568E395E43685
:1025900050F0E0918468F0918668E0938668EF1BC4
:1025A000E0938768E0E0E0938568E091E369E39574
:1025B000E093E369E7E1AEC1ED994ECFE091D169D7
:1025C000EF3008F053CFF2EDEF0FF9E6F21D319244
:1025D000E25DE093D169E091CF69E325E093CF69B3
:1025E0005EF509F043CFE3E0E093110BE0918068E2
:1025F000F09181683196E0938068F0938168E09172
:102600008268F0918368E21DF21DE0938268F09386
:102610008368E091C869F091C969F695E795F695E8
:10262000E795F695E795E21DE001FBEAEF9F109232
:10263000026A0E01E6E16EC1E091C869F091C969D4
:10264000F695E795F695E795F695E795E21DE00195
:10265000FBEAEF9F1092006A0E01E5E15BC1ED9B82
:102660000EF4FACEE091C869F091C969F695E79544
:10267000F695E795F695E795E21DE001FBEAEF9FF9
:102680001092016A0E01E7E145C1E2E0E093110B0F
:102690002092C6692092C769ED9B0EF0DDCEE091D5
:1026A000C869F091C969F695E795F695E795F695AD
:1026B000E795E21DE001FBEAEF9F1092036A0E012D
:1026C0002CDBE7E027C1E8E11EC0E9E121C0EAE137
:1026D0001AC0EBE11DC0ECE116C0EDE119C0EEE15E
:1026E00012C0EFE115C0E0E20EC0E1E211C0E2E28B
:1026F0000AC0E3E20DC0E4E206C0E5E209C0E6E29A
:1027000002C0E4E105C0ED99A7CE330C30F802C158
:102710001EF030FCA1CEFEC030FE9ECEFBC0E39A80
:10272000ECE3FBED0E948B160EF0B0CEC091FB697E
:10273000D0911970EB99D860D3FFC070D091187008
:10274000EB99D260E0919068E3FDDB7FD2FDDE7F04
:10275000EA99D0FFCC7FEC9BD1FFC370EF99CFEF0C
:10276000C093FB69529BB39993CE00C0E99AD09174
:102770002A70C0910A0BCD23D0912970CD0FCF7054
:10278000C093FC69C15BDCE0F001CD9F00921C0BA3
:1027900010921D0B0F01E091C869F091C969F6957F
:1027A000E795F695E795F695E795E21DE001FBEADA
:1027B000EF9F1092046A0E01E0E0E093110BE091AC
:1027C000FB69E0FF06C0C090E669E89AEDE0E0939F
:1027D0001301E9E09FC0F091FB69E091E769F1FD29
:1027E000E0934208E8E6F1E0E0931C0BF0931D0B48
:1027F000EAE090C0D0912C70C0910A0BCD23D0910B
:102800002B70CD0FCF70C093FD69CE5AD091FC696B
:10281000CD1BDCE0F001CD9F00921C0B10921D0B34
:102820000F01E091FB69E2FF06C0C090E869E89AF9
:10283000EDE0E0931301EBE06DC0E0EFF0E0E0933A
:102840001C0BF0931D0BECE065C0F091FB69E0916F
:10285000E969F3FDE0934208E0EEF1E0E0931C0B40
:10286000F0931D0BEDE056C0F091FB69E091EA6931
:10287000F4FDE0934208EEE04DC0F091FB69E09179
:10288000EB69F5FDE0934208EFE044C0F091FB698D
:10289000E091EC69F6FDE0934208E0E13BC0F09185
:1028A000FB69E091ED69F7FDE0934208E2E0E09317
:1028B000110BE1E12FC0E001E091C669F091C76919
:1028C000F695E795F695E795F695E795E21DFBEA0F
:1028D000EF9FE12DEC51F091FD69EF0FE093056A58
:1028E0000E01F091FB69FC7F91F0EEEFF9E6C191EA
:1028F000C783C191C783C191C783C191C783C19168
:10290000C783C191C783C191C783C191C7832092F7
:10291000FB69BCCDE093CA69AF91BF91CF91DF91C4
:10292000EF91EFBFEF91FF911895E4EEFAE6A6EE76
:10293000BEECD0E0C1E0D583C083B183A283268200
:102940002782208624823A96D395DA30A1F70B9815
:102950000A987DC113D0ED91FD91FC83FD91F8871C
:10296000FD91F98756D1EFB7E0FB7DD2E885E031E4
:1029700008F0E0E0E25AF0E0F94D0994AD81AA0FC9
:10298000AA0FB0E0AC57BF480895C8E4DBE6CF9388
:10299000DF930E94592CDF91CF912A97DBDF8E8144
:1029A0009F8196FB9827907409F0BDD08881815053
:1029B00041F008F088838D81882349F70FD11FD11A
:1029C00046C1F981EA8181918C3008F080E090E085
:1029D00080519B4D8F939F930895F983EA83EBCFAA
:1029E0000BC00DC011C02CC036C03FC042C048C093
:1029F00055C05DC063C069C00B807CD0DCCF019046
:102A000079D011901882E9CF0E94B4259F938F93BB
:102A10008191982F92958F709F70092E081A0394B8
:102A20001F90109C180E65D08191982F92958F70F1
:102A30009F70092E081A1F90109C180E1882CDCF77
:102A40000E94B42501909191091A0394182E109CAC
:102A5000190E4FD0B8CF0E94B42501909191091A58
:102A6000182E109C190E1882B8CF91918191FC01FB
:102A7000AACF919181910F01FC018D810995A3CF7E
:102A80000E94B42501909191981708F4A6CF039461
:102A9000102C100C100CE119F20995CFE89410805D
:102AA0000B80101460F021F43196319696CF689423
:102AB00011900B800114C8F7039415C0689411900D
:102AC0000B80101490F70A940EC00E94B425019058
:102AD0009191091A0394182E109C190E0B80101452
:102AE00008F407D070CF06D0119018820EF475CF7D
:102AF00062CF012C0B82A8E4BBE61D80A10DB21DA4
:102B00000C920895F0EDE0E403C0F0EDEAE600C0B9
:102B10008C81853108F080E0880FE80FF21D9191DB
:102B20008191FC0108958E8186F98E839EEC88EE5A
:102B300016F49EEC8CEE99838A8391E09883089535
:102B400013D08F77089510C00FD009F491700895B5
:102B50000BD009F49370089507D009F49770089585
:102B600003D009F49F70089580911A0B90910A0B7D
:102B700089270895E8E4FBE6D091B56ADF70D39524
:102B8000D4FDDA95C091396AC211D061C191CD17D7
:102B9000C091010ACF7E08F0C061C093010AC191C3
:102BA000CD17C091010ACB7F08F0C460C093010A21
:102BB000C191CD1708F06B9A08F46B98C191CD17AD
:102BC00008F06C9A08F46C98C191CD1708F06D9AD2
:102BD00008F46D983196319631960895ACE6B0E7D9
:102BE00008D080933D6A05D0E0913C6A80933C6AAE
:102BF000089581E0EE910DD0881FE0F70895ACE6CE
:102C0000B0E780E8ED9105D08795E0F780933E6AC4
:102C10000895E7FBEF77E53410F0EE2712C0EF7769
:102C20001E2EE770F0E0EA5BF343008016941694E2
:102C30001694E2E5F8E6E10DF21DE0810EF4E025E0
:102C4000E021E19508950102040810204080ECE79E
:102C5000F0E7AEE8BBEDDAE08191CD91C211888357
:102C6000E238D1F708951FB6F095F89400903A6ACB
:102C70000F220E2A00923A6A1FBE08951FB6F095E1
:102C8000F89400903B6A0F220E2A00923B6A1FBE06
:102C90000895E091396AEE230895E0913A70E09347
:102CA0008506FFB7F894E091396AE211EA95E0935E
:102CB000396AFFBFE1E0E093860608950FC00FC0B8
:102CC00018C020C028C030C038C03EC046C04EC06A
:102CD00072C073C07DC05BC064C050C002C1ECC094
:102CE00036F483FDFEC082FDE7C080FF90FFF9C08F
:102CF000E3C036F483FDF5C082FDDEC080FF90FFA7
:102D0000F0C0DAC036F483FDECC082FDD5C081FF8F
:102D100090FDE7C0D1C036F483FDCEC082FF80FDB8
:102D2000E0C090FDDEC0C8C036F483FDC5C082FFA0
:102D300081FDD7C090FFD5C0BFC0EEF783FF91FDE6
:102D4000C1C082FFBFC0AFC036F483FF91FDBAC0DF
:102D500082FFB8C090FFC5C0A6C0EEF783FF91FD0B
:102D6000B1C082FFAFC090FDBCC09DC0EEF783FF35
:102D700082FFA8C091FD089596D0AAC0AEF782FD4B
:102D80000895B3E0B823B21183FDABC095C066F7D8
:102D900082FD0895B3E0B823B21183FDA2C089D0AB
:102DA0009DC016F782FD0895B3E0B823B21183FDEC
:102DB00098C076D08DC001D00BC06894E0E1B4FD1E
:102DC00012C0B6FD15C081FD089580FF11C00BC073
:102DD000E894E0E2B5FD07C0B7FD11C080FD08959D
:102DE00081FF0DC000C06091B5707091B67013C0C6
:102DF000E0E4B6FD0BC080FF90FF089507C0E0E857
:102E0000B7FD04C081FF90FD089500C06091B370CC
:102E10007091B47000C0B0FD0BC0B3FF089583FF84
:102E200091FD0895FE2F0E9444270E94351527C06A
:102E3000B1FD0FC00E944A1509F491FD08953CD0E0
:102E400062957295EFB7E894E6FF68940E94351595
:102E500016C00E944A1511F491FFB3FD089541D0A8
:102E60000E94331509C080913C6A90913A6AA98505
:102E7000B0913F6AB3F90895E0E0FFE305C0E09147
:102E80003F6A0894EE1FF3E0EF23B0913F6AF0959C
:102E9000BF23BE2BE0933F6A089552DE69F0089588
:102EA00052DE51F0089550DE39F0089551DE21F0E0
:102EB000089552DE09F00895E0E4EF83089540DEBE
:102EC00081F0089540DE69F008953EDE51F00895E6
:102ED0003FDE39F0089540DE21F0089541DE09F02B
:102EE00008952F820895000006258500062582009A
:102EF00001000000010F01000100000001020101BA
:102F00000401080F01000104010800010000020093
:102F10008102108102FF210703A002FE810701FF49
:102F200000000200F10210F102FF210703A00000DF
:102F30000101140211F102FF2107028000000801C3
:102F400001043010010F01000801010430100104D8
:102F500008080F01000001000000090F01045020C3
:102F60000702FF0001000000080401000800010042
:102F70000108010253110801010406010704C004FD
:102F8000C040090F010702FF0000010F010101010C
:102F9000045020046010090F010702FF00000B031A
:102FA000010480400A00010702FF0000080401013B
:102FB0000F030104010801010101080705FF0000DA
:102FC00008000100010F0A01000A0702FF000200C9
:102FD000F102FFB90200B90702FF00000100010081
:102FE000010F010100130702FF00010F01010001A1
:102FF000010F010100110704FF00010F0101000191
:10300000010F01010001010F0101000F0706FF0080
:1030100001000100010001080F010801010702FF82
:103020000000010011080F010801010702FF000064
:1030300008000100010F1401000000000100000061
:10304000CEF0CEF4CEFCCF0ECF22CF30CF3ECF4845
:10305000CF5ACF68CF70CF8ACFACCFC4CFCECFE01E
:10306000CFEACFFAD014D022D034CEF0CEF8CF06AB
:10307000CF56CF56CF56CF56CF56CF64CF6CCF9EBC
:10308000CF9ECFC0CFDCCFDCD010D010D010D0304E
:10309000D030D03C2092406A2092416A089504D0FA
:1030A000FE2FE0E2EF1B0895E091416AF091406A43
:1030B000EF1B08F4E1950895E091416AF091406AB0
:1030C0008894EF1308940895C091416ACE5BD0E0D4
:1030D000D549B993E993F993A993C254C03208F042
:1030E000CC27C093416A0895C091406ACE5BD0E07E
:1030F000D549B991E991F991A991C254C03208F02A
:10310000CC27C093406A089590E3889410C0A881AA
:10311000A823A81711F492E106C0A881A823A81734
:10312000B1F393E100C0A881A817A9F00894A09179
:103130000210A1FDFCCFA0FDFACFADE9A4BF909392
:10314000001008F48993A4BFA1E0A0930010A091FF
:103150000210A1FDFCCF0895A1D092D00BD00E9407
:10316000F316E093316AF093326A20922B6A209230
:103170002C6A089582E010904E6800904F68F0919C
:103180004C68E0914D68EF01CD2BD9F4E0911070BF
:10319000F4E6EF9FF0E0E211F0ECE0910F70EF77D2
:1031A0000E0E121C1F2A81E0E0910070EF77F0E014
:1031B000C0911970C5FF05C0F0910D70E0910E70BF
:1031C000F06CE0930E6AF0930F6A0092106A10920E
:1031D000116A0128E0E0F0E20210EF2F44DDCEEFAB
:1031E000D5E19BCF22D1E0912B6AE23060F0E091F3
:1031F0002C6A20922B6A20922C6AEE3020F4F0E0A8
:10320000EC5FF64D0994089508950CC00DC00EC0F2
:103210000FC010C0089508950FC01EC029C010C06F
:1032200013C016C00C9463150C9465150C946915A5
:103230000C9473150C946E15F89466DF0C9463155A
:10324000A0E0B3E48CE15EC0A0E0B8E988E25AC037
:10325000A2E0B0E080E856C0F89481E0CEEFD5E17E
:103260005CDFE8E6F2ED3DC00001111213141D0011
:10327000E6E7F2ED36C000020506090A37383900E4
:10328000D4D004D0D6D002D0D8D000C0B0E078D00E
:10329000B395A0912F6ABA17D1F70895E091FF1561
:1032A000E03069F0EF3F09F02FDFBFD009D0C1D087
:1032B00007D0C3D005D0CFEFD5E180E02EDF089551
:1032C000B0E0A89506D0B395A0912F6ABA17D1F7B0
:1032D00008953AD028F4D0912D6ACE2F8A2F17CF97
:1032E0000895F894A191EF93FF9395D0A895FF913D
:1032F000EF91B191B15010F40C946315EF93FF93DB
:10330000E8DFF5CFF8948F93BF9385D0A895BF9150
:103310008F91B3958A9509F40C9463158F93BF939D
:10332000D8DFF5CFE0912D6AE431EEE0EB0751F004
:10333000E0910B70F0910C70EF1721F0EF91EF918D
:1033400098940895189408954AD033960994F0DF1C
:1033500046D03196099426F0E5DF41D032960994A3
:10336000E1DFAF93F4DFEF91E3FB0E947515E09589
:10337000AE23E0950EF0EE27AE2B31D032960994B5
:103380002ED030960994A0E027C0EA81A98121C0FF
:10339000EA81F0912D6AA081F0912E6AA08319C074
:1033A000EA81F0912E6AA08114C0EA81F0912E6A20
:1033B000B0912D6A89DE0DC0E981FA81A08109C032
:1033C000E981FA81A08305C00F92C895A02D0F90C6
:1033D00000C0189408940895189488940895CB2FE9
:1033E000D0912F6ACD1778F4D0E0CC0FDD1FCC0F31
:1033F000DD1FF091306ADF0FE881E43149F0F0E041
:10340000EE51F24D0895C0E0D0EEE2EEFDE20895F7
:10341000E981FA810895B0E0B03099F4A03029F044
:10342000A13039F0A23049F00CC0A4EDBCEDF0E0C1
:103430000BC0ADE7B0EEF0E007C0A1E0B2EEF1E006
:1034400003C0A0E0BCEDF0E0A0932F6AB093306A17
:10345000FC5EF0932D6AF45AF0932E6A089503C02F
:1034600007C009C012C0A0910014A0930070B1CF92
:10347000A0910070AECFAA2339F032F0E0E0F0E77F
:10348000B0912D6A21DEA5CF7ECFE0E0A3E0A1CFF1
:103490007ACF02C003C077CFADE09BCF0E94F0127D
:1034A00061F4E0912B6AF0912C6AFA13E0E0E39565
:1034B000E0932B6AA0932C6A8CCF65CF03C007C022
:1034C00009C015C0A0910B14A0930B7082CFA091DE
:1034D0000B707FCFAF3F11F4A0910C70A03F30F480
:1034E000EBE0F0E7B0912D6AEFDD73CF4CCFEBE06E
:1034F000A1E06FCF03C007C009C011C0A0910C1498
:10350000A0930C7066CFA0910C7063CFA03F30F4F5
:10351000ECE0F0E7B0912D6AD7DD5BCF34CFECE083
:10352000A1E057CF30CF06C02ECF2DCF2CCF05C076
:103530002ACF29CFE1E0F1E947CFE0E0F1E944CF3C
:103540000895D7E80BC20CD2BBD10AD2E091021089
:10355000E1FDFACFB1DDC0F7C7DDC081CA17B1F315
:10356000A083FB2FCDE9D3E1C4BFD0930010A0838B
:10357000D1E0C4BFD0930010D1E0D0930410D09319
:103580000310E2CF84E190E00E94982CFBCF82E30D
:1035900090E00E94982C0E94C524F9CFE1D10E94AE
:1035A0006D170E945C128CD1F9CF88EE93E00E94D7
:1035B000982C32D20E944716FCCF0C94BA250C945A
:1035C0000E140C9413150E944D260E946C170C9437
:1035D000DB14E091E3692092E369E093E2690C94E3
:1035E0002F1DFAEDEEE6DAE6C7E782E10E947F15CD
:1035F00014D037D03FD047D04FD057D05FD067D00E
:103600006FD011272227D9E0C9E9C093B36AD093BC
:10361000B46A089578940C94142BE7E7FAE6E093E3
:10362000B06AF093B16A08950E94A12A2092B76A05
:103630002092B86A2092B96A1D7FE091B76AF09132
:10364000B86AC091B96A3196C21D11FDEFCF22232D
:10365000D1F3E093B76AF093B86AC093B96A30D1F6
:10366000ECCFE8E3FBE2E0933F69F0933E69089515
:103670000C94A32AE1E4FBE2E0935F69F0935E69B6
:1036800008950C94C22AEAE4FBE2E0937F69F09388
:103690007E6908950C94C72AE3E5FBE2E093816913
:1036A000F09380690895A3E924C0ECE5FBE2E09380
:1036B0008369F09382690895A4E91BC0E5E6FBE203
:1036C000E093A369F093A26908950C94CE2AEEE6E4
:1036D000FBE2E093A569F093A4690895A6E909C007
:1036E000E7E7FBE2E093C569F093C46908950C94A1
:1036F000D52A0C94251710FD7FC0F093C26AFFB73E
:10370000F093C16A1160E093C36AD093C46AC09316
:10371000C56AB093C66AA093C76A9093C86A80933B
:10372000C96A1092CA6A0092CB6AC091B56AC39501
:10373000C093B56A09F41860CF7009F41460C0FD35
:1037400014C01061C091B36AD091B46AC15015F42D
:103750001062C97F10F41064C979D04010F4106869
:10376000D970C093B36AD093B46A17FD55D076D0A0
:103770000E94DD2A14FD0E94DF2A12FD0E94E12A28
:1037800013FD0E94E32A17FD0E94E92A14FF1BC0C3
:10379000DAE6CDE8A1E0E881F981319788F071F4AB
:1037A0002A2BE883F983EA81FB81FE2B49F0FB8118
:1037B0000180A0950A22A095018202C0E883F983C6
:1037C0002496AA0F41F70090CB6A1090CA6A8091A4
:1037D000C96A9091C86AA091C76AB091C66AC0913F
:1037E000C56AD091C46AE091C36A1270F091C16A4F
:1037F000FFBFF091C26A0895F894E1E0F1E00E9401
:10380000442DFFEF3197F1F7E0E0F1E00E94442D05
:10381000F0E43197F1F7F0CFE091B86AF091B96A2E
:10382000EE0FFF1FEBE8FE9F000C111CE4E6E11910
:10383000E093B66A1260C091BB6AD091BC6AC09333
:10384000BD6AD093BE6AD695C795D695C795C093E5
:10385000BA6A2092BC6A2092BB6A0895E091B56A68
:10386000EF70E093B26AEE0FF0E0E75CF34D09947D
:1038700008950C94382C0C94382C0C94382C0C94FF
:10388000382C0C94382C0C94382C0C94382C0C9428
:10389000382C0C94382C0C94382C0C94382C0C9418
:1038A000382C0C94382C0C94382C0C94382C0C9408
:1038B000382CF091AD6AFF0F11F02F1708F408951E
:1038C000E091BB6AF091BC6A3196E093BB6AF093D9
:1038D000BC6AC091B06AD091B16AEDB7FEB7E99306
:1038E000F883E0E2F22FC0E8FF0F30F019F0C69540
:1038F000E450D1F7CC27EE27C093AD6AE093AF6ACE
:10390000E695E093AE6ADAE6C7E7CE0FD21DC09324
:10391000B06AD093B16AE991F881CFB7F894EDBF5E
:10392000FEBFCFBF089591E0899FC00101C09927D4
:10393000C9E8DAE6B091AF6ACB0FD21DBFB7F894F1
:1039400088839983D091AD6AD0952D23BFBFB8CF1E
:1039500007D0B6CF03D0B4CFD091AD6A2D2B089548
:10396000D091AD6AD0952D230895208221820895AB
:10397000689401C0E894D091AD6ABFB7F894C08153
:10398000CC2321F0CE7FC083BFBF0895C181CD2B52
:10399000C183BFBF0EF0DCCFCBCFBFB7F894C191CE
:1039A000D081DD2321F4C160C293BFBF089520827E
:1039B0002292BFBF0DC0BFB7F894D081D260D1931F
:1039C000D081DD2311F4BFBF08952082BFBF00C0A6
:1039D000E9E8FAE6CD2F3496CC0F41F0E0F7F89401
:1039E0002192219221922192BFBFF6CFB7CF2082A0
:1039F0000895BFB7F894A081AE7FA083BFBF08959C
:103A0000F8DFB8CFE1E0F1E00E94442D0895E0E056
:103A1000F1E00E94442D0895CEE8DBE6EAE5FAEDF8
:103A20000C2E9FEFA191B191BF3F81F011968FEFC6
:103A300083951D901120E1F3821183958993981746
:103A400088F38211982F82110C2EECCF9093BF6ACD
:103A50000894C009C093C06A08950069206940694C
:103A60006069806982698469A469A669FFFF1F692A
:103A70003D695D697D697F698169A169A369C369E0
:103A80000895E2E0F2E000C0EF23F0950090766B3D
:103A90000F22E02906C0E0E004C0EFEF02C0E1E041
:103AA00000C0E093766B00C0E091766B0C94F91641
:103AB000EF23F0950090776B0F22E02908C0E0E03B
:103AC00006C0E5E504C0EFEF02C0E3E000C0E0930C
:103AD000776B00C0E091776B0C94F716310B000008
:103AE000010701310080686A000100404031008018
:103AF00000000002310B0000010701310083686AF9
:103B0000000100404031008300000002310B000042
:103B1000010107310080686A0001004040310080E7
:103B200000000002310B0000010107310083686AC8
:103B3000000100404031008300000002110B000032
:103B40000111401101836A6A0001014240110081A4
:103B5000886B000100404011008100000002310329
:103B60000000010010310080846B000100404031F2
:103B700000800000000631030000011000310080C9
:103B8000866B000100404031008000000006292CB7
:103B90000000000011030000010240110083336A9D
:103BA00000010040401100830000000211030000EA
:103BB000010240110083356A00010040401100837A
:103BC00000000002E0CBDFCBDECBDDCBDCCBDDCBFE
:103BD000DACBD9CBDDCBE4CBE8CBD7CBD4CBECCB9A
:103BE000D2CBD1CBD0CBE8CBEBCBCDCBCCCBCBCBD3
:103BF000CACBC9CBFFFFFFFFFFFFFFFFFFFFFFFFA8
:103C0000142F2A7F0801017F080802FF080803FF1C
:103C100008FF04FF088005FF0416000014482A006E
:103C200008010603086407FF081008FF04040000E9
:103C30000800090008000A00145E2AFF147A2AFF0F
:103C400008C30DFF08E80EFF08000FFF080010FF73
:103C5000080011FF080012FF0800130008001400FC
:103C60000000000000000000080017FF089E181167
:103C7000080A1911101A7000040000FF04FF00FF69
:103C80000000000000000000000000000000000034
:103C90000000000000000000000000000000000024
:103CA0000000000000000000000000000000000014
:103CB00000000000000000000804290F08002A0F7F
:103CC00008042B0F08002C0F00000000000000006B
:103CD00000000000080030070800310F088032FFA4
:103CE00000000000086434FF084135FF08B436FFC7
:103CF000088037FF088038FF088039FF08283AFF1E
:103D000008023B0008A03CFF08033D7F08073E7FF8
:103D1000080C3F7F0810407F0815417F0819427F3B
:103D2000081E437F0822447F0827457F082B467FD3
:103D30000830477F0834487F0839497F083D4A7F6B
:103D400008424B7F08464C7F084B4D7F084F4E7F03
:103D500008544F7F0858507F085D517F0861527F9B
:103D60000866537F086A547F086F557F0873567F33
:103D70000878577F087E587F000000000406000086
:103D80000C4068000C4168000C4268000C4368005D
:103D90000C4468000C4568000C4668000C4768003D
:103DA00008005AFF08005BFF04010000040900003E
:103DB0000C01A1000C0091000C0191000C0091007D
:103DC0000C1180000C10800014922AFF14962AFF18
:103DD0000C1717000CFF15000CFE150008015CFF06
:103DE00008025DFF08035EFF08045FFF080560FF2F
:103DF000080661FF080762FF08FF63FF08FF64FF12
:103E000008FF65FF08FF66FF08FF67FF08FF68FF00
:103E100008FF69FF08086AFF08096BFF083D6CFF8F
:103E2000083E6DFF083F6EFF08406FFF084170FFBE
:103E3000084271FF084372FF084473FF08FF74FFD4
:103E400008FF75FF08FF76FF08FF77FF08FF78FF80
:103E500008FF79FF08FF7AFF08FF7BFF08FF7CFF60
:103E600008FF7DFF08FF7EFF08FF7FFF08FF80FF40
:103E700008FF81FF0000820000008300080084FF2B
:103E8000080285FF080286FF08FF87FF080088FFF9
:103E9000080289FF08038AFF08FF8BFF08FF8CFFD9
:103EA00008008DFF08008EFF08FF8FFF08FF90FFBE
:103EB000080091FF080092FF08FF93FF08FF94FF9E
:103EC000080095FF080096FF08FF97FF08FF98FF7E
:103ED000080099FF08009AFF08FF9BFF08FF9CFF5E
:103EE00008009DFF08009EFF08FF9FFF08FFA0FF3E
:103EF0000800A1FF0800A2FF08FFA3FF08FFA4FF1E
:103F00000800A5FF0800A6FF08FFA7FF0808A8FFF4
:103F10000800A9FF080AAAFF08FFABFF0887ACFF4B
:103F20000803ADFF0800AEFF0820AFFF08E0B0FFB8
:103F30000880B1FF0880B2FF0825B3FF083FB4FF37
:103F40000853B5FF0833B6FF10576B000455000047
:10400000040900000401000000000000000000009E
:104010000C4368000C4268000C4168000C406800CA
:104020000C4768000C4668000C4568000C446800AA
:104030000C0875000C0975000C0A75000C0B750056
:104040000C0C75000C0D75000C0E75000C0F750036
:104050000C1075000C1175000C1275000C13750016
:104060000C1475000C1575000C1675000C177500F6
:104070000C1875000C1975000C1A75000C1B7500D6
:104080000C1C75000C1D75000C1E75000C1F7500B6
:104090000C2075000C2175000C2275000C23750096
:1040A0000C2475000C2575000C2675000C27750076
:1040B0000C2875000C2975000C2A75000C2B750056
:1040C0000C2C75000C2D75000C2E75000C2F750036
:1040D0000C3075000C3175000C3275000C33750016
:1040E0000C3475000C3575000C3675000C397500F4
:1040F0000C3A75000C1A75000C1B75000C756A00E3
:104100000C766A00000000000000000000000000C3
:104110000000000000000000000000000C9A680091
:104120000C9B68000C9C68000C9D68000CA2680049
:104130000CA368000C8068000C8168000C82680089
:104140000C8368000C8868000C8968000C8A680081
:104150000C8B68000C8C68000C8D68000C066A00E3
:104160000C076A000C086A000C096A000C0A6A0055
:104170000C0B6A000C0C6A000C0D6A000CD0690074
:104180000CE169000CE269000C8A6B000C8B6B007F
:104190000C6A6B000C0268000C0368000C046800D9
:1041A0000C0568000C0068000C0168000CFD15008F
:1041B0000C8E6B000C8F6B000C906B000C916B00E5
:1041C0000C926B000C936B000C946B000C956B00C5
:1041D0000C966B000C2168000C2068000C22680013
:1041E0000C0E6A000C0F6A000C106A000C116A00B9
:1041F00004550000FFFFFFFFFFFFFFFFFFFFFFFF72
:1042000004550000FFFFFFFFFFFFFFFFFFFFFFFF61
:00000001FF
; 
; *** EOF 
