:020000020000FC
:100000000C9446000C9424020C9424020C94BA0123
:10001000010060D10000000081EE29670B96822F5D
:10002000D6C1D8C1DAC1DCC1E2C0D8C0C7C5C8C515
:10003000DCC1D9C1E1C18FC394C319C41CC4A5C319
:10004000AFC3B6C349C422C430C499C38EC392C3DC
:10005000C2C4F0C1E4C1E9C132C337C342C343C320
:100060004BC357C36EC372C37DC4E2C0E8C074C43F
:10007000A7C3B1C38DC3CDC4D6C4EBC4E1C6E4C627
:10008000E6C6E8C6EDC6FBC60BC79EC1F89422249F
:10009000E7E2F9E6EDBFFEBFE8EDF7E0E4BFF0937D
:1000A0000001A895E8EDF4E2E4BFF0936800E09168
:1000B0004000E0934000EFBBE8EDE4BF2092011068
:1000C0002BBE4F98479AE8EDF0E6E4BFF09310019D
:1000D000E0914101E211FCCF2092480120924901B8
:1000E000E1E0E0934001E0E1E093E205EFE0E0933E
:1000F000E405E8E0E093B504E093B604E09311046E
:10010000E0931004E0E0F8E02682A0ECB0E0A087E5
:10011000B187A0E8A583A3E0A783A2ECA683A69855
:100120000198AD9A089AA59A009A439A039A029A5E
:10013000639A649A659A50D058D0F89B06C0E0E064
:10014000F0E6AFEFA193F836E8F3E0E0F9E6FB9BC9
:10015000F899E0E0FB9BF899F8E62192F038E8F393
:10016000E0914801F0914901F230D0F3E2E036D05D
:100170003AD0B69B0FC0A2D2C2E01DD5E09100904C
:10018000EF3F11F0C5D419F063D4C2D409F46FC1A4
:10019000E1E050C1E0E0FAE0208221822282238265
:1001A000AFE0A083E0E0FBE020822182AEE6B1E098
:1001B000A487B587A1E0A583A5E0A083C9D2CED24C
:1001C000789408D010D0C2E6EDD48FB39927E0E040
:1001D000F6D152C0E0E002C0EFEF00C0E0FF4B9864
:1001E000E0FD4B9A0895E0E002C0EFEF00C0E0FDB3
:1001F0000B9AE0FF0B98E1FD0A9AE1FF0A98E2FDF5
:100200006B9AE2FF6B98E3FD6C9AE3FF6C98E4FD58
:100210006D9AE4FF6D98E5FD4F9AE5FF4F98E6FD76
:100220004F9AE6FF4F98E7FD4F9AE7FF4F980895E2
:10023000E8EDF1E0E0933400F0934100FFCFA895A2
:10024000E8EDE4BFE1E0E0930001FFCFCDD316D3AA
:100250009681C1D30C92BED3CCC3C6D3BBD39781F6
:10026000BAD30CD309901C9001100C9211960197EF
:10027000C9F7B0D3BED30895E7E2F9E6EDBFFEBFFC
:10028000222734E0EEE29BD1C091006994D43CD1A6
:10029000203491F324FD10C026FFF9CFE8E3F3E00A
:1002A000059000160590159019F4F0010995E4CF1A
:1002B000E437B1F720FFEBCF003449F7622F6370CA
:1002C000613029F720620DD17A3B21F46631A1F625
:1002D0002061DDCF24FFD0CF7B3B39F4693060F65D
:1002E000C62F69D4246031E0D2CF7C3B21F422FFB9
:1002F000C3CF98D1CCCF7F3B51F6603011F40AD0F8
:10030000BBCF613009F40AD0B7CF68E08BC1C02FF2
:1003100049D4B2CF87D3E4EE52D1AECF99D3E2EF36
:100320004ED1AACF0053E1E00A9512F0EE0FFCCFB8
:10033000FEB3FE27FEBB0895309201319201329246
:1003400001339201349201359201369201379201C4
:10035000532D025214026485016187016287016393
:1003600087016587016687017387017587016C873F
:1003700001003C01EFB64F01E0910408E7FF13C014
:10038000E72DE619E03C23FF08F0AD9AE091010863
:10039000E2FD82C0F0E7E72D7090000871927E2E9A
:1003A000F401EFBE1895E091060BE093060B76146E
:1003B00011F442104A943A9422F4332EE8E0E09388
:1003C0004704F401EFBE1895E0E0F0E00895EDE099
:1003D000F0E00895E0E6F1ED0895E1E0F0E0089541
:1003E000E0E6F1ED089503D0EBC301D0E7C3AFE041
:1003F000B0E0C0E1D1E10895F8DFA193B193C193DA
:10040000D193F1DFA193B193C193D1930895DFEF1D
:10041000672C94D06710FBCF2197D9F7089517D098
:1004200048F00895EBE001C0EAE0E1DE20924801E7
:1004300020924901A895F894AD98F0E208D0E8F729
:10044000D6DEF0E404D0E8F7C5DECDDEF1CE0090D4
:10045000480100904901F0150895C0910069ABD39F
:1004600057D3C9F4CF3611F0CB36A9F4D0DF2092A0
:1004700005082092000A2092000B2092050B209282
:1004800048012092490193D1FE01E050F048F695D1
:10049000E795F8940994FBCEF89420920608AD985D
:1004A000E8E09CDEE5E5A3DEEFEFA89500C000C024
:1004B00000C0E211EA95119BF8CFE211F5CFC4CF4D
:1004C0008E2F992794DEE8E089DEEAEA78D0F09171
:1004D0000900E2E0F3FDEAE081DE32E0672C2ED095
:1004E000F6CF04D0702F02D0602F089507D0029568
:1004F0000F9304D00F900029F00E089505D00F7DC2
:10050000075308F4095D089519D0421002C025FD73
:10051000B3CE7614C9F3F0E7E62D0081639420642E
:1005200042102F7B26FD2F7EFBE04F2E21FF2395CF
:100530000A3011F00D3009F42C7F00C00F01A8958E
:1005400023FD06C0E72DE619E03218F4AD9801C08E
:10055000AD9AF0010895019101D003C00F93029567
:1005600001C00F930F70005D0A3308F0095F1BD0C4
:100570000F910895092FF0DF082FEECF0AE013D076
:100580000DE011C0E0E0F1E1E6DFE5DFE4DF0EE2DF
:100590000AD029DFCE01EEDFCD01ECDF26DFCE0170
:1005A000E9DFCD01E7CFD8E1C9DF0090040805FEFF
:1005B000FBCF2197B699C1F7009302080895E09305
:1005C0000169FDE0E091016905910DBBE0930169CE
:1005D000002391F012F0E7DFF4CFE9990ED0EA9909
:1005E00011D0EB991AD0EC99CDDFEE9913D0ED999B
:1005F000B2D2E899C3DFE5CF0895C591E0930169D0
:10060000DAD290C200900069109031690AE21010AD
:100610000895C9CF09E0C7DF87C2EC9BABCFEC9848
:100620000EB39ACF6CBBE099BAD2E19907D0E399A7
:100630009AD2E6991CCFE799F5CE089517D1B7D095
:10064000C0930269D09303695FDF20FFFDCF0A33B7
:10065000D9F74CDF502EF02E44DFC0910269D091C3
:100660000369C60FD71F42DF003031F00130F1F0CF
:10067000023069F0E4E024CFFDD008945208A0F0E5
:100680002AD1E5E0C8F032DF802F0ED1F6CF29DF86
:10069000660F771F660F771F660F771F660F771F2E
:1006A000609302697093036903D0CECF5AD100C022
:1006B0001DDFF21411F0E6E003CF0895BBD0C3E6CE
:1006C000D3E049D04EC0A8950895C487D587089532
:1006D000C93008F0C9E0DCE0CD9FE001C856D5473D
:1006E0000895F6DFADC0C083D183C48BD58BCA0F0C
:1006F000DB1FC283D3830895A68FA895C28FD38FA3
:10070000D5D020F0C28DD38D2197B9F70895AA27AF
:10071000BB27C48FD58FEC8FFD8FA895A28FB38F89
:10072000C48DD58DFE01B2D048F0C48DD58DFE01AB
:10073000BCD020F0A28DB38D119779F708958FEF7B
:1007400079D0868FA895B2D0E8F70CC1FADFFFCF39
:1007500071D0CEEFD4E0C68BD78B08956BD0C7E0B5
:10076000D5E0C08FD18F089565D081D00ED018D03C
:1007700025C260D07CD009D013D022C25BD0F5DF77
:1007800002841384C015D1050895C489D5890895BC
:10079000C489D58900801180C019D10908954AD033
:1007A000A281B38104881588A019B109089542D0A7
:1007B000C081D18108953ED0C281D38108953AD0BD
:1007C00000801180C281D381C019D10909F021961E
:1007D0000024021C08957CDFFE0100801180C2818C
:1007E000D381F2CF0C2EC4EADAE81884101419F081
:1007F0002C96C430D1F70895DCE0CD9FE001C856B7
:10080000D5470895CE01C4EADAE80880198080153A
:10081000910530F00A801B808015910531F028F099
:100820002C96C43091F70894089588940895A0E018
:10083000B1E70895E8E2F9E60895FCDFA487B587FB
:100840008CE0099001928A95E1F73C97C481D581AB
:100850002197C095D095C28BD38BC081D181C6879B
:10086000D787C08BD18B278E02D07EC0E3DFC081BB
:10087000D18101C0DFDFC48BD58B08958481958140
:10088000A685B785C485D5850895D4DF25D038F0F1
:10089000C489D58950D020F08991C48BD58B089517
:1008A00021968FEF0894F9CFC5DF868F15D090F091
:1008B00053D0C481D5812197A489B589CA23DB236C
:1008C0001196A48BB58BA485B585CA0FDB1F868DC9
:1008D000888388940895AEDF048810800114058809
:1008E0001180010440F004881280011405881380EF
:1008F000010419F010F008940895889408959ADF7F
:10090000C489D589A685B785CA17DB0730F0A089C9
:10091000B189CA17DB0719F010F00894089588947C
:10092000089588DFC685D78506D0A78DAE7F08F4E9
:10093000A160A78F0895C034B0E1DB0748F0D6313D
:1009400048F0D03628F0D03828F0D03908F002C06E
:100950000894089588940895D3DF10F403D004D048
:10096000089568DF2BD026C0C489D58902881388F2
:10097000C021D121C687D78784819581C80FD91F0F
:100980002197C08BD18BCEDF40F0A685B785C4857B
:10099000D5850D9009920197E1F70895078C00FC29
:1009A00007C06CDF09901D90011419F40197D1F76D
:1009B00018940895F3DF09F050CC0895078C00FCDB
:1009C00008955CDF09901D90102001103FCC019725
:1009D000C9F7089590E0809102108370E1F78DE9E6
:1009E00084BF90930010089506880F9207880F9295
:1009F0000895008C0F92018C0F9208952860AD9A93
:100A0000FF93F4E69BDDFA95E9F7FF910895277FC0
:100A100095CDC2E066DE80E180930110B0DE2092C9
:100A20000110089507DFEF01DFDF2BD069F09BE0B5
:100A3000D2DFE895CFDF92E0CEDF00801180E8952D
:100A40003296F03AD1F7C6DFFE01D3CF02D0F7CB12
:100A5000F1DEFF93EF93C8DFDCDF81F412D071F099
:100A600094919F3F59F09BE0B6DF0082B3DF92E0A4
:100A7000B2DF04900192F03AE1F7ACDFEF91FF9121
:100A8000B8CFE0E0F0E994918191891711F4F03A40
:100A9000D1F7E0E0F0E908950000FFFF0100000059
:100AA0002D00000000A0FFFF0002080266016FD1C8
:100AB0000090FF9F0002080262026BD10014FF1534
:100AC0000100181265036ED180109F1020000802EB
:100AD00063046CD100111F110100000073050000B8
:100AE0005010581001000000750600000060FF67FC
:100AF0000002000061076AD140104F1001000000A1
:100B00006C08000000110011010000002D09000018
:100B100035DEA0930469B0930569C0930669D0934C
:100B200007690895F5DF06C0E0E1E0930110F0DF0A
:100B300020920110E4ED09F4EAED0ED090910769DE
:100B40008091066917DD909105698091046912DD35
:100B500002C0E4ED01C0E0EEFDE00591002311F0DC
:100B600022DDFBCF08950ADD81DEF3DF63DE8489B9
:100B7000958900E1080F090FF02EE6E920DD85DEFA
:100B800038F0082FF00EE8DC55DE04890F70B9F755
:100B9000E0DFF1940F2DE0DC9EDE40F7089566DE85
:100BA000CEDDDFCE05D00091316900930069089554
:100BB00019DE3DDE42CE20DE3ADE3FCEE89404C0B0
:100BC0006894CA0FDB1F00C0EF93FF936FEF7FEFB6
:100BD000CB01FF27A8950EF019900EF41A900894F7
:100BE0001794062E0F1E969587957795679500FEAC
:100BF00008C0EDEE9E27E8EB8E27E3E87E27E0E2D3
:100C00006E27169471F7119728F790958095709537
:100C100060950E01DB01EC018623872389238095F3
:100C2000FF91EF910895FFFFFFFFFFFFFFFFFFFF21
:100D0000A1811B5B34316D2E2E2E5B524553455411
:100D10002D885DA11B5B34346D2E2E2E5B524F4D02
:100D20002E4D4F422E4E454D3635315D2000A1816E
:100D30004944205B905D814C3A208708523A201B41
:100D40005B33326D4431365230303031A1533A206A
:100D50008705553A20870681413A208707423A2085
:100D6000C702433A208704453A208703463A208742
:100D70000181524F4D205B987C527C537C645D20F6
:100D80002D205B617C627C637C657C667C6C7C7303
:100D90007C755D3E2000813A31301B5B39346DA893
:100DA0001B5B39306D3030A0000081811B5B343516
:100DB0006D2E2E2E5B4572726F722023885DA020EF
:100DC0002D203C627265616B3E20746F20726573EA
:100DD000756D65001B5B39306D001B5B33326D0038
:100DE0001B5B6D00A1811B5B34346D5B532D3E5D3D
:100DF0000000A1811B5B34346D5B3C2D525D000013
:100E0000ACAAA9A5A3A69C9A999593968E8D8BB111
:100E1000B2B4B874726C6A696563665C5A595553AA
:100E2000564E4D4B4771E8E4E2D1C9C5D8D4D2CA79
:100E3000C6CC78171B1D1E2E363A272B2D3539337D
:100E40001ED00ED01CD00CC00BD019D009C017D0AA
:100E500007D015C005D0E991EF73E081ED930895B7
:100E6000E991EF70F881FF0FEE1FFF0FEE1FFEE814
:100E7000E081ED93E991EF73E081ED930895FEE851
:100E8000E881E695E695E081ED93E991E370E295DE
:100E9000F881F07FF295EF2BFEE8E081ED93089565
:100EA000FEE8E881E081ED930895FFFFFFFFFFFF7B
:100F0000005EBCE2613FDD83C29C7E20A3FD1F41E9
:100F10009DC3217FFCA2401E5F01E3BD3E6082DCD9
:100F2000237D9FC1421CFEA0E1BF5D0380DE3C62C9
:100F3000BEE0025CDF81633D7C22C09E1D43A1FFB9
:100F40004618FAA427799BC584DA3866E5BB5907A9
:100F5000DB856739BAE406581947A5FB7826C49A99
:100F6000653BD987045AB8E6A7F91B45C6987A2489
:100F7000F8A6441A99C7257B3A6486D85B05E7B979
:100F80008CD2306EEDB3510F4E10F2AC2F7193CD69
:100F9000114FADF3702ECC92D38D6F31B2EC0E5059
:100FA000AFF1134DCE90722C6D33D18F0C52B0EE49
:100FB000326C8ED0530DEFB1F0AE4C1291CF2D7339
:100FC000CA947628ABF517490856B4EA6937D58B29
:100FD0005709EBB536688AD495CB2977F4AA481619
:100FE000E9B7550B88D6346A2B7597C94A14F6A809
:100FF000742AC896154BA9F7B6E80A54D7896B35F9
:1010000087C0FFCFFFC7FFCFFFC7FFCFFFC7FFCF0F
:10101000FFC7FFCFFFC7FFCFFFC7FFCFFFC7FFCF80
:10102000FFC7FFCFFFC7FFCFFFC7FFCFFFC7FFCF70
:10103000FFC7FFCFFFC7FFCFFFC7FFCFFFC7FFCF60
:10104000FFC7FFCFFFC7FFCFFFC7FFCFFFC7FFCF50
:10105000FFC7FFCFFFC7FFCFFFC7FFCFFFC7FFCF40
:10106000FFC7FFCFFFC7FFCFFFC7FFCFFFC7FFCF30
:10107000FFC7FFCFFFC7FFCFFFC7FFCFFFC7FFCF20
:10108000FFC7FFCFFFC7FFCFFFC7FFCFFFC7FFCF10
:10109000FFC7FFCFFFC7FFCFFFC7FFCFFFC7FFCF00
:1010A000FFC7FFCFFFC7FFCFFFC7FFCFFFC7FFCFF0
:1010B000FFC7FFCFFFC7FFCFFFC7FFCFFFC7FFCFE0
:1010C000FFC7FFCFFFC7FFCFFFC7FFCFFFC7FFCFD0
:1010D000FFC7FFCFFFC7FFCFFFC7FFCFFFC7FFCFC0
:1010E000FFC7FFCFFFC7FFCFFFC7FFCFFFC7FFCFB0
:1010F000FFC7FFCFFFC7FFCFFFC7FFCFFFC7FFCFA0
:1011000001006BD10100000081EE2967E7A14CC905
:10111000A895F8942224EFB3E0931C68E8EDE4BFAF
:1011200020921001E8EDF1E0E4BFF0936200EFE1FE
:10113000F9E6EDBFFEBF4F98479AAC9AA49AE0E457
:10114000F8E02682A0E8B1E0A087B1872582A3E07D
:10115000A783A0E4A683A9E0A093000A2092200A16
:101160002092210AA1E0A093000B2092010BAFEF87
:10117000A0930C0BA0930D0B209252042092B30469
:101180004298A39832D4A895E8EDE4BFE7E0E09355
:10119000000151D453D4E7D3BBD400D480911B6851
:1011A000821101D4EFB3E0931C68E0911B68E21157
:1011B00005C0E0911168E21183C200C0C0E0D8E62A
:1011C0005DD3F993E9935CD3F993E99367D3E4E0B2
:1011D000F8E6D193C193B193A193A0910768AF773B
:1011E000A16020925069A0935169EBD2A091009127
:1011F000B0910191B883A983A09100A1B09101A100
:10120000BA83AB832C82E3D2288229822A822B8262
:101210002C82E0D2E0E0F1E9A081B181B883A9831A
:101220009BB781E08BBFA081B1819BBFBA83AB83A9
:101230002C82E8EEF3E0E0932369F09324690091B7
:10124000FE15E0910468E093256921E08FC180E5F7
:1012500040D49091366980E0933049F08A8194308F
:1012600031F031FD6DC18D81983009F06DC1209252
:1012700023692092246958D123E082C2F0D184E40A
:1012800028D48E8180930A688F8180930B6888852B
:10129000809308688985809309688A8545D127E00D
:1012A00073C2E2D180E715D427E078C2DDD181E4B2
:1012B00010D4888580930C68898580930D688A8511
:1012C00082FD04D283708093116828E069D28091F6
:1012D00011688211EED14AC190913669953011F0B2
:1012E000983011F4EA8116C0973011F09A3019F451
:1012F000C0D1EC810FC0993011F09C3019F4AFD1FE
:10130000EE8108C09B3011F09E3019F4ADD1E88514
:1013100001C01AC1EA3070F4F0E0E057F64F0994CA
:10132000E1C0E1C0E2C0E2C0E1C0E0C0E3C0E4C0AF
:10133000E9C0EEC01BC19DD182E4CBD38C818093E8
:10134000A46B38854985823011F430FD0FC128E146
:10135000E19A30FD28D230FF29D2C7E0E4E8FBE66D
:10136000C9D2C091A46BE6D1C5D2DBD08E819F815A
:10137000DAD1EDEEDE2EE8EBCE2EE3E8BE2EE0E293
:10138000AE2EEFEF9E2E8E2E7E2E6E2EB9D1EEC09B
:1013900070D183E49ED30C8009140D8008040E8064
:1013A00007040F80060428E211F428E4A9D1D6C16D
:1013B00060D182E58ED328E7AED1D7C15AD184E57A
:1013C00088D328E5D2C155D185E483D328E03E7F78
:1013D0004427C4C14ED186E47CD3ACD19091366908
:1013E000963019F08C8130FD8DD230FD8FD2BEC089
:1013F00030FDA4C090913669933009F405C0953052
:1014000011F437D101C0A0C082E763D393D15CD27D
:101410008093486911D058D2809349690DD054D235
:1014200080934A6909D050D280934B6905D0929538
:10143000909590934C69DBC1991F90FD0895089495
:1014400087957BD18695E9F7089530FF77C0909115
:101450003669933009F422C0953011F40AD11EC0C8
:101460009B3011F4229606C09D3019F402D12496C7
:1014700001C06AC087E72DD378E069910894679529
:101480005CD16695E9F77A95C1F7A8E0B0E02897B6
:10149000E4E8FBE631D2A8E0B0E01BC0C1D081F4A3
:1014A00078F0A0E0B2E760E8BBD011F4E8F748F0CC
:1014B0008FB743D18FBF6795B8F76D93A13898F375
:1014C00055C0A050B247C0E0D2E7E4E8FBE614D232
:1014D00000C0C4E8DBE62ED130FD12D230FD1CD2B4
:1014E00045C044C056C154D115C253C151D1E1D0F9
:1014F00002E03CC050D13AC09E3009F037C04BD119
:1015000017D234C09E3009F031C045D10FD22EC061
:101510003FD1C1E038D2CF3619F4D13D09F471D5AD
:10152000F9C1C6E2D9E6089590910A0B9823921169
:101530001DC0089584E40CC082E50AC08DE408C093
:1015400083E406C085E404C08CE402C084E500C0E6
:10155000C0D20CC0C0912369D0912469219730F08A
:10156000C0932369D093246909F4C1CFEFE1F9E670
:10157000EDBFFEBF59D293D2B0D02CBA6AE050D0A2
:101580001130A1F76A95D9F74BD081F7E8F391387C
:1015900008F43094C6DF7727EE2761E041D0B1F63A
:1015A000661FE0F769937627C43370F639D071F679
:1015B00020F0E627FFE8E081F0CF7211C3CFE0937F
:1015C00037693D7FE2113260C652C0933669A9DFA8
:1015D000E881ED3F69F000FD8ACFF981EF2BEA81C8
:1015E000EF2B29F4E0913669E33009F480CFB2CFD4
:1015F0006981603F08F4BACF6F70E6E3F8E9660FDF
:10160000660FE60FF21D0190022209F497CF0190B8
:1016100000FE02C031FD94CF01901080F0010994CA
:10162000A89511270AB0032402FEFCCF9091200A4E
:101630002092200A2092210A0AB0032402FCFCCF47
:101640008091200A2092200A2092210A8D31111FB8
:10165000813810FD8F30111F012E06940895E0E0AF
:10166000F8E684E01DD00CC0E4E0F8E686E018D08F
:1016700007C00FD029F00AD019F005D009F00CD01E
:10168000821174CF0895EAE0F8E609C0E8E0F8E6D0
:1016900006C0ECE0F8E603C0EEE0F8E600C082E049
:1016A000DE01129601901D90011411F48A95D1F774
:1016B0000895C1E068D1CF3611F4D13D09F0089505
:1016C000EED1E09105A1E0FD01D09AC4E8EDE093F0
:1016D0003400E5E8E09301100895E091060BE0FF87
:1016E0000895E093060BE0912269E395E093226967
:1016F000E6FF01C002C079D18AC179D1E3E08DC192
:1017000017D00E010EDF6A8A7B8A8C8A9D8A0F8A27
:10171000188E298E089505DF6A887B888C889D88BD
:101720008F89988D00C006D0CBD0C80FD91FC2C0FA
:1017300001D0F8C0E4E6FBE6089530F09694879473
:101740007794679430F009C096948794779467945F
:1017500020F09D248C247B246A2408953ED0988216
:1017600089827A826B822C8243C0E2DFDE01809123
:10177000A46B33D088832982BA83AB832C8238C090
:10178000E0E0F8E692E02FC0E4E0F8E690E02BC05D
:10179000E19A1DD02DC0E19A1DD02AC015D028C0D5
:1017A000E19A0FD025C0C6E7D8E922C0C091A46B4A
:1017B000B7D0DE0112D00882B983AA832B822C8293
:1017C00017C0C5E5D9E60895C0E5D9E60895CAE58C
:1017D000D9E60895CFE5D9E60895C8E4D9E6089595
:1017E000A0E4B9E60895F9DF84E0B4D09883F5DF8A
:1017F000F7DFA4D000C097E712D09DEA10D0F0DF49
:1018000086E09091440895FFFCCF9D91909342080B
:101810008A95B9F78AE25DD1E19BA8CE0895009040
:10182000200A0916E0F32092200A2092210A529BF6
:10183000B39982CE08950100270902013E090401EF
:101840005109040156090000710A0000710A0000E4
:10185000710AFF016C0908019B097001C809200188
:10186000D8094001DE091001E3091001EA0910005E
:10187000F8091000250A02003214FFFF0C94100032
:101880000C9411000C9412000C9413000C9414008E
:101890000C9415000C9416000C9417000C9418006E
:1018A0000C9419000C941A000C941B000C941C004E
:1018B0000C941D000C941E000C941F000C9420002E
:1018C0000C9421000C9422000C9423000C9424000E
:1018D0000C9425000C9426000C9427000C942800EE
:1018E0000C9429000C942A000C942B000C942C00CE
:1018F0000C942D000C942E000C942F000C943000AE
:101900000C9431000C9432000C9433000C9434008D
:101910000C9435000C9436000C9437000C9438006D
:101920000C9439000C943A000C943B000C943C004D
:101930000C943D000C943E000C943F000C9440002D
:101940000C9441000C9442000C9443000C9444000D
:101950000C944500019009928A95E1F70895299227
:101960008A95E9F70895E4E8FBE60E94760CC4E660
:10197000D9E60E94780CE4E6FBE60E94760CC4E609
:10198000D9E60C94780CE4E8FBE60E947A0C0C94FF
:101990006A0CC0E0D8E6A6E1B0E00ED0C0E0D8E620
:1019A000AAE1B0E014C0C0E0D8E680E0D8DF00C013
:1019B000EFEFE0931B6808956DDFF001A095B095FF
:1019C000C095D095A083B183C283D383089562DF8D
:1019D000F00180830895E2E0F2E000C0EF23F0958B
:1019E000009020690F22E02904C0E0E002C0EFEF80
:1019F00000C0E093206900C0E09120690C94480C7D
:101A0000EF23F095009021690F22E02906C0E0E065
:101A100004C0E5E502C0EFEF00C0E093216900C01B
:101A2000E09121690C94460CB69904C0E5E5119B40
:101A30000C94740C07C0442455240895AD9808955F
:101A4000AD9A0895E0910408E7FF0895E091000839
:101A5000E0930070089502D08CE23BC001D003C037
:101A60008F93829501C08F938F70805D8A3308F0C9
:101A7000895F2FD08F9108958AE02BD08DE029C007
:101A80000F01451451F0F0910408F5FF06C0F1E78D
:101A9000E52DF081F09302085394F0010895451468
:101AA00059F0F0910408F5FFFACFF1E7E52DF08148
:101AB000F09302085394F3CF0895C42DD1E7019019
:101AC000002029F00882C395C511F9CFCA954C2E84
:101AD000D8CF0F01F201FA95EF1719F0F1E78083E3
:101AE0004394CFCF8F938E2FF201FA95EF1719F011
:101AF000F1E7808343948F9108958991ACDF9A95A3
:101B0000E1F708958991821188130895E2DFFACFF1
:101B1000C4E2DBE9F7DF80911C68A0DFC4E3DBE906
:101B2000F1DFBDCF0A0D1B5B34346D2E2E2E5B42D0
:101B30004C442D005D1B5B6D0A0D0000C4E4DBE925
:101B4000E1DFADCF0A0D1B5B34336D2E2E2E5B55BE
:101B500050445D1B5B6D0A0D0000CCE6DBE9D2DF73
:101B6000C0E0D8E690E1C9DF87DF99CF0A0D1B5BA3
:101B700034326D2E2E2E5B4150505D1B5B6D202D3F
:101B80002000FFFFFFFFFFFFFFFFFFFFFFFFFFFF43
:1020000049C1089581E084C082E082C083E080C03D
:10201000F7D0FAC085E07CC086E07AC087E078C05F
:1020200088E076C089E074C08AE072C08BE070C03E
:1020300072C000008ED0A0C08EE06AC08FE068C081
:1020400080E166C081E164C082E162C083E160C07A
:1020500084E15EC085E15CC086E15AC00AC100002F
:10206000D5C0000089E154C08AE152C08BE150C064
:102070008CE14EC08DE14CC08EE14AC08FE148C07A
:1020800080E246C081E244C082E242C0FDC000005E
:1020900084E23EC085E23CC086E23AC087E238C0B6
:1020A00088E236C089E234C08AE232C08BE230C0B6
:1020B0008CE22EC08DE22CC08EE22AC08FE228C0B6
:1020C00080E326C081E324C082E322C083E320C0F2
:1020D00084E31EC085E31CC086E31AC087E318C0F2
:1020E00088E316C089E314C08AE312C08BE310C0F2
:1020F0008CE30EC08DE30CC08EE30AC08FE308C0F2
:1021000001006FD10201000081EE2967BD3EBE854E
:10211000A895FDD1FFCF0FB73F014001E091476A7D
:10212000E395EF3008F0EE27E093476AF0E0E656DB
:10213000FF4E09944EC259C262C292C216C31BC35B
:1021400020C325C32AC32FC334C339C33EC343C3EB
:102150004AC3E89B08C0E89820921301C092420845
:10216000CF90CF901895209252010091160B0093BA
:10217000160B2092150B1895FF93EF93EFB7EF9383
:10218000DF93CF93BF93AF93F894E0911C0BF09142
:102190001D0B7894A091A869B091A969E093A869F2
:1021A000F093A969EA1BE093AA69FB0BF093AB6972
:1021B0006894B2E0E037FB0708F4ED9AB3E0EC3046
:1021C000FB0758F0E894B4E0E833FB0708F4ED9A15
:1021D000B5E0E03AFB0708F0ED9AF091140BE0E16E
:1021E000A091C369EE9BFE27EE98E3E0A211E5E023
:1021F000E0934102F093140BE091AC69FCE1099487
:1022000001E00093530118950C9421243F01E091C3
:10221000336AF091346A009110060193009111061F
:102220000083E091356AF091366A019100930C06C3
:102230000191009308060191009309060191009312
:10224000000601910093010601910093A000019105
:102250000093336A01910093346A019100930B0655
:10226000019100930A06E093356AF093366AF30110
:10227000189500E000938606009187060093870674
:1022800004E100930E6A18950FB7209203102160A5
:102290000FBF1895A895F89422242DBAE8EDE09385
:1022A0003400E5E8E0930110EFE1F9E6EDBFFEBF91
:1022B000E0E0F9E6C0EADBE021922197E9F720921D
:1022C0000508A2E4A0931202ABE4A0931402A3E0D9
:1022D000A0934102A8E0A0935604A4E0A093710447
:1022E000A0937704A093B1040D98059A0C98049AD2
:1022F0004F9A47984F98479A4798A198699A6F9A2A
:1023000061986798A4E0A0937204A0937004A093CE
:10231000B004A0E0A093E605A4E1A093010AA1E027
:10232000A093030AABE0A093000AE0E0FBE0208268
:10233000218222862386A0EEBEE22486B587A1E014
:10234000A683A1E0A583A3E0A083E0E1FBE02082D7
:10235000A2E0A183A1E4A483A1E0A683A583A3E0D6
:10236000A083A3E0A0932002A5E0A0932102E1E0D6
:10237000E093C001E3E4E093C901EEEEE093CB010A
:10238000E1E0E093C801A0E1A0931102E0E8FBE0E6
:10239000A2E0A0934902A0934A02A4E0A08BA18BE3
:1023A000A1E8A087A187E0E8FBE0B8EDA0E0A18369
:1023B000A0E0A283A3E3B0933400A28BAFEFA2A767
:1023C00023A6A6A727A6A0A7A1A7A4A7A5A7A685D9
:1023D000A0FFFDCFC0910614A1E0C13009F4A3E035
:1023E000C23009F4A9E0B0933400A083A091510158
:1023F000A0FDFCCFA9E1A0935001A1E0A09353015F
:10240000A0935201A5E8A093A000A5E8A093A40082
:10241000A5E8A093A200E0E0F6E0A1E1A083A0E09F
:10242000A183ABE0A283A0E0A383A0E0A483A0E00B
:10243000A0930506A7E0A087A1E0A187AFEFA09336
:102440008506A3E0A0938206A1E0A0938606A3E1FF
:10245000A0938006A4E0A0937604A1E4A093A00634
:10246000AFEF2092A206A093A3060E949426E8ED67
:10247000E4BFE8E0E09300010E946C1E0E94DA1BBA
:102480000E94E4250E94E7250E94D8220E94902104
:1024900072D0CAD350D667D50E9432230E949723A8
:1024A0000E947626E1E0E0931168E0911068E395E0
:1024B000E0931068C1D20C94B0230895E0E003C00B
:1024C000E0E101C0EFEFE4990BC0E095E093A80BC9
:1024D0002092A90BEFEFE093AC0BE093AD0B0AC099
:1024E000E095E093AC0B2092AD0BEFEFE093A80BDF
:1024F000E093A90BEFEFE093AA0B2092AB0BE093D4
:10250000AE0B2092AF0BE1E0E093840B0895002422
:102510000A94E0E8FBE000A601A604A605A6EACF1F
:102520000024E0E8FBE000A601A604A605A6E2CF91
:10253000E0912F70E1FF03C000C0E0E001C0E1E8DE
:10254000E093880BE093890B0895E1E0F2E020929C
:10255000A80B2092A90B2092AC0BE093AD0B20921C
:10256000AA0BE093AB0B2092AE0BF093AF0BE1E024
:10257000E093840B08954F9A479A0E9498122CBAC0
:10258000E0E000C0FE2FFF7721F0EA9509F4E29A1F
:1025900009F0E298E0933C6A0895E0913C6AEF7795
:1025A000E13009F4EE27EE230895E0910870E093FE
:1025B00035680895E0913C6AE078E4CFE69903C07D
:1025C000E69AECE002C0E698EDE0E093476A0895F1
:1025D00008952092476A9BDFE0910770F0E3EF9F38
:1025E000E0ECF3E0E00DF11D1AC1E1E0E093476A91
:1025F000E1996198E19B6798E0ECF3E010C1E2E0BB
:10260000E093476A61986798E39927C0E091486A28
:10261000F3E70090496A10904A6AF0810F1A120895
:10262000F091386A0F0E121C0092496A10924A6AA1
:102630000F2EF3E70192E093486A20920506E19994
:1026400004C0E19AE6E6FDEC03C0E198E6E9FDECA2
:1026500000902F7002FC789625D2E0ECF3E0DFC00A
:10266000E091416AF091426AF7FF05C0F095E1956B
:10267000FF4FF7FDFFE7EE0FFF1FEE0FF21D08F40F
:10268000FFEFF093396AE0910470E095E6950E2E25
:102690000694E00D0694E00DE05FEF9FF001EE0F71
:1026A000FF1F08F4FFEFFF2321F4E091396AE211E4
:1026B000F1E0E091386AF093386AFE0FF795E09107
:1026C0003A6AEE2321F0FE1779F050F114C02092FF
:1026D000386A2092396AEFEFE093476A2092376AAE
:1026E000EDDEE0ECF3E09BC0E091376A00903270E1
:1026F00002FCE69524C0E0913668E211EA95E09389
:102700003668E091376AE211EA95E093376A009003
:10271000327000FCE69501FCE69502FCE6950FC0E0
:10272000E0913668E395E211E0933668E091376A0C
:10273000E93008F4E395E093376A01C0E0E0619A7C
:10274000679AEB55F0E0FC4E09943FC038C031C0A9
:102750002AC023C01CC015C00EC007C000C0E3E0E3
:10276000E093476A48D0E0EA49C0E4E0E093476A72
:1027700042D0EAEA43C0E5E0E093476A3CD0E4EBAC
:102780003DC0E6E0E093476A36D0EEEB37C0E7E0C5
:10279000E093476A30D0E8EC31C0E8E0E093476A64
:1027A0002AD0E2ED2BC0E9E0E093476A24D0ECEDBB
:1027B00025C0EAE0E093476A1ED0E6EE1FC0EBE0DA
:1027C000E093476A18D0E0EF19C0EFEFE093476A53
:1027D00012D0EAEF13C0EFEFE093476AEFEF75DE38
:1027E000EFEFFFEF19C0EFEFE093476AEFEF78DE0E
:1027F000EFEFFFEF11C0E091366865CEF0913A6AD5
:102800000090307000FEF69501FEF69502FEF695FA
:10281000EF0F08F4EFEFFCE0EF9FF00100C0E09352
:102820000C0BF0930D0BE1E0E093060B0401F301B8
:102830000FBF1895E09B90913770E0999091387098
:10284000E0912F70E0FF04C0E091916AE1FD35C096
:10285000E0913A6AEE2389F1E091396AE99F0894A0
:10286000001C111C80E0881F90912F7092FD000CBD
:1028700092FD111C92FD881FEBE2F8E6A081B18168
:10288000C281D381E09B05C0A019B109C80BD20950
:1028900004C0A00DB11DC81FD21DA083B183C28387
:1028A000D383A481B581C681D781A00DB11DC81F76
:1028B000D21DA483B583C683D783C0913D6AE091BE
:1028C0003B6AF0913C6ACF01982797FDF078CF01E1
:1028D0008F779F77E299CC27891721F4903089F080
:1028E000891769F030F0C150F0F4C0910370EA9597
:1028F00009C0C150C0F4C0910270E39503C0CC2759
:1029000001C0EF2FE7FFE09AE7FDE098E0933B6A14
:10291000EF77E0933A6AE099E498E09BE49AE099D3
:10292000E598E09BE59AC0933D6A0895EBE2F8E6EE
:102930000580A681B781000CAA1FBB1F000CAA1F2F
:10294000BB1F000CAA1FBB1F02101196A087B187E6
:102950002482258226822782E0913568E211EA9559
:10296000E0933568E211EE1325DEE0910470E19505
:10297000E03408F4E0E4E03C08F0E0ECE093406A86
:102980000895E770F0E0E257F645E081089501020E
:10299000040810204080019009928A95E1F708957B
:1029A00029928A95E9F70895E0E0FFE80990E0258B
:1029B000E0818A95D9F7EE230895799FE001689F19
:1029C000D001699FB00DC11DD21D789FB00DC11DF2
:1029D000D21D089580E404C080E202C080E100C0FE
:1029E000C083D1838283238224822582D9CF0DD0D4
:1029F00007C00BD003C009D0AA0FBB1FAA0FBB1F73
:102A0000AA0FBB1FAA0FBB1F0895B381A081AB0FF4
:102A1000B181B21DDC91CC93A481B581AD1BB2090B
:102A2000AC0FB21DA483B583C281D381D395DC17CB
:102A300008F0DD27D3830895C0E0D8E6A6E1B0E032
:102A40000ED0C0E0D8E6AAE1B0E014C0C0E0D8E6FD
:102A500080E0A6DF00C0EFEFE0931B68089584D00C
:102A6000F001A095B095C095D095A083B183C283A5
:102A7000D383089579D0F00180830895E091336A7B
:102A8000F091346AEF2B0895CF93C091336AC2114D
:102A900006C0C091346AC21102C0CF9103C0CF9169
:102AA00088940895CF93C2E0C0930A06C1E0C09312
:102AB0000D06C191C0930006C191C0930206C19159
:102AC000C0930306C191C0930406C191C0930C0644
:102AD000C191C0930806C191C0930906C191C093EA
:102AE0000006C191C0930106C191C093A000C1919D
:102AF000C093336AC191C093346AC191C0930B06ED
:102B0000C191C0930A06E093356AF093366ACF917B
:102B10000894089576956795769567957695679567
:102B2000769567958091061190910711861B970BFA
:102B3000609104117091051140DFC695B795C69557
:102B4000B795C695B795C695B7957C2F6B2F089509
:102B50000C9410000C9411000C9412000C941300AF
:102B60000C9414000C9415000C9416000C9417008F
:102B70000C9418000C9419000C941A000C941B006F
:102B80000C941C000C941D000C941E000C941F004F
:102B90000C9420000C9421000C9422000C9423002F
:102BA0000C9424000C9425000C9426000C9427000F
:102BB0000C9428000C9429000C942A000C942B00EF
:102BC0000C942C000C942D000C942E000C942F00CF
:102BD0000C9430000C9431000C9432000C943300AF
:102BE0000C9434000C9435000C9436000C9437008F
:102BF0000C9438000C9439000C943A000C943B006F
:102C00000C943C000C943D000C943E000C943F004E
:102C10000C9440000C9441000C9442000C9443002E
:102C20000C9444000C944500ECECFAE6C0E0D4E7C8
:102C3000D3DEE0ECFAE6C0E2D4E7CEDEE6ECFAE67C
:102C4000C0E4D4E7C9DEE2EDFAE6C0E6D4E7C4CEDC
:102C500080911368F3E0E0E080FF04C0E59BE16051
:102C6000E599E2600E9487220895F894E091FF6957
:102C70002092FF697894E03009F40895EC3208F06E
:102C80001CCCC091FD69D9E6E65BF0E0F94E0995F0
:102C90000C94771612CC11CCD2C0DAC00ECC0DCC6D
:102CA0000CCC0BCC0ACC02C10FC121C12CC13BC141
:102CB00004CC03CC02CC01CC00CCB5C0FECBFDCB08
:102CC000FCCBFBCBFACBF9CBF8CBF7CBF6CBF5CBE8
:102CD000F4CBF3CBF2CBF1CBF0CBEFCBEECBEDCB18
:102CE000ECCBEBCBEACBE9CB5EC152C10895A89502
:102CF000F8946091E96A7091EA6A78940BDFEB01CD
:102D0000CF5DD040ECECFAE674DEB093DD6A6894F7
:102D1000E091C369E0FDE894D091E56AC091E66A6C
:102D2000C7FF05C0C095D195CF4FC7FDCFE7DD0FD9
:102D3000CC1FE0ECFAE65DDE16F0B093EB6A16F419
:102D4000B093EC6AD091E76AC091E86AC7FF05C00A
:102D5000C095D195CF4FC7FDCFE7DD0FCC1FE6EC77
:102D6000FAE647DE16F4B093EB6A16F0B093EC6A1D
:102D7000A091EB6AAB0FA795A093C669A25308F484
:102D8000A0E0A093DE6AA091EB6AB091EC6AAB1B65
:102D9000A058A093ED6AC091436AD091446ACC0FC9
:102DA000DD1F08F4DFEFCD2FE2EDFAE622DEB0936F
:102DB000EE6AE091096AF0910B6AEF1708F4EF2FC1
:102DC000E0930C6AF0910C6AE5EBEF9FE12DE09344
:102DD0000D6A80911A70A0913470B091EE6ABA17A2
:102DE00008F08160A0913570B091DD6ABA1708F0E3
:102DF0008460A0913670B091DE6ABA1708F08860DE
:102E00000E94C02209F082600E94C42280931A703E
:102E10000895529B05C0E6ECFDEC36CE5299FBCFEF
:102E2000EEEDFDEC31CE20921268209213682092D4
:102E300014682092156820921668FEDD94C0B5DBF8
:102E4000898190911268809312688913F5DD8DC095
:102E5000ACDB8981F091126880931268F8278A812F
:102E600090911368809313688927F82BE091006A8A
:102E7000E530C8F08B81909114688093146889279D
:102E8000F82BE63080F08C8190911568809315685E
:102E90008927F82BE73038F08D8190911668809360
:102EA00016688927F82BF211C7DD5DC0FF278881DE
:102EB00084FB880F80F990911368EFE14DD08093E7
:102EC0001368F211B9DD55C0FF278881909113680E
:102ED0003AD0809313688881880F82959091146806
:102EE000E1E03AD080931468F211A6DD42C0FF27DA
:102EF0008881880F90911468EEE12ED08093146839
:102F0000F2119ADD36C0FF278981909114681BD099
:102F10008093146889819091156819D08093156801
:102F2000F2118ADD26C0FF278981909115680BD0A8
:102F30008093156889819091166809D080931668EE
:102F4000F2117ADD16C08295880FE0EE05C08695F5
:102F500086958695EFE100C08E23E095E9238E2BC0
:102F60009827F92B089501D004C0E09112680C94C1
:102F7000C2128091136884FF08C020922B682092AF
:102F80002C6820922D6820922E68809114680895F4
:102F900026D041F402DB31F482E0CEEFD5E10E948D
:102FA000172322CE0895E881E93008F00895F0E073
:102FB000E552F84E099408C008C008C007C008953B
:102FC000089508950895089508950ECEED5DE09357
:102FD000116832DDE0911168E130B9F70895F091A0
:102FE0000C68E0910D68EF2B0895A881A3700E94F2
:102FF0002C22B981CF93DF930E94E221DF91CF9100
:1030000058F5F881EA81FC7039F0F43031F0FC3089
:1030100039F0E4FF18C00AC01FC0AE17E1F01CC0B1
:10302000AE2F0E94E521C0F4216015C0E3FB0E9491
:10303000C114E095AE23E0950EF4AE2B0E94E5217D
:1030400058F4216008C0E3FB9CDCAE230EF0EE27B1
:10305000EA2709F001C0B2CA0895A881A3700E94AE
:103060002C22B9810E94E221EA2F04C1AA81B981F0
:103070000E942D22E881E370E093E06ABB810E9408
:10308000E221A093E16AB3950E94E221A093E26A53
:10309000B3950E94E221A093E36AB3950E94E221D6
:1030A000A093E46AC0EEDAE6E7C079F40E94DD227C
:1030B000E53058F0A881A3700E942C22B981AA8122
:1030C0000E94E5212160EA2FD5C0EBC0D0C0E9F70E
:1030D0000E94DD22E131C8F3B981AA810E942D222C
:1030E000E0EEFAE6A881A370A083AC81A183BD8144
:1030F000B283BE81B383BF81B483BB810E94E521CB
:10310000A093E16AB395A091E26A0E94E521A093A1
:10311000E26AB395A091E36A0E94E521A093E36A75
:10312000B395A091E46A0E94E521A093E46A21602E
:10313000C0EEDAE6A1C0E0EFE093A86A0E94A8150D
:10314000E093A96A0E94B815D093AA6AC093AB6AAB
:10315000B093AC6AA093AD6AC4EBDAE6E0E8E8832A
:1031600085E00E94D414E883CEEADAE6E0EDE88355
:10317000E0E0E983E0E0EA832B822C8285E00E9494
:10318000D414E88325D000C0F7E0E0910A0BEF23C8
:10319000E093BE6A2092BF6A0895E091BE6AEA9504
:1031A00052F4E091BF6AEE0FE760EF77E093BF6AF9
:1031B000F0910A0BEF23E093BE6A0895F0910C683A
:1031C000E0910D68EF2B0895E091BD6AEE2308951C
:1031D0002092BD6A0895F091BC6AE093BC6AFE1B20
:1031E00008F4F195F53008F0F3CF0895E8EAFAE62F
:1031F000CF93DF93A991AF70B191BF70AB1731F44A
:10320000A991B191AB1711F4EE3AD1F7DF91CF91BB
:103210000895E091EF6AE395E33008F0E0E0E09391
:10322000EF6AF0E0EB5EF64E099402C00CC015C0E8
:10323000E0911970E5FF05C0E0910D70EF73E06853
:10324000AAC0E0E0A8C0E0911970E5FF03C0E091DA
:103250000E70A6C0E09100709EC0E0911870E3FF70
:10326000D8CFE0910000A1C091D0A4D0D2CF8ED011
:10327000A5D0CFCFA5D0CDCFE991DE017AD0E85F40
:10328000E883ED91E983ED91EA83ED91EB83ED9194
:10329000EC839BD0BECFE0E0F0E0A0E0B0E0B6D0A1
:1032A000BDC074D0E091F06AE395E93008F0E0E049
:1032B000E093F06AF0E0E05AF64E5BD00995A9CFB2
:1032C00085C007C008C009C00AC00BC00CC00DC033
:1032D0000EC00FD012C03DD040C043D046C011D068
:1032E00014C017D01AC01DD020C023D026C029D0AA
:1032F0002CC0E0914A6AF0E078C0E0912468F7E0E1
:1033000074C0E091EE6AF8E070C0E0911068F9E0F6
:103310006CC0E091966AFAE068C0E091926AFBE0C6
:1033200064C0E0913368FCE060C0E0913468FDE087
:103330005CC0E091ED6AFEE058C0E091ED6AFFE00C
:1033400054C0E0911B68F0E150C0E0911768F1E1D2
:103350004CC0E0912D68F8E148C0E0912E68F9E199
:1033600044C0E091DD6AFAE140C0E091DE6AFEE22D
:103370003CC0C0EDD9E60895A8ECB9E60895AAECE2
:10338000B9E60895A091C769B9E60895F8DFA0935A
:10339000C769089543C0EDDFF1E0F883E98345C0D4
:1033A000E8DFF2E0F883E98340C0E3DFF3E0F8838D
:1033B000E9833BC0CFE03DC0C0EF3BC0CCE339C0A8
:1033C000D8DFE4DF2882E9833AC042C0C8EDD9E6FD
:1033D000E4E0E883ADE1B8E6ED91EC83ED91EB83B9
:1033E000ED91EA83ED91E98333C0E983FA83F7E055
:1033F000F8832AC0EF9AC8EADAE634C0EF9ACEEA38
:10340000DAE630C0EF9AC4EBDAE62CC0B2DFE8832C
:10341000F983AA83BB83E0E1EC831FC0F091DD69EF
:10342000FF0F28F1FF0F18F12BC0A6DFE3E021D03A
:10343000F3CBA8DFE1E01DD0CD93A9CFA3DFE3E07C
:1034400018D0EADBA4CF9EDFE7E013D0E3DB9FCF09
:1034500096DFFFE315D0DADB9ACF91DFFFE310D0E0
:10346000D7DB95CF89DFFFEF0BD0CEDB90CFF0E03D
:1034700007C0F091DD6902C0FF1FC8F3E695E0F3D5
:10348000F093DD6908958F93EEEEF9E6A091006A5E
:103490008A2F8C0FB081A193BA17A081B991BA0776
:1034A000B1938C13FACFC091FD698F910895E2E03A
:1034B00013C0E3E011C0E4E00FC0E5E00DC0E6E0BA
:1034C0000BC0EAE009C0E3E0F4E007C0E4E0F7E0A5
:1034D00004C0E6E0F9E001C0FE2FAE1718F0FA17BD
:1034E00008F00895E0912968F0912A683196E093F8
:1034F0002968F0932A68E0912168E395E0932168B8
:10350000EF91EF9100C0E0E099C083DEE3E296C066
:10351000CEDFEDE193C0CBDFAADEE1E08FC0C9DFF3
:10352000C0DEE2E08BC0D2DFBCDEE3E087C0C1DFFB
:103530009EDEE4E083C0BDDF6CDEEFE17FC0B7DF7D
:1035400093DEE0E27BC0B3DF92DEE1E277C0B7DF7B
:10355000E5E074C0B0DFE6E071C0ABDF88DEE7E035
:103560006DC0A9DF84DEE8E069C0A1DF9ADEE9E092
:1035700065C09DDF96DEEAE061C099DF92DEEBE098
:103580005DC097DF8EDEECE059C093DF8ADEEDE0B0
:1035900055C08FDF86DEEEE051C08BDF82DEEFE0CC
:1035A0004DC087DF7EDEE0E149C083DF7ADEE1E106
:1035B00045C07FDF76DEE2E141C079DFE091026A5B
:1035C000E395E211E093026AE3E13AC070DF4FDE77
:1035D000E4E134C078DF4BDEE5E130C0A43011F027
:1035E00058F41CC0E881E3FD03C037DDE6E126C0E6
:1035F0004ADF5BDDE7E122C0E881FE2FE370F3FDE7
:1036000006C0F2FF09C059DF31DDE8E117C061DF14
:103610003ADF5DDDE9E112C0EBE110C0E2E20EC08D
:10362000EEE10CC050DFE091036AE395E211E09314
:10363000036AE23009F4D9DCEAE104C02092026AAC
:103640002092036AE093FF69E091B269E093FE691A
:103650002062089532DFB2DD39F4B6DD29F49DDD54
:1036600019F4C8DEE4E2EACF4ECF27DFE5E2E6CF89
:1036700024DFE6E2E3CF21DFEA81ADDD9FDD31F437
:10368000A3DD21F481DDB6DEE7E2D8CF3CCF219780
:10369000ADDD09F03ACFE1E0E093BD6AB3DEE8E2E8
:1036A000CDCF0FDF2197A2DD09F02FCFFE81EF8173
:1036B000F06CF093ED69E093EC69E1E0E093BD6AB2
:1036C0009DDEE9E2BBCFEBE2B9CFE091006AE350C7
:1036D000EB30F8F4E093006AF0E0E457F44E09951B
:1036E000D1F4E091006AAEE2B7EBAE0FB21DBC912F
:1036F000CB0FAE2FAB1BA093006AC093FD69D9E638
:10370000E881E93040F4F0E0E356F44E0995EAE24E
:1037100095CFE8DEF8CEF9CE1FC01CC01DC02DC06D
:1037200019C025C02AC026C022C016C023C0000070
:103730000002000402060400060008C007C006C01C
:1037400005C006C005C004C003C002C0A4DD0895C2
:103750008EDD08951894089598940895E8E0F8E6A9
:1037600021C0ECE0F8E61EC0EEE0F8E61BC0E0E0A9
:10377000F8E610C0E4E0F8E605C0F3DFD1F0EEDFD4
:10378000C1F0F2CFA581BD81AB1799F4A481BC81B2
:10379000AB1779F4A381BB81AB1759F4A281BA812D
:1037A000AB1739F4A181B981AB1719F4A081B881A5
:1037B000AB170895E0E0E093AC692092DD690895CD
:1038000024C04CC04FC057C05FC056C175C1AEC1C7
:10381000BEC1E2C1EBC1FBC103C20BC213C21EC2D7
:103820005FC064C097C0E9C0FEC01BC11DC11EC1FE
:103830001FC120C121C122C123C124C125C126C16C
:1038400027C128C129C12AC12BC1E2E0E093110B95
:10385000332424C0E0912568F09126683196E093E6
:103860002568F09326680AC0E0912768F0912868DF
:103870003196E0932768F093286800C0E0912168B2
:10388000E395E093216800C0332403C0E3E03E2EBB
:1038900000C0E398E998ED98E1E00DC2EC990C9432
:1038A000B72100C0ED99F0CF7EF73394EAE9F3ED4C
:1038B000EBD8E3E000C2ED99E7CF36F73394E2EBC3
:1038C000F3EDE2D8E4E0F7C1ED99DECF2EF43394C6
:1038D00009F43A94E4E0EFC1E32DE43108F4D4CFE5
:1038E0003092B269E39A95DAE1E1E5C1ED99CCCF86
:1038F0005EF2E39A93DAEE27529BE395F091C36967
:10390000E093C369FE13EE9AE998EA98EF98EB9872
:103910002092B3692092B169E4EBF9E6CFE02192FD
:10392000CA95E9F7E0912268E395E43650F0E0911A
:103930002168F0912368E0932368EF1BE0932468EB
:10394000E0E0E0932268E091C569E395E093C56902
:10395000E5E1B1C1ED997ECFE091B369EF3008F0B8
:1039600083CFF4EBEF0FF9E6F21D3192E45BE093C5
:10397000B369E091B169E325E093B1695EF509F0BF
:1039800073CFE3E0E093110BE0911D68F0911E68A6
:103990003196E0931D68F0931E68E0911F68F091E6
:1039A0002068E21DF21DE0931F68F0932068E0910B
:1039B000AA69F091AB69F695E795F695E795F695C6
:1039C000E795E21DE001FBEAEF9F1092E2690E012C
:1039D000E4E171C1E091AA69F091AB69F695E795D0
:1039E000F695E795F695E795E21DE001FBEAEF9F76
:1039F0001092E0690E01E3E15EC1ED9B0EF42ACF67
:103A0000E091AA69F091AB69F695E795F695E7958F
:103A1000F695E795E21DE001FBEAEF9F1092E16960
:103A20000E01E5E148C1E2E0E093110B2092A869A4
:103A30002092A969ED9B0EF00DCFE091AA69F0915B
:103A4000AB69F695E795F695E795F695E795E21D4E
:103A5000E001FBEAEF9F1092E3690E013ED1E5E041
:103A60002AC1E398E6E11EC0E7E11FC0E8E11AC001
:103A7000E9E11BC0EAE116C0EBE117C0ECE112C0BE
:103A8000EDE113C0EEE10EC0EFE10FC0E0E20AC0CD
:103A9000E1E20BC0E2E206C0E3E207C0E4E202C0FA
:103AA000E2E103C0330C30F806C11EF030FCD2CE88
:103AB00002C130FECFCEFFC0E39AE6EFFDEC0E94DC
:103AC00044150EF0E1CEC091DD69D0911970EB99EB
:103AD000D860D3FFC070D0911870EB99D260EA998A
:103AE000D0FFCC7FD1FFC370EF99CFEFC093DD69DA
:103AF000529BB399CBCE00C0E99AD0912A70C09165
:103B00000A0BCD23D0912970CD0FCF70C093DE6901
:103B1000C15BDCE0F001CD9FF89400921C0B109289
:103B20001D0B78940F01E091AA69F091AB69F695AD
:103B3000E795F695E795F695E795E21DE001FBEA36
:103B4000EF9F1092E4690E01E0E00E94B015E0E002
:103B5000E093110BE091DD69E0FF06C0C090C869F9
:103B6000E89AEDE0E0931301E7E0A5C0F091DD698C
:103B7000E091C969F1FDE0934208E8E6F1E0F894CC
:103B8000E0931C0BF0931D0B7894E8E094C0D09167
:103B90002C70C0910A0BCD23D0912B70CD0FCF701C
:103BA000C093DF69CE5AD091DE69CD1BDCE0F00115
:103BB000CD9FF89400921C0B10921D0B78940F016E
:103BC000E091DD69E2FF06C0C090CA69E89AEDE0C5
:103BD000E0931301E9E06FC0E0EFF0E0F894E093C8
:103BE0001C0BF0931D0B7894EAE065C0F091DD6941
:103BF000E091CB69F3FDE0934208E0EEF1E0F89448
:103C0000E0931C0BF0931D0B7894EBE054C0F09103
:103C1000DD69E091CC69F4FDE0934208ECE04BC033
:103C2000F091DD69E091CD69F5FDE0934208EDE0AA
:103C300042C0F091DD69E091CE69F6FDE093420863
:103C4000EEE039C0F091DD69E091CF69F7FDE093D6
:103C50004208E2E0E093110BEFE02DC0E001E091BB
:103C6000A869F091A969F695E795F695E795F69517
:103C7000E795E21DFBEAEF9FE12DEC51F091DF6942
:103C8000EF0FE093E5690E010E94AF26F091DD6928
:103C9000FC7F71F0E0EEF9E6C191C583C191C58367
:103CA000C191C583C191C583C191C583C191C583AC
:103CB0002092DD69E9CDE093AC69AF91BF91CF91DE
:103CC000DF91E1E0E093150BE1E0E0935201EF9129
:103CD000EFBFEF91FF9108950895C4EBD9E6A0914D
:103CE000B3692092FF69E881E858F0E0F14E099449
:103CF000FFC014C113C112C111C110C10FC10EC147
:103D00000DC10CC10BC10AC109C108C107C106C15F
:103D100005C104C103C102C101C100C1FFC0FEC091
:103D2000FDC0FCC0FBC0FAC0F9C0F8C0F7C0F6C0C7
:103D3000F5C0F4C0F3C0F2C0F1C0F0C0EFC0EEC0F7
:103D4000EDC0ECC0EBC0EAC0E9C0E8C0E7C0E6C027
:103D5000E5C0E4C0E3C0E2C0E1C0E0C0DFC0DEC057
:103D6000DDC0DCC0DBC0DAC0D9C0D8C0D7C0D6C087
:103D7000D5C0D4C0D3C0D2C0D1C0D0C0CFC0CEC0B7
:103D8000CDC0CCC0CBC0CAC0C9C0C8C0C7C0C6C0E7
:103D9000C5C0C4C0C3C0C2C0C1C0C0C0BFC0BEC017
:103DA000BDC0BCC0BBC0BAC0B9C0B8C0B7C0B6C047
:103DB000B5C0B4C0B3C0B2C0B1C0B0C0AFC0AEC077
:103DC000ADC0ACC0ABC0AAC0A9C0A8C0A7C0A6C0A7
:103DD000A0C09FC09EC09DC09CC09BC09AC099C0FF
:103DE00098C097C096C095C094C093C092C091C02F
:103DF000A2C0A1C0A0C09FC09EC09DC09CC09BC0CF
:103E00009AC099C098C097C096C095C094C093C0FE
:103E100092C091C090C08FC08EC08DC08CC08BC02E
:103E20008AC089C088C087C086C085C084C083C05E
:103E300082C081C080C07FC07EC07DC07CC07BC08E
:103E40007AC079C078C077C076C075C074C073C0BE
:103E500072C071C070C06FC06EC06DC06CC06BC0EE
:103E60006AC069C068C067C066C065C064C063C01E
:103E700063C062C061C060C05FC05EC05DC05CC046
:103E80005BC05AC059C058C057C056C055C054C076
:103E900053C052C051C050C04FC04EC04DC04CC0A6
:103EA0004BC04AC049C048C047C046C045C044C0D6
:103EB00043C042C041C040C03FC03EC03DC03CC006
:103EC0001AC019C018C017C016C015C014C013C03E
:103ED00012C011C010C00FC00EC00DC00CC00BC06E
:103EE0000AC009C008C007C006C00DC009C00EC086
:103EF000A150219654C0A093006AC093FD698ECB57
:103F0000A1502196E7C0A1502196EDC1A150219664
:103F1000D9C0E091026AE33008F084CBEA9AE881E4
:103F2000F091EC69FF77B091ED69B7FFEF13EDCA3F
:103F3000A150219634C072CBEA9AE981E330E8813E
:103F400011F4E03C61F0F091ED69EF13DECAE98114
:103F5000F091EC69EF13D9CAA250229620C0A2506A
:103F60002296EB9A00C0EA98A093006AC093FD697C
:103F7000E881E295EF70E154F0E0F04E09944CCB0B
:103F80004BCB4ACB49CB48CB47CB46CB45CB44CB9D
:103F900043CB42CB41CB40CB3FCB20CB1BCBA093E1
:103FA000006AC093FD69E881E295EF70E652F0E0A7
:103FB000F04E09940FC024C039C038C0ACCAABCA97
:103FC000AACAA9CAD2CAD1CAD8CAD3CA55C054C06B
:103FD00005CB00CBE991EF70E051F0E0F04E099491
:103FE000ECCAF4CA1DCB1CCB17CB16CB15CB14CB0C
:103FF00013CB12CBA8CAA7CA0FCB0ECB0DCB9FCA2F
:10400000E991EF70EA5FF0E0FF4D099405CB04CB36
:1040100092CA91CA01CB00CBFFCAFECAFDCAFCCA34
:10402000FBCAFACAF9CAF8CAF7CAF6CAE991EF7127
:10403000E45EF0E0FF4D0994EFCAEECAEDCAECCAA7
:10404000EBCAEACAE9CAE8CAE7CAE6CAE5CAE4CAE4
:10405000E3CAE2CAE1CAE0CADFCADECADDCADCCA14
:10406000DBCADACAD9CAD8CAD7CAD6CAD5CAD4CA44
:104070005ACA5DCAD1CA53CAE991EF71EE5BF0E04A
:10408000FF4D09946ECA63CA65CAC6CAC5CAC4CA06
:10409000C3CAC2CAC1CAC0CABFCABECABDCABCCAD4
:1040A000BBCABACAB9CAB8CAB7CAB6CAB5CAB4CA04
:1040B000B3CAB2CA6ECA71CA74CA77CA7ACA4DCABA
:1040C00060CA63CAA093006AC093FD69E881E211E7
:1040D000A3CA1ECAA093006AC093FD69E991ED5876
:1040E000F0E0FF4D099498CA97CA96CA95CA94CA37
:1040F00093CA92CA91CA90CA8FCA8ECA8DCA8CCAF4
:104100008BCA8ACA89CA88CA87CA86CA85CA84CA23
:1041100083CA82CA81CA80CA7FCA7ECA7DCA7CCA53
:104120007BCA7ACA79CA78CA77CA76CA75CA74CA83
:1041300073CA72CA71CA70CA6FCA6ECA6DCA6CCAB3
:104140006BCA6ACA69CA68CA67CA66CA65CA64CAE3
:1041500063CA62CA61CA60CA5FCA5ECA5DCA5CCA13
:104160005BCA5ACA59CA58CA57CA56CA55CA54CA43
:1041700053CA52CA51CA50CA4FCA4ECA4DCA4CCA73
:104180004BCA4ACA49CA48CA47CA46CA45CA44CAA3
:1041900043CA42CA41CA40CA3FCA3ECA3DCA3CCAD3
:1041A0003BCA3ACA39CA38CA37CA36CA35CA34CA03
:1041B00033CA32CA31CA30CA2FCA2ECA2DCA2CCA33
:1041C0002BCA2ACA29CA28CA27CA26CA25CA24CA63
:1041D00023CA22CA21CA20CA1FCA1ECA1DCA1CCA93
:1041E0001BCA1ACA19CA18CA17CA16CA15CA14CAC3
:1041F00013CA12CA11CA10CA0FCA0ECA0DCA0CCAF3
:104200000BCA0ACA09CA08CA07CA06CA05CA04CA22
:1042100003CA02CA01CA00CAFFC9FEC9FDC9FCC956
:10422000FBC9FAC9F9C9F8C9F7C9F6C9F5C9F4C98A
:10423000F3C9F2C9F1C9F0C9EFC9EEC9EDC9ECC9BA
:10424000EBC9EAC9E9C9E8C9E7C9E6C9E5C9E4C9EA
:10425000E3C9E2C9E1C9E0C9DFC9DEC9DDC9DCC91A
:10426000DBC9DAC9D9C9D8C9D7C9D6C9D5C9D4C94A
:10427000D3C9D2C9D1C9D0C9CFC9CEC9CDC9CCC97A
:10428000CBC9CAC9C9C903CA02CA01CA00CAFFC97F
:10429000FEC9FDC9FCC9FBC9FAC9F9C9F8C9F7C902
:1042A000F6C9F5C9F4C9FDC9FCC9FBC9FAC9F9C900
:1042B000F8C9F7C9F6C9F5C9F4C9F3C9F2C9F1C912
:1042C000F0C9EFC9EEC9A8C9A7C9A6C9A5C9A4C99B
:1042D000A3C9A2C9A1C9A0C99FC99EC99DC9BAC97C
:1042E000C4C9C6C9C8C9A093006AC093FD69E99151
:1042F000E03F08F491C9EF70E058F0E0FE4D0994FA
:10430000E2C98AC989C988C987C986C985C9DDC979
:1043100083C982C981C980C97FC97EC97DC97CC959
:1043200034D02AD007D00E94AC15E093066AF093EF
:10433000076A089582E0F0910C68E0910D68EF0142
:10434000CD2B71F481E0E0910070EF77F0E0C09147
:104350001970C5FF05C0F0910D70E0910E70F06C02
:10436000E093EC69F093ED69CEEFD5E160C1F8948C
:104370000E9412230C94F4156ED0B0E029D0B395AE
:10438000A091046ABA17D1F70895E091FF15E030C3
:10439000A9F0EF3F09F046D15ED0B0E0A8950FD06C
:1043A00020F4CE2FD4E18A2F40D1B395A091046A96
:1043B000BA17A9F7CFEFD5E180E039D108952FD012
:1043C000339609942CD03196099429D032960994C9
:1043D00026D030960994A0E020C0EA81A9811BC0B4
:1043E000EA81F4E1A081F0E7A08315C0EA81F0E75B
:1043F000A08111C0EA81F0E7F5D00DC0E981FA8112
:10440000A08109C0E981FA81A08305C00F92C895F7
:10441000A02D0F9000C00894089588940895CB2F84
:10442000D091046ACD1778F4D0E0CC0FDD1FCC0F0B
:10443000DD1FF091056ADF0FE881E43149F0F0E01B
:10444000EF5EF84D0895C0E0D2EDE1E1F7E20895A6
:10445000E981FA810895A0E0B0E0B03059F4A030CD
:1044600019F0A13021F006C0A6E7B0ED05C0A5E621
:10447000B2ED02C0A0E0B0EDA093046AB093056A6B
:10448000089503C007C009C010C0A0910014A093F4
:104490000070C1CFA0910070BECFAA2329F022F0F6
:1044A000E0E0F0E79FD0B7CF96CFE0E0A3E0B3CF56
:1044B00092CF02C003C08FCFADE0ADCFA83011F4D2
:1044C000EC9AA9CF88CF03C007C009C00FC0A09144
:1044D0002F14A0932F709FCFA0912F709CCFEA2F05
:1044E0000E949A12EFE2F0E77DD095CFEFE2A0E0D4
:1044F00092CF71CF06C06FCF6ECF6DCF05C06BCF9F
:104500006ACFE1E0F1E982CFE0E0F1E97FCF80918D
:104510003B70E0FF80E0F0FD8093376880913C7055
:10452000E1FF80E0F1FD8093396880913D70E2FF0A
:1045300080E0F2FD80933B6880913E70E3FF80E075
:10454000F3FD80933D6880913F70E4FF80E0F4FDCF
:1045500080933F680C949F26E7E3F8E6A4E9B3ED67
:10456000DAE081919081891721F010F09F5F01C0FE
:1045700091509193CD91C2119883AA3991F70895E2
:10458000E0910E6AEE230895E0913A70EE3108F062
:10459000EEE1E0938506FFB7F894E0910E6AE150F2
:1045A00010F0E0930E6AFFBFE1E0E0938606089505
:1045B00020920F6A2092106A089504D0FE2FE0E244
:1045C000EF1B0895E091106AF0910F6AEF1B08F459
:1045D000E1950895E091106AF0910F6A8894EF13C5
:1045E00008940895C091106ACF5ED0E0D549B99380
:1045F000E993F993A993C151C03208F0CC27C09335
:10460000106A0895C0910F6ACF5ED0E0D549B99184
:10461000E991F991A991C151C03208F0CC27C0931A
:104620000F6A089590E3889408C092E102C093E174
:1046300000C0A881A817A9F00894A0910210A1FDBC
:10464000FCCFA0FDFACFADE9A4BF9093001008F411
:104650008993A4BFA1E0A0930010A0910210A1FD36
:10466000FCCF08950895D3EA16C217D2CAD115D245
:10467000E0910210E1FDFACFADDFC0F7C3DFC081EA
:10468000CA17B1F3A083F4E1CDE9D3E1C4BFD0935D
:104690000010A083D1E0C4BFD0930010D1E0D0932C
:1046A0000410D0930310E2CF84E190E00E943525FE
:1046B0000E94DD250E940926F7CFEFD1A2D1EDD1CE
:1046C0000E943516FBCF000044D20E94EF17A9F0DC
:1046D00036D282E390E00E94352536D288EC90E015
:1046E0000E9435252CD282E390E00E9435252CD201
:1046F00088EE93E00E943525E7CF21D282E390E057
:104700000E94352521D282EE94E00E943525DCCF2F
:104710000E94AC220C941A140E9428160C94961431
:10472000E091C5692092C569E093C4690895FBECE6
:10473000E8EADAE6C3E582E10E94CB1414D037D070
:104740003FD047D04FD057D05FD067D06FD0112720
:104750002227D9E0C9E9C0938F6AD093906A08955F
:1047600078940C94BA23E3E5FAE6E0938C6AF0932C
:104770008D6A08950E9433232092936A2092946A4E
:104780002092956A1D7FE091936AF091946AC0919E
:10479000956A3196C21D11FDEFCF2223D1F3E0932C
:1047A000936AF093946AC093956A2BD1ECCFEEEDA7
:1047B000F3E2E0933F69F0933E6908950C9435234A
:1047C000E7EEF3E2E0935F69F0935E6908950C947D
:1047D0005423E0EFF3E2E0936169F0936069089598
:1047E000A2E92DC0E9EFF3E2E0936369F093626917
:1047F0000895A3E924C0E2E0F4E2E0936569F09350
:1048000064690895A4E91BC0EBE0F4E2E0938569D4
:10481000F093846908950C945D23E4E1F4E2E0935D
:104820008769F09386690895A6E909C0EDE1F4E28D
:10483000E093A769F093A66908950C9463230C9400
:10484000DE1510FD7AC0F0939E6AFFB7F0939D6A63
:104850001160E0939F6AD093A06AC093A16AB0935D
:10486000A26AA093A36A9093A46A8093A56A109207
:10487000A66A0092A76AC091916AC395C093916A93
:1048800009F41860CF7009F41460C0FD14C0106101
:10489000C0918F6AD091906AC15015F41062C97F9F
:1048A00010F41064C979D04010F41068D970C09326
:1048B0008F6AD093906A17FD50D071D014FD0E947A
:1048C000882313FD0E948C2317FD0E94902314FF60
:1048D0001BC0DAE6C9E6A1E0E881F981319788F0EA
:1048E00071F42A2BE883F983EA81FB81FE2B49F0DE
:1048F000FB810180A0950A22A095018202C0E88375
:10490000F9832496AA0F41F70090A76A1090A66A2F
:104910008091A56A9091A46AA091A36AB091A26ABD
:10492000C091A16AD091A06AE0919F6A1270F09143
:104930009D6AFFBFF0919E6A0895F894E1E0F1E06E
:104940000E948D26FFEF3197F1F7E0E0F1E00E9441
:104950008D26F0E43197F1F7F0CFE091946AF09171
:10496000956AEE0FFF1FEBE8FE9F000C111CE4E6BA
:10497000E119E093926A1260C091976AD091986AA7
:10498000C093996AD0939A6AD695C795D695C795DC
:10499000C093966A2092986A2092976A0895E0914F
:1049A000916AEF70E0938E6AEE0FF0E0E652FB4DF5
:1049B000099408950C94D9240C94D9240C94D924E6
:1049C0000C94D9240C94D9240C94D9240C94D92473
:1049D0000C94D9240C94D9240C94D9240C94D92463
:1049E0000C94D9240C94D9240C94D9240C94D92453
:1049F0000C94D924F091896AFF0F11F02F1708F455
:104A00000895E091976AF091986A3196E093976AD9
:104A1000F093986AC0918C6AD0918D6AEDB7FEB719
:104A2000E993F883E0E2F22FC0E8FF0F30F019F0CD
:104A3000C695E450D1F7CC27EE27C093896AE0935E
:104A40008B6AE695E0938A6ADAE6C3E5CE0FD21D5B
:104A5000C0938C6AD0938D6AE991F881CFB7F894AE
:104A6000EDBFFEBFCFBF08959927C5E6DAE6B09146
:104A70008B6ACB0FD21DBFB7F89488839983D091EE
:104A8000896AD0952D23BFBFBCCF07D0BACF03D042
:104A9000B8CFD091896A2D2B0895D091896AD0958D
:104AA0002D230895208221820895689401C0E894FE
:104AB000D091896ABFB7F894C081CC2321F0CE7F12
:104AC000C083BFBF0895C181CD2BC183BFBF0EF08E
:104AD000DCCFCBCFBFB7F894C191D081DD2321F4D7
:104AE000C160C293BFBF089520822292BFBF0DC094
:104AF000BFB7F894D081D260D193D081DD2311F477
:104B0000BFBF08952082BFBF00C0E5E6FAE6CD2F03
:104B10003496CC0F41F0E0F7F89421922192219243
:104B20002192BFBFF6CFB7CF20820895BFB7F894C8
:104B3000A081AE7FA083BFBF0895F8DFB8CFE1E0CA
:104B4000F1E00E948D260895E0E0F1E00E948D26BC
:104B50000895C1EFDAE6E4E9FBEC0C2E9FEFA1919A
:104B6000B191BF3F81F011968FEF83951D90112079
:104B7000E1F3821183958993981788F38211982F16
:104B800082110C2EECCF90939B6A0894C009C093BD
:104B90009C6A089500692069406960696269646976
:104BA000666986698869FFFF1F693D695D695F699C
:104BB0006169636983698569A569B69904C0E5E59A
:104BC000119B0C94DE1507C0442455240895AD981C
:104BD0000895AD9A0895E0910408E7FF0895E091E3
:104BE0000008E0930071089502D08CE23BC001D030
:104BF00003C08F93829501C08F938F70805D8A333D
:104C000008F0895F2FD08F9108958AE02BD08DE036
:104C100029C00F01451451F0F0910408F5FF06C0BA
:104C2000F2E7E52DF081F09302085394F001089526
:104C3000451459F0F0910408F5FFFACFF2E7E52D9D
:104C4000F081F09302085394F3CF0895C42DD2E776
:104C50000190002029F00882C395C511F9CFCA95AB
:104C60004C2ED8CF0F01F201FA95EF1719F0F2E7A9
:104C700080834394CFCF8F938E2FF201FA95EF1755
:104C800019F0F2E7808343948F9108958991ACDF06
:104C90009A95E1F708958991821188130895E2DFCA
:104CA000FACFC6EBDCECF7DF80911C68A0DFC6EC26
:104CB000DCECF1DFBDCF0A0D1B5B34346D2E2E2EE4
:104CC0005B424C442D005D1B5B6D0A0D0000C6ED80
:104CD000DCECE1DFADCF0A0D1B5B34336D2E2E2EE5
:104CE0005B5550445D1B5B6D0A0D0000CEEFDCECA4
:104CF000D2DFC0E0D8E690E1C9DF87DF99CF0A0DA7
:104D00001B5B34326D2E2E2E5B4150505D1B5B6D54
:104D1000202D2000E2E0F2E000C0EF23F0950090AB
:104D2000D86A0F22E02904C0E0E002C0EFEF00C023
:104D3000E093D86A00C0E091D86A0C94B215EF23D2
:104D4000F0950090D96A0F22E02906C0E0E004C087
:104D5000E5E502C0EFEF00C0E093D96A00C0E09142
:104D6000D96A0C94B015310B0000010701310080A5
:104D7000416A000100404031008000000002310B18
:104D80000000010701310081416A0001004040310B
:104D9000008100000002310B00000101073100809A
:104DA000416A000100404031008000000002310BE8
:104DB0000000010107310081416A000100404031DB
:104DC000008100000002310300000100103100806A
:104DD000E56A000100404031008000000006310318
:104DE0000000011000310080E76A000100404031FE
:104DF000008000000006110B00000111401100802E
:104E0000316A0001011140110083436A000101422F
:104E100040110081E96A000100404011008000005B
:104E20000002D9CAD8CAD7CAD6CAD5CAD6CAD3CA1E
:104E3000D2CAD6CADBCADECAD0CACDCADFCACBCA7A
:104E4000CACAC9CADBCADECAC6CAC5CAC4CAC3CAB4
:104E5000C2CAFFFFFFFFFFFFFFFFFFFFFFFFFFFFD4
:105000001441227F080101FF080402FF080403FF86
:10501000088004FF084005FF041600001458220011
:1050200008010603083207FF081008FF0404000007
:105030000800090008000A0008010BFF08010CFF26
:1050400008C30DFF08E80EFF08000FFF080010FF5F
:1050500008001100080012000800130008001400E6
:105060000000000000000000080017FF089618115B
:10507000080A1911101A7000040000FF04FF00FF55
:1050800008011BFF08021CFF08041DFF08081EFF83
:1050900008101FFF082020FF084021FF088022FF82
:1050A000080023FF080024FF080025FF080026FF52
:1050B000080027FF080028FF0804290F08002A0F0E
:1050C00008042B0F08002C0F000000000000000057
:1050D000146322FF080330FF0800313F0803320F3A
:1050E00008F033FF08FA34FF086435FF086436FF20
:1050F000088037FF088038FF00000000081E3AFFD4
:1051000008FF3BFF08FF3CFF08FF3DFF08FF3EFF95
:1051100008FF3FFF08FF40FF000000000000000004
:10512000000000000000000000000000000000007F
:10513000000000000000000000000000000000006F
:10514000000000000000000000000000000000005F
:10515000000000000000000000000000000000004F
:10516000000000000000000000000000000000003F
:10517000000000000000000000000000000000002F
:105180000C0068000C0168000C0268000C03680049
:105190000C0468000C0568000C0668000C07680029
:1051A000080041FF080042FF04010000040900005C
:1051B0000C01A1000C0091000C0191000C00910069
:1051C0000C1180000C108000147922FF147D22FF46
:1051D0000CFF15000CFE1500FFFFFFFFFFFFFFFF98
:10520000040900000401000000000000000000008C
:105210000C0368000C0268000C0168000C006800B8
:105220000C0768000C0668000C0568000C04680098
:105230000C0877000C0977000C0A77000C0B77003C
:105240000C0C77000C0D77000C0E77000C0F77001C
:105250000C1077000C1177000C1277000C137700FC
:105260000C1477000C1577000C1677000C177700DC
:105270000C1877000C1977000C1A77000C1B7700BC
:105280000C1C77000C1D77000C1E77000C1F77009C
:105290000C2077000C2177000C2277000C2377007C
:1052A0000C2477000C2577000C2677000C2777005C
:1052B0000C2877000C2977000C2A77000C2B77003C
:1052C0000C2C77000C2D77000C2E77000C2F77001C
:1052D0000C3077000C3177000C3277000C337700FC
:1052E0000C3477000C3577000C3677000C397700DA
:1052F0000C3A77000C1A77000C1B77000C516A00EF
:105300000C526A00000000000000000000000000D5
:105310000000000000000000000000000C2B6800EE
:105320000C2C68000C2D68000C2E68000C336800F3
:105330000C3468000C1D68000C1E68000C1F68000F
:105340000C2068000C2568000C2668000C276800FB
:105350000C2868000C2968000C2A68000CE669001B
:105360000CE769000CE869000CE969000CEA6900C7
:105370000CEB69000CB269000CC369000CC4690035
:105380000CEB6A000CEC6A000CED6A000C1C680067
:1053900004550000292C00000000110B0000010240
:1053A00040110080086A00010040401100800000A8
:1053B0000002110B00000102401100800A6A000186
:1053C00000404011008000000002FFFFFFFFFFFFD0
:1090000087C0FFCFFFC7FFCFFFC7FFCFFFC7FFCF8F
:10901000FFC7FFCFFFC7FFCFFFC7FFCFFFC7FFCF00
:10902000FFC7FFCFFFC7FFCFFFC7FFCFFFC7FFCFF0
:10903000FFC7FFCFFFC7FFCFFFC7FFCFFFC7FFCFE0
:10904000FFC7FFCFFFC7FFCFFFC7FFCFFFC7FFCFD0
:10905000FFC7FFCFFFC7FFCFFFC7FFCFFFC7FFCFC0
:10906000FFC7FFCFFFC7FFCFFFC7FFCFFFC7FFCFB0
:10907000FFC7FFCFFFC7FFCFFFC7FFCFFFC7FFCFA0
:10908000FFC7FFCFFFC7FFCFFFC7FFCFFFC7FFCF90
:10909000FFC7FFCFFFC7FFCFFFC7FFCFFFC7FFCF80
:1090A000FFC7FFCFFFC7FFCFFFC7FFCFFFC7FFCF70
:1090B000FFC7FFCFFFC7FFCFFFC7FFCFFFC7FFCF60
:1090C000FFC7FFCFFFC7FFCFFFC7FFCFFFC7FFCF50
:1090D000FFC7FFCFFFC7FFCFFFC7FFCFFFC7FFCF40
:1090E000FFC7FFCFFFC7FFCFFFC7FFCFFFC7FFCF30
:1090F000FFC7FFCFFFC7FFCFFFC7FFCFFFC7FFCF20
:1091000001006BD10100000081EE2967E7A14CC985
:10911000A895F8942224EFB3E0931C68E8EDE4BF2F
:1091200020921001E8EDF1E0E4BFF0936200EFE17E
:10913000F9E6EDBFFEBF4F98479AAC9AA49AE0E4D7
:10914000F8E02682A0E8B1E0A087B1872582A3E0FD
:10915000A783A0E4A683A9E0A093000A2092200A96
:109160002092210AA1E0A093000B2092010BAFEF07
:10917000A0930C0BA0930D0B209252042092B304E9
:109180004298A39832D4A895E8EDE4BFE7E0E093D5
:10919000000151D453D4E7D3BBD400D480911B68D1
:1091A000821101D4EFB3E0931C68E0911B68E211D7
:1091B00005C0E0911168E21183C200C0C0E0D8E6AA
:1091C0005DD3F993E9935CD3F993E99367D3E4E032
:1091D000F8E6D193C193B193A193A0910768AF77BB
:1091E000A16020925069A0935169EBD2A0910091A7
:1091F000B0910191B883A983A09100A1B09101A180
:10920000BA83AB832C82E3D2288229822A822B82E2
:109210002C82E0D2E0E0F1E9A081B181B883A9839A
:109220009BB781E08BBFA081B1819BBFBA83AB8329
:109230002C82E8EEF3E0E0932369F0932469009137
:10924000FE15E0910468E093256921E08FC180E577
:1092500040D49091366980E0933049F08A8194300F
:1092600031F031FD6DC18D81983009F06DC12092D2
:1092700023692092246958D123E082C2F0D184E48A
:1092800028D48E8180930A688F8180930B688885AB
:10929000809308688985809309688A8545D127E08D
:1092A00073C2E2D180E715D427E078C2DDD181E432
:1092B00010D4888580930C68898580930D688A8591
:1092C00082FD04D283708093116828E069D2809176
:1092D00011688211EED14AC190913669953011F032
:1092E000983011F4EA8116C0973011F09A3019F4D1
:1092F000C0D1EC810FC0993011F09C3019F4AFD17E
:10930000EE8108C09B3011F09E3019F4ADD1E88594
:1093100001C01AC1EA3070F4F0E0E057F64F09944A
:10932000E1C0E1C0E2C0E2C0E1C0E0C0E3C0E4C02F
:10933000E9C0EEC01BC19DD182E4CBD38C81809368
:10934000A46B38854985823011F430FD0FC128E1C6
:10935000E19A30FD28D230FF29D2C7E0E4E8FBE6ED
:10936000C9D2C091A46BE6D1C5D2DBD08E819F81DA
:10937000DAD1EDEEDE2EE8EBCE2EE3E8BE2EE0E213
:10938000AE2EEFEF9E2E8E2E7E2E6E2EB9D1EEC01B
:1093900070D183E49ED30C8009140D8008040E80E4
:1093A00007040F80060428E211F428E4A9D1D6C1ED
:1093B00060D182E58ED328E7AED1D7C15AD184E5FA
:1093C00088D328E5D2C155D185E483D328E03E7FF8
:1093D0004427C4C14ED186E47CD3ACD19091366988
:1093E000963019F08C8130FD8DD230FD8FD2BEC009
:1093F00030FDA4C090913669933009F405C09530D2
:1094000011F437D101C0A0C082E763D393D15CD2FD
:109410008093486911D058D2809349690DD054D2B5
:1094200080934A6909D050D280934B6905D09295B8
:10943000909590934C69DBC1991F90FD0895089415
:1094400087957BD18695E9F7089530FF77C0909195
:109450003669933009F422C0953011F40AD11EC048
:109460009B3011F4229606C09D3019F402D1249647
:1094700001C06AC087E72DD378E0699108946795A9
:109480005CD16695E9F77A95C1F7A8E0B0E0289736
:10949000E4E8FBE631D2A8E0B0E01BC0C1D081F423
:1094A00078F0A0E0B2E760E8BBD011F4E8F748F04C
:1094B0008FB743D18FBF6795B8F76D93A13898F3F5
:1094C00055C0A050B247C0E0D2E7E4E8FBE614D2B2
:1094D00000C0C4E8DBE62ED130FD12D230FD1CD234
:1094E00045C044C056C154D115C253C151D1E1D079
:1094F00002E03CC050D13AC09E3009F037C04BD199
:1095000017D234C09E3009F031C045D10FD22EC0E1
:109510003FD1C1E038D2CF3619F4D13D09F471D52D
:10952000F9C1C6E2D9E6089590910A0B98239211E9
:109530001DC0089584E40CC082E50AC08DE408C013
:1095400083E406C085E404C08CE402C084E500C066
:10955000C0D20CC0C0912369D0912469219730F00A
:10956000C0932369D093246909F4C1CFEFE1F9E6F0
:10957000EDBFFEBF59D293D2B0D02CBA6AE050D022
:109580001130A1F76A95D9F74BD081F7E8F39138FC
:1095900008F43094C6DF7727EE2761E041D0B1F6BA
:1095A000661FE0F769937627C43370F639D071F6F9
:1095B00020F0E627FFE8E081F0CF7211C3CFE093FF
:1095C00037693D7FE2113260C652C0933669A9DF28
:1095D000E881ED3F69F000FD8ACFF981EF2BEA8148
:1095E000EF2B29F4E0913669E33009F480CFB2CF54
:1095F0006981603F08F4BACF6F70E6E3F8E9660F5F
:10960000660FE60FF21D0190022209F497CF019038
:1096100000FE02C031FD94CF01901080F00109944A
:10962000A89511270AB0032402FEFCCF9091200ACE
:109630002092200A2092210A0AB0032402FCFCCFC7
:109640008091200A2092200A2092210A8D31111F38
:10965000813810FD8F30111F012E06940895E0E02F
:10966000F8E684E01DD00CC0E4E0F8E686E018D00F
:1096700007C00FD029F00AD019F005D009F00CD09E
:10968000821174CF0895EAE0F8E609C0E8E0F8E650
:1096900006C0ECE0F8E603C0EEE0F8E600C082E0C9
:1096A000DE01129601901D90011411F48A95D1F7F4
:1096B0000895C1E068D1CF3611F4D13D09F0089585
:1096C000EED1E09105A1E0FD01D09AC4E8EDE09370
:1096D0003400E5E8E09301100895E091060BE0FF07
:1096E0000895E093060BE0912269E395E0932269E7
:1096F000E6FF01C002C079D18AC179D1E3E08DC112
:1097000017D00E010EDF6A8A7B8A8C8A9D8A0F8AA7
:10971000188E298E089505DF6A887B888C889D883D
:109720008F89988D00C006D0CBD0C80FD91FC2C07A
:1097300001D0F8C0E4E6FBE6089530F096948794F3
:109740007794679430F009C09694879477946794DF
:1097500020F09D248C247B246A2408953ED0988296
:1097600089827A826B822C8243C0E2DFDE018091A3
:10977000A46B33D088832982BA83AB832C8238C010
:10978000E0E0F8E692E02FC0E4E0F8E690E02BC0DD
:10979000E19A1DD02DC0E19A1DD02AC015D028C055
:1097A000E19A0FD025C0C6E7D8E922C0C091A46BCA
:1097B000B7D0DE0112D00882B983AA832B822C8213
:1097C00017C0C5E5D9E60895C0E5D9E60895CAE50C
:1097D000D9E60895CFE5D9E60895C8E4D9E6089515
:1097E000A0E4B9E60895F9DF84E0B4D09883F5DF0A
:1097F000F7DFA4D000C097E712D09DEA10D0F0DFC9
:1098000086E09091440895FFFCCF9D91909342088B
:109810008A95B9F78AE25DD1E19BA8CE08950090C0
:10982000200A0916E0F32092200A2092210A529B76
:10983000B39982CE08950100270902013E0904016F
:109840005109040156090000710A0000710A000064
:10985000710AFF016C0908019B097001C809200108
:10986000D8094001DE091001E3091001EA091000DE
:10987000F8091000250A02003214FFFF0C941000B2
:109880000C9411000C9412000C9413000C9414000E
:109890000C9415000C9416000C9417000C941800EE
:1098A0000C9419000C941A000C941B000C941C00CE
:1098B0000C941D000C941E000C941F000C942000AE
:1098C0000C9421000C9422000C9423000C9424008E
:1098D0000C9425000C9426000C9427000C9428006E
:1098E0000C9429000C942A000C942B000C942C004E
:1098F0000C942D000C942E000C942F000C9430002E
:109900000C9431000C9432000C9433000C9434000D
:109910000C9435000C9436000C9437000C943800ED
:109920000C9439000C943A000C943B000C943C00CD
:109930000C943D000C943E000C943F000C944000AD
:109940000C9441000C9442000C9443000C9444008D
:109950000C944500019009928A95E1F708952992A7
:109960008A95E9F70895E4E8FBE60E94760CC4E6E0
:10997000D9E60E94780CE4E6FBE60E94760CC4E689
:10998000D9E60C94780CE4E8FBE60E947A0C0C947F
:109990006A0CC0E0D8E6A6E1B0E00ED0C0E0D8E6A0
:1099A000AAE1B0E014C0C0E0D8E680E0D8DF00C093
:1099B000EFEFE0931B6808956DDFF001A095B0957F
:1099C000C095D095A083B183C283D383089562DF0D
:1099D000F00180830895E2E0F2E000C0EF23F0950B
:1099E000009020690F22E02904C0E0E002C0EFEF00
:1099F00000C0E093206900C0E09120690C94480CFD
:109A0000EF23F095009021690F22E02906C0E0E0E5
:109A100004C0E5E502C0EFEF00C0E093216900C09B
:109A2000E09121690C94460CB69904C0E5E5119BC0
:109A30000C94740C07C0442455240895AD980895DF
:109A4000AD9A0895E0910408E7FF0895E0910008B9
:109A5000E0930070089502D08CE23BC001D003C0B7
:109A60008F93829501C08F938F70805D8A3308F049
:109A7000895F2FD08F9108958AE02BD08DE029C087
:109A80000F01451451F0F0910408F5FF06C0F1E70D
:109A9000E52DF081F09302085394F00108954514E8
:109AA00059F0F0910408F5FFFACFF1E7E52DF081C8
:109AB000F09302085394F3CF0895C42DD1E7019099
:109AC000002029F00882C395C511F9CFCA954C2E04
:109AD000D8CF0F01F201FA95EF1719F0F1E7808363
:109AE0004394CFCF8F938E2FF201FA95EF1719F091
:109AF000F1E7808343948F9108958991ACDF9A9523
:109B0000E1F708958991821188130895E2DFFACF71
:109B1000C4E2DBE9F7DF80911C68A0DFC4E3DBE986
:109B2000F1DFBDCF0A0D1B5B34346D2E2E2E5B4250
:109B30004C442D005D1B5B6D0A0D0000C4E4DBE9A5
:109B4000E1DFADCF0A0D1B5B34336D2E2E2E5B553E
:109B500050445D1B5B6D0A0D0000CCE6DBE9D2DFF3
:109B6000C0E0D8E690E1C9DF87DF99CF0A0D1B5B23
:109B700034326D2E2E2E5B4150505D1B5B6D202DBF
:109B80002000FFFFFFFFFFFFFFFFFFFFFFFFFFFFC3
:00000001FF
