:020000020000FC
:100000000C943E000C94FA010C94FA010C949001AB
:10001000B4C1B6C1B8C1BAC1E2C0D8C0A0C5A1C5FB
:10002000BAC1B7C1BFC168C36DC3F2C3F5C37EC354
:1000300088C38FC322C4FBC309C472C367C36BC325
:100040009BC4CEC1C2C1C7C10BC310C31BC31CC359
:1000500024C330C347C34BC356C4D6C0DCC04DC451
:1000600080C38AC366C3A6C4AFC4C4C4E9C6ECC611
:10007000EEC6F0C6F5C603C713C77CC1F8942224A8
:10008000E7E2F9E6EDBFFEBFE8EDF7E0E4BFF0938D
:100090000001A895E8EDF4E2E4BFF0936800E09178
:1000A0004000E0934000EFBBE8EDE4BF2092011078
:1000B0002BBE4F98479AE8EDF0E6E4BFF0931001AD
:1000C000E0914101E211FCCF2092480120924901C8
:1000D000E1E0E0934001E0E1E093E205EFE0E0934E
:1000E000E405E8E0E093B504E093B604E09311047E
:1000F000E0931004E0E0F8E02682A0ECB0E0A087F6
:10010000B187A0E8A583A3E0A783A2ECA683A69865
:100110000198AD9A089AA59A009A439A039A029A6E
:10012000639A649A659A50D058D0F89B06C0E0E074
:10013000F0E6AFEFA193F836E8F3E0E0F9E6FB9BD9
:10014000F899E0E0FB9BF899F8E62192F038E8F3A3
:10015000E0914801F0914901F230D0F3E2E036D06D
:100160003AD07DD2C2E0F8D4B69B0EC0E0910090A8
:10017000EF3F11F09ED419F03CD49BD409F44DC14B
:10018000E1E02EC1783FA1F3E0E0FAE02082218295
:1001900022822382AFE0A083E0E0FBE02082218284
:1001A000AEE6B1E0A487B587A1E0A583A5E0A08372
:1001B000A0D2A5D2789406D00ED0C2E6C4D4E0E096
:1001C000D4D146C0E0E002C0EFEF00C0E0FF4B98A2
:1001D000E0FD4B9A0895E0E002C0EFEF00C0E0FDC3
:1001E0000B9AE0FF0B98E1FD0A9AE1FF0A98E2FD05
:1001F0006B9AE2FF6B98E3FD6C9AE3FF6C98E7FD66
:100200006D9AE7FF6D980895E8EDF1E0E093340012
:10021000F0934100FFCFA895E8EDE4BFE1E0E09363
:100220000001FFCFB2D3FBD29681A6D30C92A3D309
:10023000B1C3ABD3A0D397819FD3F1D209901C90C7
:1002400001100C9211960197C9F795D3A3D3089585
:10025000E7E2F9E6EDBFFEBF222734E0EEE285D10A
:10026000C091006979D426D1203491F324FD10C0C7
:1002700026FFF9CFECEFF2E00590001605901590FF
:1002800019F4F0010995E4CFE032B1F720FFEBCF8C
:10029000003449F7622F6370613029F72062F7D08C
:1002A0007A3B21F46631A1F62061DDCF24FFD0CF67
:1002B0007B3B39F4693060F6C62F4ED4246031E0C0
:1002C000D2CF7C3B21F422FFC3CF7DD1CCCF7F3B6B
:1002D00051F6603011F40AD0BBCF613009F40AD076
:1002E000B7CF68E070C1C02F2ED4B2CF6CD3E2EE8E
:1002F0003CD1AECF7ED3E0EF38D1AACF5303025228
:10030000EA016471016173016273016373016573D2
:10031000016673017373017573016C730100280129
:10032000EFB64F01E0910408E7FF13C0E72DE6198F
:10033000E03C23FF08F0AD9AE0910108E2FD82C0A5
:10034000F0E7E72D7090000871927E2EF401EFBE69
:100350001895E091060BE093060B761411F4421009
:100360004A943A9422F4332EE8E0E0934704F401EF
:10037000EFBE1895E0E0F0E00895EDE0F0E00895BC
:10038000E0E6F1ED0895E1E0F0E00895E0E6F1ED5A
:10039000089503D0E6C301D0E2C3AFE0B0E0C0E10E
:1003A000D1E10895F8DFA193B193C193D193F1DF27
:1003B000A193B193C193D1930895DFEF672C94D0AB
:1003C0006710FBCF2197D9F7089517D048F008950B
:1003D000EBE001C0EAE003DF2092480120924901EE
:1003E000A895F894AD98F0E208D0E8F7F8DEF0E4CC
:1003F00004D0E8F7E7DEEFDE07CF00904801009079
:100400004901F0150895C0910069A6D352D3C9F4EB
:10041000CF3611F0CB36A9F4D0DF20920508209218
:10042000000A2092000B2092050B20924801209296
:1004300049018ED1FE01E050F048F695E795F89419
:10044000099411CFF89420920608AD98E8E0BEDE3A
:10045000E5E5C5DEEFEFA89500C000C000C0E211E1
:10046000EA95119BF8CFE211F5CFC4CF8E2F9927D3
:10047000B6DEE8E0ABDEE8EA78D0F0910900E2E031
:10048000F3FDEAE0A3DE32E0672C2ED0F6CF04D0F5
:10049000702F02D0602F089507D002950F9304D0DB
:1004A0000F900029F00E089505D00F7D075308F432
:1004B000095D089519D0421002C025FDC9CE7614F9
:1004C000C9F3F0E7E62D00816394206442102F7B8E
:1004D00026FD2F7EFBE04F2E21FF23950A3011F0E1
:1004E0000D3009F42C7F00C00F01A89523FD06C034
:1004F000E72DE619E03218F4AD9801C0AD9AF0018D
:100500000895019101D003C00F93029501C00F938C
:100510000F70005D0A3308F0095F1BD00F9108953A
:10052000092FF0DF082FEECF0AE013D00DE011C045
:10053000E0E0F1E1E6DFE5DFE4DF0EE20AD029DF0B
:10054000CE01EEDFCD01ECDF26DFCE01E9DFCD010C
:10055000E7CFD8E1C9DF0090040805FEFBCF219763
:10056000B699C1F7009302080895E0930169FDE090
:10057000E091016905910EBBE0930169002391F0C0
:1005800012F0E7DFF4CFF1990ED0F29911D0F39980
:10059000C7DFF499CDDFF69913D0F599ADD2F09974
:1005A000C3DFE5CF0895C591E0930169D5D28BC231
:1005B00000900069109031690AE210100895C9CFC7
:1005C00009E0C7DF82C26CBBE099BAD2E19907D0DB
:1005D000E3999AD2E69921CFE799FACE089517D1F7
:1005E000B7D0C0930269D093036964DF20FFFDCFC9
:1005F0000A33D9F751DF502EF02E49DFC09102693E
:10060000D0910369C60FD71F47DF003031F00130AA
:10061000F1F0023069F0E4E029CFFDD008945208EF
:10062000A0F02AD1E5E0C8F037DF802F0ED1F6CF59
:100630002EDF660F771F660F771F660F771F660F17
:10064000771F609302697093036903D0CECF5AD1AC
:1006500000C022DFF21411F0E6E008CF0895BBD00D
:10066000C4E3D3E049D04EC0A8950895C487D58788
:100670000895C93008F0C9E0DCE0CD9FE001C65C18
:10068000D5470895F6DFADC0C083D183C48BD58B29
:10069000CA0FDB1FC283D3830895A68FA895C28F8C
:1006A000D38FD5D020F0C28DD38D2197B9F708957F
:1006B000AA27BB27C48FD58FEC8FFD8FA895A28F5B
:1006C000B38FC48DD58DFE01B2D048F0C48DD58DC9
:1006D000FE01BCD020F0A28DB38D119779F708955B
:1006E0008FEF79D0868FA895B2D0E8F70CC1FADFEA
:1006F000FFCF71D0CFECD4E0C68BD78B08956BD0F1
:10070000C8EDD4E0C08FD18F089565D081D00ED0D0
:1007100018D025C260D07CD009D013D022C25BD0C3
:10072000F5DF02841384C015D1050895C489D589E5
:100730000895C489D58900801180C019D109089510
:100740004AD0A281B38104881588A019B1090895FF
:1007500042D0C081D18108953ED0C281D381089515
:100760003AD000801180C281D381C019D10909F02B
:1007700021960024021C08957CDFFE010080118078
:10078000C281D381F2CF0C2EC6E4DAE818841014AB
:1007900019F02C96C63AD1F70895DCE0CD9FE00120
:1007A000C65CD5470895CE01C6E4DAE80880198012
:1007B0008015910530F00A801B808015910531F07D
:1007C00028F02C96C63A91F70894089588940895D5
:1007D000A0E0B1E70895E8E2F9E60895FCDFA48718
:1007E000B5878CE0099001928A95E1F73C97C48126
:1007F000D5812197C095D095C28BD38BC081D181F3
:10080000C687D787C08BD18B278E02D07EC0E3DF0F
:10081000C081D18101C0DFDFC48BD58B0895848175
:100820009581A685B785C485D5850895D4DF25D063
:1008300038F0C489D58950D020F08991C48BD58BEC
:10084000089521968FEF0894F9CFC5DF868F15D0D4
:1008500090F053D0C481D5812197A489B589CA234A
:10086000DB231196A48BB58BA485B585CA0FDB1F3E
:10087000868D888388940895AEDF048810800114E3
:1008800005881180010440F0048812800114058855
:100890001380010419F010F00894089588940895C5
:1008A0009ADFC489D589A685B785CA17DB0730F0DA
:1008B000A089B189CA17DB0719F010F008940895D0
:1008C0008894089588DFC685D78506D0A78DAE7F2A
:1008D00008F4A160A78F0895C034B0E1DB0748F0A9
:1008E000D63148F0D03628F0D03828F0D03908F08A
:1008F00002C00894089588940895D3DF10F403D0BB
:1009000004D0089568DF2BD026C0C489D589028819
:100910001388C021D121C687D78784819581C80FCC
:10092000D91F2197C08BD18BCEDF40F0A685B7852C
:10093000C485D5850D9009920197E1F70895078C3C
:1009400000FC07C06CDF09901D90011419F4019799
:10095000D1F718940895F3DF09F06BCC0895078C54
:1009600000FC08955CDF09901D90102001105ACC06
:100970000197C9F7089590E0809102108370E1F724
:100980008DE984BF90930010089506880F92078820
:100990000F920895008C0F92018C0F920895286099
:1009A000AD9AFF93F4E6A0DDFA95E9F7FF9108957B
:1009B000277F9ACDC2E066DE80E180930110B0DE31
:1009C00020920110089507DFEF01DFDF2BD069F0DF
:1009D0009BE0D2DFE895CFDF92E0CEDF0080118090
:1009E000E8953296F03AD1F7C6DFFE01D3CF02D0B8
:1009F00012CCF1DEFF93EF93C8DFDCDF81F412D07D
:100A000071F094919F3F59F09BE0B6DF0082B3DF15
:100A100092E0B2DF04900192F03AE1F7ACDFEF919F
:100A2000FF91B8CFE0E0F0E994918191891711F43A
:100A3000F03AD1F7E0E0F0E908950000FFFF01008F
:100A400000002D00000000A0FFFF00020802660168
:100A50006FD10090FF9F0002080262026BD1001468
:100A6000FF150100181265036ED180109F10200041
:100A7000080263046CD100111F110100000073050E
:100A800000005010581001000000750600000060C2
:100A9000FF670002000061076AD140104F1001009B
:100AA00000006C08000000110011010000002D0979
:100AB000000035DEA0930469B0930569C093066910
:100AC000D09307690895F5DF06C0E0E1E0930110D7
:100AD000F0DF20920110E2ED09F4E8ED0ED09091E4
:100AE0000769809106691CDD909105698091046910
:100AF00017DD02C0E2ED01C0EEEDFDE0059100233F
:100B000011F027DDFBCF08950FDD81DEF3DF63DE1B
:100B10008489958900E1080F090FF02EE4E925DDAD
:100B200085DE38F0082FF00EEDDC55DE04890F70FD
:100B3000B9F7E0DFF1940F2DE5DC9EDE40F7089574
:100B400066DECEDDDFCE05D000913169009300690D
:100B5000089519DE3DDE42CE20DE3ADE3FCEE89437
:100B600004C06894CA0FDB1F00C0EF93FF936FEFC0
:100B70007FEFCB01FF27A8950EF019900EF41A9085
:100B800008941794062E0F1E96958795779567956E
:100B900000FE08C0EDEE9E27E8EB8E27E3E87E27F7
:100BA000E0E26E27169471F7119728F790958095DB
:100BB000709560950E01DB01EC0186238723892364
:100BC0008095FF91EF910895FFFFFFFFFFFFFFFF6B
:100D0000A1811B5B34316D2E2E2E5B524553455411
:100D10002D885DA11B5B34346D2E2E2E5B524F4D02
:100D20002E4D4F422E4E454D3635315D2000A1816E
:100D30004944205B905D814C3A208708523A201B41
:100D40005B33326D4431365230303031A1533A206A
:100D50008705553A20870681413A208707423A2085
:100D6000C702433A208704453A208703463A208742
:100D70000181524F4D205B527C537C645D202D20BD
:100D80005B617C627C637C657C667C6C7C737C755F
:100D90005D3E2000813A31301B5B39346DA81B5B0E
:100DA00039306D3030A0000081811B5B34356D2EF1
:100DB0002E2E5B4572726F722023885DA0202D203D
:100DC0003C627265616B3E20746F20726573756D55
:100DD00065001B5B39306D001B5B33326D001B5BA4
:100DE0006D00A1811B5B34346D5B532D3E5D0000B3
:100DF000A1811B5B34346D5B3C2D525D0000FFFF15
:100E0000ACAAA9A5A3A69C9A999593968E8D8BB111
:100E1000B2B4B874726C6A696563665C5A595553AA
:100E2000564E4D4B4771E8E4E2D1C9C5D8D4D2CA79
:100E3000C6CC78171B1D1E2E363A272B2D3539337D
:100E40001ED00ED01CD00CC00BD019D009C017D0AA
:100E500007D015C005D0E991EF73E081ED930895B7
:100E6000E991EF70F881FF0FEE1FFF0FEE1FFEE814
:100E7000E081ED93E991EF73E081ED930895FEE851
:100E8000E881E695E695E081ED93E991E370E295DE
:100E9000F881F07FF295EF2BFEE8E081ED93089565
:100EA000FEE8E881E081ED930895FFFFFFFFFFFF7B
:100F0000005EBCE2613FDD83C29C7E20A3FD1F41E9
:100F10009DC3217FFCA2401E5F01E3BD3E6082DCD9
:100F2000237D9FC1421CFEA0E1BF5D0380DE3C62C9
:100F3000BEE0025CDF81633D7C22C09E1D43A1FFB9
:100F40004618FAA427799BC584DA3866E5BB5907A9
:100F5000DB856739BAE406581947A5FB7826C49A99
:100F6000653BD987045AB8E6A7F91B45C6987A2489
:100F7000F8A6441A99C7257B3A6486D85B05E7B979
:100F80008CD2306EEDB3510F4E10F2AC2F7193CD69
:100F9000114FADF3702ECC92D38D6F31B2EC0E5059
:100FA000AFF1134DCE90722C6D33D18F0C52B0EE49
:100FB000326C8ED0530DEFB1F0AE4C1291CF2D7339
:100FC000CA947628ABF517490856B4EA6937D58B29
:100FD0005709EBB536688AD495CB2977F4AA481619
:100FE000E9B7550B88D6346A2B7597C94A14F6A809
:100FF000742AC896154BA9F7B6E80A54D7896B35F9
:1010000087C0FFCFFFC7FFCFFFC7FFCFFFC7FFCF0F
:10101000FFC7FFCFFFC7FFCFFFC7FFCFFFC7FFCF80
:10102000FFC7FFCFFFC7FFCFFFC7FFCFFFC7FFCF70
:10103000FFC7FFCFFFC7FFCFFFC7FFCFFFC7FFCF60
:10104000FFC7FFCFFFC7FFCFFFC7FFCFFFC7FFCF50
:10105000FFC7FFCFFFC7FFCFFFC7FFCFFFC7FFCF40
:10106000FFC7FFCFFFC7FFCFFFC7FFCFFFC7FFCF30
:10107000FFC7FFCFFFC7FFCFFFC7FFCFFFC7FFCF20
:10108000FFC7FFCFFFC7FFCFFFC7FFCFFFC7FFCF10
:10109000FFC7FFCFFFC7FFCFFFC7FFCFFFC7FFCF00
:1010A000FFC7FFCFFFC7FFCFFFC7FFCFFFC7FFCFF0
:1010B000FFC7FFCFFFC7FFCFFFC7FFCFFFC7FFCFE0
:1010C000FFC7FFCFFFC7FFCFFFC7FFCFFFC7FFCFD0
:1010D000FFC7FFCFFFC7FFCFFFC7FFCFFFC7FFCFC0
:1010E000FFC7FFCFFFC7FFCFFFC7FFCFFFC7FFCFB0
:1010F000FFC7FFCFFFC7FFCFFFC7FFCFFFC7FFCFA0
:1011000001006BD10100000044444444FD8BF89081
:10111000A895F8942224EFB3E0931C68E8EDE4BFAF
:1011200020921001E8EDF1E0E4BFF0936200EFE1FE
:10113000F9E6EDBFFEBF4F98479AAC9AA49AE0E457
:10114000F8E02682A0E8B1E0A087B1872582A3E07D
:10115000A783A0E4A683A9E0A093000A2092200A16
:101160002092210AA1E0A093000B2092010BAFEF87
:10117000A0930C0BA0930D0B209252042092B30469
:101180004298A398E5D3A895E8EDE4BFE7E0E093A3
:10119000000104D406D49AD36ED4B3D380911B68D3
:1011A0008211B4D3EFB3E0931C68E0911B68E211A5
:1011B00005C0E0911168E2113EC200C0C0E0D8E66F
:1011C00010D3F993E9930FD3F993E9931AD3E4E099
:1011D000F8E6D193C193B193A19320924E69AF7772
:1011E000A160A0934F69A6D2A0910091B091019106
:1011F000B883A983A09100A1B09101A1BA83AB8368
:101200002C829BD2A0910091B0910191B883A983C7
:101210002A822B822C8221E066C180E50DD48D814B
:101220004DD123E067C2D6D184E406D48E81809369
:101230000A688F8180930B68888580930868898508
:10124000809309688A853AD127E058C2C8D180E7DF
:10125000F3D327E05BC2C3D181E4EED388858093CA
:101260000C68898580930D688A8582FDEAD1837038
:101270008093116828E04DD2809111688211D4D1F9
:1012800032C190913469953011F0983011F4EA81AF
:1012900016C0973011F09A3019F4A6D1EC810FC026
:1012A000993011F09C3019F495D1EE8108C09B3033
:1012B00011F09E3019F493D1E88501C00FC1E930D7
:1012C00068F4F0E0EB59F64F0994E0C0E0C0E1C0EB
:1012D000E1C0E0C0DFC0E1C0E2C0E7C004C184D12A
:1012E00082E4AAD38C8180939D6B388549858230B6
:1012F00011F430FDF8C028E1E19A30FD0DD230FF45
:101300000ED2C7E0EDE7FBE6A8D2C0919D6BCCD131
:10131000A4D2D1D08E819F81C0D1EDEEDE2EE8EB3C
:10132000CE2EE3E8BE2EE0E2AE2EEFEF9E2E8E2E06
:101330007E2E6E2E9FD1D7C057D183E47DD30C80F3
:1013400009140D8008040E8007040F80060428E2AB
:1013500011F428E48FD1BCC147D182E56DD328E7D1
:1013600094D1BDC141D184E567D328E5B8C13CD152
:1013700085E462D328E03E7F4427AAC135D186E4C4
:101380005BD392D190913469963019F08C8130FD05
:101390006CD230FD6ED2A7C030FD9AC090913469F6
:1013A000933009F405C0953011F41ED101C096C0E8
:1013B00082E742D379D13BD28093466911D037D2AC
:1013C000809347690DD033D28093486909D02FD2DA
:1013D0008093496905D09295909590934A69BAC1D6
:1013E000991F90FD08950894879561D18695E9F736
:1013F000089530FF6DC090913469933009F422C094
:10140000953011F4F1D01EC09B3011F4229606C025
:101410009D3019F4E9D0249601C060C087E70CD351
:1014200078E069910894679542D16695E9F77A95D5
:10143000C1F7A8E0B0E02897EDE7FBE610D2A8E0FE
:10144000B0E01BC0A8D081F478F0A0E0B2E760E87B
:10145000A2D011F4E8F748F08FB729D18FBF679574
:10146000B8F76D93A13898F33EC0A050B247C0E0E2
:10147000D2E7EDE7FBE6F3D100C0CDE7DBE614D120
:1014800030FDF1D130FDFBD12EC02DC03CC13AD191
:10149000F4C139C137D1C8D026C034D124C09E3060
:1014A00009F021C02FD1F7D11EC09E3009F01BC01A
:1014B00029D1EFD118C0C4E2D9E6089590910A0B62
:1014C0008923821110C0089584E40CC082E50AC00B
:1014D0008DE408C083E406C085E404C08CE402C047
:1014E00084E500C0A9D2EFE1F9E6EDBFFEBF4FD21F
:1014F00089D2AED02CBA6AE04ED01130A1F76A95ED
:10150000D9F749D081F7E8F3913808F43094D3DF64
:101510007727EE2761E03FD019F7661FE0F7699360
:101520007627C233D8F637D0D9F620F0E627FFE881
:10153000E081F0CF8EE280D27211CECFE093356998
:101540003D7FE2113260C452C0933469C091236977
:10155000C395C093236909F49ECFADDFE881ED3FC9
:1015600011F6209223696981603F08F4BCCF6F7047
:10157000ECE9F7E9660F660FE60FF21D0190022213
:1015800009F4A6CF019000FE02C031FDA3CF019067
:101590001080F0010994A89511270AB0032402FED7
:1015A000FCCF9091200A2092200A2092210A0AB0B2
:1015B000032402FCFCCF8091200A2092200A209272
:1015C000210A8D31111F813810FD8F30111F012E1E
:1015D00006940895E0E0F8E684E01DD00CC0E4E055
:1015E000F8E686E018D007C00FD029F00AD019F02D
:1015F00005D009F00CD0821176CF0895EAE0F8E624
:1016000009C0E8E0F8E606C0ECE0F8E603C0EEE06A
:10161000F8E600C082E0DE01129601901D900114F0
:1016200011F48A95D1F70895C1E060D1CF3611F455
:10163000D13D09F00895E6D1E09105A1E0FD01D08A
:10164000DFC4E8EDE0933400E5E8E093011008958D
:10165000E091060BE0FF0895E093060BE09122690C
:10166000E395E0932269E6FF01C002C071D182C117
:1016700071D184C117D00E011EDF6A8A7B8A8C8AE1
:101680009D8A0F8A188E298E089515DF6A887B88B7
:101690008C889D888F89988D00C006D0C4D0C80FD3
:1016A000D91FBBC001D0F1C0EDE5FBE6089530F0D5
:1016B000969487947794679430F009C096948794B1
:1016C0007794679420F09D248C247B246A240895C9
:1016D00037D0988289827A826B822C823CC0E2DF8A
:1016E000DE0180919D6B2CD088832982BA83AB83E5
:1016F0002C8231C0E0E0F8E690E028C0E4E0F8E6B3
:1017000090E024C0E19AC8E5D9E625C0CEE4D9E648
:1017100022C0E19A0FD01FC0CCEDD7E91CC0C09108
:101720009D6BB1D0DE010CD00882B983AA832B82D5
:101730002C8211C0C3E5D9E60895C8E5D9E608951D
:10174000C6E4D9E60895AEE3B9E60895F9DF84E08A
:10175000B4D09883F5DFF7DFA4D000C097E712D0AC
:101760009AEA10D0F0DF86E09091440895FFFCCF14
:101770009D91909342088A95B9F78AE25DD1E19BE9
:10178000B2CE08950090200A0916E0F32092200AB4
:101790002092210A529BB39999CE089501010D0917
:1017A000020113090401260904012B090000450A5E
:1017B0000000450A0000450AFF01410908016F09C0
:1017C00070019C092001AC094001B2091001B70960
:1017D0001001BE091000CC091000F90902003214F2
:1017E000FFFF0C9408000C9409000C940A000C9460
:1017F0000B000C940C000C940D000C940E000C9437
:101800000F000C9410000C9411000C9412000C9416
:1018100013000C9414000C9415000C9416000C94F6
:1018200017000C9418000C9419000C941A000C94D6
:101830001B000C941C000C941D000C941E000C94B6
:101840001F000C9420000C9421000C9422000C9496
:1018500023000C9424000C9425000C9426000C9476
:1018600027000C9428000C9429000C942A000C9456
:101870002B000C942C000C942D000C942E000C9436
:101880002F000C9430000C9431000C9432000C9416
:1018900033000C9434000C9435000C9436000C94F6
:1018A00037000C9438000C9439000C943A000C94D6
:1018B0003B000C943C000C943D00019009928A95E9
:1018C000E1F7089529928A95E9F70895EDE7FBE697
:1018D0000E94290CCDE5D9E60E942B0CEDE5FBE634
:1018E0000E94290CCDE5D9E60C942B0CEDE7FBE624
:1018F0000E942D0C0C941D0CC0E0D8E6A6E1B0E0CF
:101900000EC0C0E0D8E6AAE1B0E014C0C0E0D8E65E
:1019100080E0D8DF00C0EFEFE0931B6808956DDF33
:10192000F001A095B095C095D095A083B183C283F6
:10193000D383089562DFF00180830895E2E0F2E04E
:1019400000C0EF23F095009020690F22E02904C029
:10195000E0E002C0EFEF00C0E093206900C0E0913A
:1019600020690C94FB0BEF23F095009021690F2266
:10197000E02906C0E0E004C0E5E502C0EFEF00C0EA
:10198000E093216900C0E09121690C94F90BB699AC
:1019900004C0E5E5119B0C94270C07C04424552492
:1019A0000895AD980895AD9A0895E0910408E7FF71
:1019B0000895E0910008E0930070089502D08CE251
:1019C0003BC001D003C08F93829501C08F938F706D
:1019D000805D8A3308F0895F2FD08F9108958AE067
:1019E0002BD08DE029C00F01451451F0F09104086F
:1019F000F5FF06C0F1E7E52DF081F093020853945E
:101A0000F0010895451459F0F0910408F5FFFACF5C
:101A1000F1E7E52DF081F09302085394F3CF089598
:101A2000C42DD1E70190002029F00882C395C5118B
:101A3000F9CFCA954C2ED8CF0F01F201FA95EF17C6
:101A400019F0F1E780834394CFCF8F938E2FF2016B
:101A5000FA95EF1719F0F1E7808343948F91089579
:101A60008991ACDF9A95E1F70895899182118813E5
:101A70000895E2DFFACFCAE8DAE9F7DF80911C685F
:101A8000A0DFCAE9DAE9F1DFBDCF0A0D1B5B343410
:101A90006D2E2E2E5B424C442D005D1B5B6D0A0D9E
:101AA0000000CAEADAE9E1DFADCF0A0D1B5B34338F
:101AB0006D2E2E2E5B5550445D1B5B6D0A0D000094
:101AC000C2EDDAE9D2DFC0E0D8E690E1C9DF87DF16
:101AD00099CF0A0D1B5B34326D2E2E2E5B41505078
:101AE0005D1B5B6D202D2000FFFFFFFFFFFFFFFF51
:1020000037C1FFCF81E084C082E082C083E080C01E
:10201000F0D0F3C085E07CC086E07AC087E078C06D
:1020200088E076C089E074C08AE072C08BE070C03E
:1020300071C000008BD09DC08EE06AC08FE068C088
:1020400080E166C081E164C082E162C083E160C07A
:1020500084E15EC085E15CC086E15AC087E158C07A
:10206000CEC0000089E154C08AE152C08BE150C06B
:102070008CE14EC08DE14CC08EE14AC08FE148C07A
:1020800080E246C081E244C082E242C0EBC0000070
:1020900084E23EC085E23CC086E23AC087E238C0B6
:1020A00088E236C089E234C08AE232C08BE230C0B6
:1020B0008CE22EC08DE22CC08EE22AC08FE228C0B6
:1020C00080E326C081E324C082E322C083E320C0F2
:1020D00084E31EC085E31CC086E31AC087E318C0F2
:1020E00088E316C089E314C08AE312C08BE310C0F2
:1020F0008CE30EC08DE30CC08EE30AC08FE308C0F2
:1021000001006FD10201000044444444B3A8C57FDC
:1021100098D2FFCF0FB73F014001E0914A6AE395A3
:10212000ED3008F0EE27E0934A6AF0E0E756FF4E04
:102130000994DEC2E9C2EFC21FC3A3C3A6C3A9C3E9
:10214000ACC3AFC3B2C3B5C3B8C3BBC3E89B08C07D
:10215000E89820921301C0924208CF90CF90189532
:10216000209252010091160B0093160B2092150B32
:102170001895FF93EF93EFB7EF93DF93CF93BF9350
:10218000AF93F894E0911C0BF0911D0B7894A09103
:10219000C669B091C769E093C669F093C769EA1B45
:1021A000E093C869FB0BF093C9696894B2E0E0372B
:1021B000FB0708F4ED9AB2E0E43FFB0730F0E89447
:1021C000B4E0E833FB0708F4ED9AF1E4E091E1694B
:1021D000E21104C05299F061E3E003C0B399F061E9
:1021E000E5E0E0934102F093140BE091CA69FAE153
:1021F000099401E00093530118950C941E203F01AF
:10220000E091356AF091366A0091100601930091D1
:1022100011060083E091376AF091386A01910093CA
:102220000C060191009308060191009309060191A3
:102230000093000601910093010601910093A00014
:1022400001910093356A01910093366A01910093E0
:102250000B06019100930A06E093376AF093386AFF
:10226000F30118950FB72092031021600FBF189546
:10227000A895F89422242DBAE8EDE0933400E5E81F
:10228000E0930110EFE1F9E6EDBFFEBF4F98479AEA
:10229000E0E0F9E6C0EADBE021922197E9F720923D
:1022A0000508A2E4A0931202ABE4A0931402A3E0F9
:1022B000A0934102A8E0A0935604A4E0A093710467
:1022C000A0937704A09372040D98059A0C98049A31
:1022D0004F9A47984F98479A4798629869986F988D
:1022E00061986798E0E0FBE02082218222862386C5
:1022F000A0EEBEE22486B587A1E0A683A1E0A58377
:10230000A3E0A083E0E1FBE02082A2E0A183A1E4BE
:10231000A483A1E0A683A583A3E0A083A3E0A09368
:102320002002A5E0A0932102E1E0E093C001E3E4F4
:10233000E093C901EEEEE093CB01E1E0E093C80148
:10234000A0E1A0931102E0E8FBE0A2E0A093490223
:10235000A0934A02A4E0A08BA18BA1E8A087A1874B
:10236000E0E8FBE0B8EDA0E0A183A0E0A283A3E356
:10237000B0933400A28BAFEFA2A723A6A6A727A6EF
:10238000A0A7A1A7A4A7A5A7A685A0FFFDCFA3E00E
:10239000B0933400A083A0915101A0FDFCCFA9E12E
:1023A000A0935001A1E0A0935301A0935201E0E05B
:1023B000F6E0A1E1A083A0E0A183ABE0A283A0E0CE
:1023C000A383A0E0A483A2E0A0930506A7E0A087D2
:1023D000A1E0A187A5E8A093A200A4E0A0937604C1
:1023E000A1E4A093A006AFEF2092A206A093A306BB
:1023F0000E948E22E8EDE4BFE8E0E09300010E9435
:10240000021CB1D70E94DE210E94E1210E94CD1E54
:102410000E94FD1D4AD1EBD36FD50E94271F0E9459
:10242000941F0E947022E1E0E0931168E09110682F
:10243000E395E09310684FD30C94AD1F0895A881E5
:10244000A3700E94801EB9810E943B1EEA2FBBC66A
:10245000AA81B9810E94811EE881E370E093CA6A73
:10246000BB810E943B1EA093CB6AB3950E943B1E8A
:10247000A093CC6AB3950E943B1EA093CD6AB395FE
:102480000E943B1EA093CE6ACAECDAE69EC679F49F
:102490000E94D21EE53058F0A881A3700E94801ED1
:1024A000B981AA810E943E1E2160EA2F8CC6A1C676
:1024B00087C6E9F70E94D21EE131C8F3B981AA812B
:1024C0000E94811EEAECFAE6A881A370A083AC8189
:1024D000A183BD81B283BE81B383BF81B483BB813D
:1024E0000E943E1EA093CB6AB395A091CC6A0E9435
:1024F0003E1EA093CC6AB395A091CD6A0E943E1E69
:10250000A093CD6AB395A091CE6A0E943E1EA0937F
:10251000CE6A2160CAECDAE658C60C9408000C9426
:1025200009000C940A000C940B000C940C000C9401
:102530000D000C940E000C940F000C9410000C94E1
:1025400011000C9412000C9413000C9414000C94C1
:1025500015000C9416000C9417000C9418000C94A1
:1025600019000C941A000C941B000C941C000C9481
:102570001D000C941E000C941F000C9420000C9461
:1025800021000C9422000C9423000C9424000C9441
:1025900025000C9426000C9427000C9428000C9421
:1025A00029000C942A000C942B000C942C000C9401
:1025B0002D000C942E000C942F000C9430000C94E1
:1025C00031000C9432000C9433000C9434000C94C1
:1025D00035000C9436000C9437000C9438000C94A1
:1025E00039000C943A000C943B000C943C000C9481
:1025F0003D00E0E003C0E0E101C0EFEFE095E499C9
:102600000AC0E093A80B2092A90BEFEFE093AC0B6C
:10261000E093AD0B09C0E093AC0B2092AD0BEFEF54
:10262000E093A80BE093A90BEFEFE093AA0B2092A5
:10263000AB0BE093AE0B2092AF0BE1E0E093840B89
:10264000089500240A94E0E8FBE000A601A604A691
:1026500005A6EACF0024E0E8FBE000A601A604A658
:1026600005A6E2CFE0912F70E1FF03C000C0E0E0DB
:1026700001C0E1E8E093880BE093890B0895E1E065
:10268000F2E02092A80B2092A90B2092AC0BE093D1
:10269000AD0B2092AA0BE093AB0B2092AE0BF09304
:1026A000AF0BE1E0E093840B08954F9A479AE091D5
:1026B0002268E211EE13E4EDE09322680E943213E7
:1026C0002CBAE0E000C0FE2FFF7721F0EA9509F474
:1026D000E29A09F0E298E0933E6A0895E09108706A
:1026E000E09321680895E0913E6AE078ECCF089588
:1026F00020924A6AA6DFE0910770FCE0EF9FE0E5D8
:10270000F7E0E00DF11DE1C0E1996198E19B679868
:10271000E0EBF4E0DAC061986798E39928C0E091B3
:102720004B6AF3E700904C6A10904D6AF0810F1AE3
:102730001208F0913A6A0F0E121C00924C6A109225
:102740004D6A0F2EF3E70192E0934B6A2092050643
:10275000E19904C0E19AEAE5F5EC03C0E198EAE802
:10276000F5EC00902F7002FC7896EBD102C020921D
:102770004A6AE0ECF3E0A9C0619A679AE091446A82
:10278000F091456AF7FF05C0F095E195FF4FF7FD21
:10279000FFE7EE0FFF1FEE0FF21D08F4FFEFF093BF
:1027A0003B6AE0910470E095E6950E2E0694E00DEC
:1027B0000694E00DE05FEF9FF001EE0FFF1F08F4BD
:1027C000FFEFFF2321F4E0913B6AE211F1E0F09387
:1027D0003A6AE0913C6AEE2321F0FE1769F068F056
:1027E00022C020923A6A20923B6AEFEFE0934A6A55
:1027F00000DFE0ECFDE569C07BCFE091396AF09144
:102800003270EF1720F4E395E093396A71CF0090AE
:102810003C6A10904D6AE0E0101410F4E0913170C1
:10282000E093406A2AC0E091396AE211EA95E093A8
:10283000396A5ECFF0913C6AF695EF0F08F4EFEF3E
:10284000F091406AEF0F08F4EFEFF0912268EF9FEC
:10285000E12DE03F08F0EFEFD1CEF091426AF6951E
:10286000F695F45F07C0F0913C6AF695F695F45F33
:1028700001C0FCE0EF9FF00128C0E9E9DBDFE0E503
:10288000F8CFE5EAD7DFE8E7F4CFE2EBD3DFECE817
:10289000F0CFEFEBCFDFE0EAECCFECECCBDFE8EC16
:1028A000E8CFE8EDC7DFE8ECD8CFE5EEC3DFE8EC32
:1028B000DACFE5EEBFDFE8ECD6CFECECBBDFE8E744
:1028C000D8CFE2EBB7DFE0E5D4CFE0930C0BF09389
:1028D0000D0BE1E0E093060B0401F3010FBF189527
:1028E000E09B80913870E09980913A70E09B9091E4
:1028F0003770E09990913970E0912F70E0FF04C03B
:10290000E091946AE1FD38C0E0913C6AEE23A1F1C8
:10291000E8528058E802000C111C812D8058E0918B
:102920003B6AE99FF001E89FE001F89F0D0E121C41
:10293000CC0F001C111C80E0881FE0911D68F091F5
:102940001E68C0911F68D09120680092C56A1092DD
:10295000C66AE09B05C0E019F109C80BD20904C0A2
:10296000E00DF11DC81FD21DE0931D68F0931E6895
:10297000C0931F68D0932068E091426AF091307054
:10298000EF1BE093426AC0913F6AE0913D6AF0918B
:102990003E6ACF01982797FDF078CF018F779F7718
:1029A000E299CC27891721F4903089F0891769F0D2
:1029B00030F0C150F0F4C0910370EA9509C0C150E5
:1029C000C0F4C0910270E39503C0CC2701C0EF2F83
:1029D000E7FFE09AE7FDE098E0933D6AEF77E09348
:1029E0003C6AE099E498E09BE49AE099E598E09BE2
:1029F000E59AC0933F6A0895E0912168E211EA9553
:102A0000E0932168E211EE136EDEE0910470E1952F
:102A1000E03408F4E0E4E03C08F0E0ECE093436AE2
:102A2000E0913C6AF0914D6AFE17E091226830F027
:102A3000F0913370EF1730F0EA9502C0E39511F092
:102A4000E09322680895019009928A95E1F708952C
:102A500029928A95E9F70895799FE001689FD0014E
:102A6000699FB00DC11DD21D789FB00DC11DD21D33
:102A7000089580E404C080E202C080E100C0C08309
:102A8000D1838283238224822582E2CF0DD007C0A6
:102A90000BD003C009D0AA0FBB1FAA0FBB1FAA0FE0
:102AA000BB1FAA0FBB1F0895B381A081AB0FB181DB
:102AB000B21DDC91CC93A481B581AD1BB209AC0FE2
:102AC000B21DA483B583C281D381D395DC1708F0EE
:102AD000DD27D3830895C0E0D8E6A6E1B0E00EC0BC
:102AE000C0E0D8E6AAE1B0E014C0C0E0D8E680E0DB
:102AF000AFDF00C0EFEFE0931B6808951ADDF0012F
:102B0000A095B095C095D095A083B183C283D3839F
:102B100008950FDDF00180830895E091356AF0910A
:102B2000366AEF2B0895CF93C091356AC21106C063
:102B3000C091366AC21102C0CF9103C0CF91889470
:102B40000895CF93C2E0C0930A06C1E0C0930D067A
:102B5000C191C0930006C191C0930206C191C09378
:102B60000306C191C0930406C191C0930C06C191A4
:102B7000C0930806C191C0930906C191C093000695
:102B8000C191C0930106C191C093A000C191C093AF
:102B9000356AC191C093366AC191C0930B06C19149
:102BA000C0930A06E093376AF093386ACF9108948D
:102BB0000895769567957695679576956795769558
:102BC00067958091061190910711861B970B609174
:102BD00004117091051140DFC695B795C695B7955C
:102BE000C695B795C695B7957C2F6B2F0895E7EBE3
:102BF000FAE6C0E0D4E73FDFEBEAFAE6C0E2D4E76A
:102C00003ADFE1EBFAE6C0E4D4E735DFEDEBFAE6D4
:102C1000C0E6D4E730CF80911368FFE0E0E080FFAA
:102C20000AC0E59BE160E599E26081FF04C0E59997
:102C3000E460E59BE8600E9499220895F894E09191
:102C40000C6A20920C6A7894E03009F40895EB3213
:102C500008F0F4CBC0910A6AD9E6ED5CF0E0F94ED9
:102C600009950C945F16EACBE9CB94C09CC0E6CBE7
:102C7000E5CBE4CBE3CBE2CBC4C0D1C0E3C0EEC034
:102C8000FDC0DCCBDBCBDACBD9CBD8CBD7CBD6CB0B
:102C9000D5CBD4CBD3CBD2CBD1CBD0CBCFCBCECB50
:102CA000CDCBCCCBCBCBCACBC9CBC8CBC7CBC6CB80
:102CB000C5CBC4CBC3CBC2CBC1CB00C10895A895B3
:102CC000F8946091D36A7091D46A789472DFEB01C2
:102CD000CF5DD040E7EBFAE6DBDEB093C76AC09188
:102CE000CF6ACC0FC091D06ACC1F08F4CC27EBEA96
:102CF000FAE6CEDEB093D56AC091D16ACC0FC0910E
:102D0000D26ACC1F08F4CC27E1EBFAE6C1DEB0931F
:102D1000D66AA091D56AAB0FA795A093E269A2539A
:102D200008F4A0E0A093C86AC091466AD091476AAF
:102D3000CC0FDD1F08F4DFEFCD2FEDEBFAE6A8DEB8
:102D4000B093D76A80911A70A0913470B091D76A0D
:102D5000BA1708F08160A0913570B091C76ABA17B0
:102D600008F08460A0913670B091C86ABA1708F074
:102D7000886080931A700895E091E169E03039F03D
:102D8000EAEBF5ECD0CEE091E169E030C9F3E2ED99
:102D9000F5ECC9CEA3DC898190911268809312680A
:102DA000891399DEABC09ADC8981F0911268809317
:102DB0001268F8278A819091136880931368892795
:102DC000F82BE0910D6AE530C8F08B819091146882
:102DD000809314688927F82BE63080F08C819091DD
:102DE0001568809315688927F82BE73038F08D81B6
:102DF00090911668809316688927F82BF2116BDE84
:102E00007BC0FF27888184FB880F80F9909113682D
:102E1000EFE14DD080931368F2115DDE73C0FF27A0
:102E20008881909113683AD0809313688881880FC5
:102E3000829590911468E1E03AD080931468F21181
:102E40004ADE60C0FF278881880F90911468EEE108
:102E50002ED080931468F2113EDE54C0FF27898182
:102E6000909114681BD080931468898190911568A3
:102E700019D080931568F2112EDE44C0FF27898196
:102E8000909115680BD08093156889819091166890
:102E900009D080931668F2111EDE34C08295880F27
:102EA000E0EE05C0869586958695EFE100C08E23FD
:102EB000E095E9238E2B9827F92B0895E881E930D6
:102EC00068F4F0E0EB59F84E099409C00BC00BC050
:102ED0000AC009C008C0089508950895089580E5BE
:102EE0000C942C2266CBE756E0931168F4DDE09158
:102EF0001168E130B9F7089501D004C0E09112687B
:102F00000C9463138091136884FF08C020921D689D
:102F100020921E6820921F68209220688091146879
:102F200008958F93EBEFF9E6A0910D6A8A2F8C0F2D
:102F3000B081A193BA17A081B991BA07B1938C134C
:102F4000FACFC0910A6A8F91089514D1E3E2ABC021
:102F5000EB99FBCFE881E03011F0ECE1A4C0EB99F4
:102F6000F4CFEDE1A0C0EB99F0CF2AD1E1E09BC016
:102F7000EB99EBCF3ED1E2E096C0EB99E6CF39D1A9
:102F8000E3E091C0EB99E1CF1BD1E4E08CC0EB9979
:102F9000DCCFF0D0EFE187C0EB99D7CF0ED1E0E2E4
:102FA00082C0EB99D2CF0CD1E1E27DC0EB99CDCFBD
:102FB000E5E079C0EB99C9CFE6E075C0EB99C5CFE4
:102FC000FFD0E7E070C0EB99C0CFFAD0E8E06BC06B
:102FD000EB99BBCF0ED1E9E066C0EB99B6CF09D132
:102FE000EAE061C0EB99B1CF04D1EBE05CC0EB99B2
:102FF000ACCFFFD0ECE057C0EB99A7CFFAD0EDE013
:1030000052C0EB99A2CFF5D0EEE04DC0EB999DCF29
:10301000F0D0EFE048C0EB9998CFEBD0E0E143C0AF
:10302000EB9993CFE6D0E1E13EC0EB998ECFE1D0B2
:10303000E2E139C0EB9989CFC3D0E3E134C0EB9929
:1030400084CFBED0E4E12FC0BBD0E5E12CC0E0913D
:103050000D6AE43011F058F41CC0E881E3FD03C0B0
:10306000EED9E6E120C05DDF12DAE7E11CC0E881BD
:10307000FE2FE370F3FD05C0F2FF07C0E9D9E8E1D8
:1030800012C04FDF16DAE9E10EC0EB995ECFEBE13B
:103090000AC0EB995ACFE2E206C0EB9956CFEEE1B7
:1030A00002C0EAE100C0E0930C6AE091D069E093CD
:1030B0000B6A20620895E0910D6AE350EB30C0F492
:1030C000E0930D6AF0E0E758F74E099589F4E09136
:1030D0000D6AA8E0B1EBAE0FB21DBC91CB0FAE2FC5
:1030E000AB1BA0930D6AC0930A6A7ED0EAE2DBCFE5
:1030F0002CCF12C00FC010C020C00CC018C01DC003
:1031000019C015C009C016C0000000020004020664
:10311000040006001894089598940895E8E0F8E6ED
:1031200021C0ECE0F8E61EC0EEE0F8E61BC0E0E0EF
:10313000F8E610C0E4E0F8E605C0F3DFD1F0EEDF1A
:10314000C1F0F2CFA581BD81AB1799F4A481BC81F8
:10315000AB1779F4A381BB81AB1759F4A281BA8173
:10316000AB1739F4A181B981AB1719F4A081B881EB
:10317000AB170895E091D86AE395E23008F0E0E0FB
:10318000E093D86AF0E0EA53F74E099401C00BC00F
:10319000E0911970E5FF05C0E0910D70EF73E068F4
:1031A0008BC0E0E089C0E0911970E5FF03C0E091B9
:1031B0000E7087C0E09100707FC079D087D0DACFE1
:1031C00076D088D0D7CF88D0D5CFE991DE0162D034
:1031D000E85FE883ED91E983ED91EA83ED91EB837C
:1031E000ED91EC837ED0C6CFE0910100F0E07FD07E
:1031F00085C05DD0E091D96AE395E63008F0E0E063
:10320000E093D96AF0E0E85FF64E44D00995B2CF7A
:1032100005C006C007C008C009C00AC00BD00EC058
:1032200029D02CC02FD032C00DD010C013D016C062
:1032300019D01CC0E0914D6AF0E054C0E0912A68BA
:10324000F7E050C0E091D76AF8E04CC0E091106818
:10325000F9E048C0E091996AFAE044C0E091956ACB
:10326000FBE040C0E091546AFCE03CC0E091556A4C
:10327000FDE038C0E0911F68F8E134C0E0912068BB
:10328000F9E130C0E091C76AFAE12CC0E091C86A68
:10329000FEE228C0CCEED9E60895A4EEB9E6089582
:1032A000A6EEB9E60895A091E369B9E60895F8DFBE
:1032B000A093E369089522C0EDDFF1E0F883E9838C
:1032C00024C0E8DFF2E0F883E9831FC0CFE021C02B
:1032D000C0EF1FC0CCE31DC0DDDFE9DF2882E9833A
:1032E0001EC026C0E983FA83F7E0F8831DC0D2DF51
:1032F000E883F9832A822B822C821FC0F091F46923
:10330000FF0F28F1FF0F18F12BC0C7DFE3E021D03A
:1033100068C9C9DFE1E01DD0CD93CACFC4DFE3E0C7
:1033200018D05FD9C5CFBFDFE7E013D058D9C0CFE1
:10333000B7DFFFE315D04FD9BBCFB2DFFFE310D02B
:103340004CD9B6CFAADFFFEF0BD043D9B1CFF0E015
:1033500007C0F091F46902C0FF1FC8F3E695E0F3DF
:10336000F093F4690895E0E0E093CA692092F4696B
:103370000895FFFFFFFFFFFFFFFFFFFFFFFFFFFFBE
:1034000026C03FC01EC13AC170C180C1A2C1ABC1BC
:10341000BBC1C3C1CBC1D3C1DEC13DC042C06BC0C3
:10342000B7C0C9C0E3C0E5C0E6C0E7C0E8C0E9C0B6
:10343000EAC0EBC0ECC0EDC0EEC0EFC0F0C0F1C020
:10344000F2C0F3C0E0912768E395E0932768EC9918
:103450000C94101EE2E0E093110BF89420921A0BEA
:1034600020921B0B78942092C6692092C76933245E
:1034700003C0E3E03E2E00C0E398E998ED98E1E058
:10348000B0C1ED99E4CF1EF43394E1E0AAC1E32D7D
:10349000E43108F4ECCF3092D069E39A6DDCEEE0D1
:1034A000A0C1ED99D4CF1EF3E39A6DDCEE27529BB9
:1034B000E395E093E169E998EA98EB982092D16965
:1034C0002092CF69E2EDF9E6CFE02192CA95E9F7C3
:1034D000E0912868E395E43650F0E0912768F09198
:1034E0002968E0932968EF1BE0932A68E0E0E09305
:1034F0002868E2E176C1ED99A5CFE091D169EF307E
:1035000008F0A0CFF2EDEF0FF9E6F21D3192E25D87
:10351000E093D169E091CF69E325E093CF6946F567
:1035200009F090CFE3E0E093110BE0912368F09174
:1035300024683196E0932368F0932468E09125682D
:10354000F0912668E21DF21DE0932568F09326684D
:10355000E091C869F091C969F695E795F695E79508
:10356000F695E795F211EFEFE093F869E1E139C1E3
:10357000E091C869F091C969F695E795F695E795E8
:10358000F695E795F211EFEFE093F669E0E129C1D6
:10359000ED9B0EF457CFE091C869F091C969F6959B
:1035A000E795F695E795F695E795F211EFEFE0933D
:1035B000F769E2E116C1ED9B0EF044CFE2E0E09343
:1035C000110B2092C6692092C769E091C869F091F9
:1035D000C969F695E795F695E795F695E795F211A1
:1035E000EFEFE093F9690FD1E2E0FBC0E398E3E18C
:1035F0001EC0E4E11FC0E5E11AC0E6E11BC0E7E13F
:1036000016C0E8E117C0E9E112C0EAE113C0EBE13E
:103610000EC0ECE10FC0EDE10AC0EEE10BC0EFE13E
:1036200006C0E0E207C0E1E202C0EFE003C0330CF5
:1036300030F8D7C01EF030FC05CFD3C030FE02CF2B
:10364000D0C0E39AEAEEF5EC6EDA0EF000CFC0914E
:10365000F469D0911970EB99D860D3FFC070D09104
:103660001870EB99D260EA99D0FFCC7FD1FFC3707C
:10367000C093F469529BB399FCCE00C0E99AD091F3
:103680002A70C0910A0BCD23D0912970CD0FCF7035
:10369000C093F569C15BDCE0F001CD9FF894009226
:1036A0001C0B10921D0B78940F01E091C869F091EA
:1036B000C969F695E795F695E795F695E795F211C0
:1036C000EFEFE093FA69E0E00E949512E0E0E0930A
:1036D000110BE091F469E0FF06C0C090E469E89A3C
:1036E000EDE0E0931301E4E07CC0F091F469E09137
:1036F000E569F1FDE0934208E8E6F1E0F894E09333
:103700001C0BF0931D0B7894E5E06BC0D0912C70EE
:10371000C0910A0BCD23D0912B70CD0FCF70CE5A14
:10372000D091F569CD1BDCE0F001CD9FF8940092BB
:103730001C0B10921D0B78940F01E091F469E2FFCD
:1037400006C0C090E669E89AEDE0E0931301E6E078
:1037500048C0E0EFF0E0F894E0931C0BF0931D0BF1
:103760007894E7E03EC0F091F469E091E769F3FDF9
:10377000E0934208E0EEF1E0F894E0931C0BF09344
:103780001D0B7894E8E02DC0F091F469E091E869B0
:10379000F4FDE0934208E9E024C0F091F469E0917F
:1037A000E969F5FDE0934208EAE01BC0F091F46995
:1037B000E091EA69F6FDE0934208EBE012C0F09177
:1037C000F469E091EB69F7FDE0934208E2E0E093F1
:1037D000110BECE006C02092F4690E94A922E0E0FF
:1037E00000C0E093CA69AF91BF91CF91DF91E1E052
:1037F000E093150BE1E0E0935201EF91EFBFEF9101
:10380000FF9108950895C2EDD9E6A091D169209263
:103810000C6AE881E25FF0E0F34E0994FFC010C14A
:103820000FC10EC10DC10CC10BC10AC109C108C134
:1038300007C106C105C104C103C102C101C100C164
:10384000FFC0FEC0FDC0FCC0FBC0FAC0F9C0F8C09C
:10385000F7C0F6C0F5C0F4C0F3C0F2C0F1C0F0C0CC
:10386000EFC0EEC0EDC0ECC0EBC0EAC0E9C0E8C0FC
:10387000E7C0E6C0E5C0E4C0E3C0E2C0E1C0E0C02C
:10388000DFC0DEC0DDC0DCC0DBC0DAC0D9C0D8C05C
:10389000D7C0D6C0D5C0D4C0D3C0D2C0D1C0D0C08C
:1038A000CFC0CEC0CDC0CCC0CBC0CAC0C9C0C8C0BC
:1038B000C7C0C6C0C5C0C4C0C3C0C2C0C1C0C0C0EC
:1038C000BFC0BEC0BDC0BCC0BBC0BAC0B9C0B8C01C
:1038D000B7C0B6C0B5C0B4C0B3C0B2C0B1C0B0C04C
:1038E000AFC0AEC0ADC0ACC0ABC0AAC0A9C0A8C07C
:1038F000A7C0A6C0A5C0A4C0A3C0A2C0A0C09FC0AE
:103900009EC09DC09CC09BC09AC099C098C097C0E3
:1039100096C095C094C093C092C091C09FC09EC0F5
:103920009DC09CC09BC09AC099C098C097C096C0CB
:1039300095C094C093C092C091C090C08FC08EC0FB
:103940008DC08CC08BC08AC089C088C087C086C02B
:1039500085C084C083C082C081C080C07FC07EC05B
:103960007DC07CC07BC07AC079C078C077C076C08B
:1039700075C074C073C072C071C070C06FC06EC0BB
:103980006DC06CC06BC06AC069C068C067C066C0EB
:1039900065C064C063C062C061C060C060C05FC019
:1039A0005EC05DC05CC05BC05AC059C058C057C043
:1039B00056C055C054C053C052C051C050C04FC073
:1039C0004EC04DC04CC04BC04AC049C048C047C0A3
:1039D00046C045C044C043C042C041C040C03FC0D3
:1039E0003EC03DC03CC03BC03AC039C01AC019C03F
:1039F00018C017C016C015C014C013C012C011C023
:103A000010C00FC00EC00DC00CC00BC00AC009C052
:103A100008C007C006C00DC009C00EC0A150219645
:103A200036C0A0930D6AC0930A6A33CBA150219689
:103A3000C6C0A1502196C4C0A1502196BBC000C0F1
:103A4000EA9AE881F0910070B0911970B5FFEF1318
:103A50007CCAA15021961BC0EB9AFBCF1ACBEA9AE5
:103A6000E981E330E88111F4E03C79F0F0910D70E8
:103A7000B0911970B5FDEF1368CAE981F0910E702D
:103A8000EF1363CAA250229602C0EB9AFBCFA09319
:103A90000D6AC0930A6AE881E295EF70EE5AF0E091
:103AA000F24E09940FC024C039C038C05CCA5BCA4A
:103AB0005ACA59CA8DCA8CCA95CA8FCA55C054C031
:103AC000C6CAC2CAE991EF70E859F0E0F24E099413
:103AD000B1CAB5CAE2CAE1CAD8CAD7CAD6CAD5CA13
:103AE000D4CAD3CA5ECA5DCAD0CACFCACECA54CA63
:103AF000E991EF70E258F0E0F24E0994C6CAC5CAE7
:103B000046CA45CAC2CAC1CAC0CABFCABECABDCA5D
:103B1000BCCABBCABACAB9CAB8CAB7CAE991EF71B6
:103B2000EC56F0E0F24E0994B0CAAFCAAECAADCAC4
:103B3000ACCAABCAAACAA9CAA8CAA7CAA6CAA5CAF1
:103B4000A4CAA3CAA2CAA1CAA0CA9FCA9ECA9DCA21
:103B50009CCA9BCA9ACA99CA98CA97CA96CA95CA51
:103B60000CCA10CA92CA04CAE991EF71E654F0E097
:103B7000F24E099428CA1ACA1DCA87CA86CA85CABB
:103B800084CA83CA82CA81CA80CA7FCA7ECA7DCAE1
:103B90007CCA7BCA7ACA79CA78CA77CA76CA75CA11
:103BA00074CA73CA2ECA32CA36CA3ACA3ECA06CACA
:103BB0001ECA22CAA0930D6AC0930A6AC9C965CAFF
:103BC000A0930D6AC0930A6AE991E03F08F45DCAC8
:103BD000EF70E351F0E0F24E099457CA56CA55CA45
:103BE00054CA53CA52CA51CA66CA4FCA4ECA4DCAEB
:103BF0004CCA4BCA4ACA49CA48CA20D016D0F0910A
:103C00000C68E0910D68EF01CD2B49F0F0930D7039
:103C1000E0930E70E0911970E062E09319700895DE
:103C2000F8940E94071F0C94D91269D0B0E029D0F3
:103C3000B395A0910F6ABA17D1F70895E091FF15D7
:103C4000E030A9F0EF3F09F0E2D059D0B0E0A895FC
:103C50000FD020F4CE2FD4E18A2FDCD0B395A091E1
:103C60000F6ABA17A9F7CFEFD5E180E0D5D0089554
:103C70002AD03396099427D03196099424D03296CD
:103C8000099421D030960994A0E01BC0EA81A98153
:103C900016C0EA81F4E1A081F0E7A08310C0EA81B8
:103CA000F0E7A0810CC0EA81F0E791D008C0E9817B
:103CB000FA81A08104C0E981FA81A08300C0089440
:103CC000089588940895CB2FD0910F6ACD1778F47A
:103CD000D0E0CC0FDD1FCC0FDD1FF091106ADF0F9D
:103CE000E881E43149F0F0E0E55FFC4D0895C0E083
:103CF000DAECEBE0F3E20895E981FA810895A0E0BF
:103D0000B0E0B03059F4A03019F0A13021F006C075
:103D1000AEE6B8EC05C0A3E5BAEC02C0A0E0B8EC92
:103D2000A0930F6AB093106A089503C007C009C03A
:103D300010C0A0910014A0930070C1CFA09100709A
:103D4000BECFAA2329F022F0E0E0F0E740D0B7CFC1
:103D50009BCFE0E0A3E0B3CF97CF02C003C094CFE6
:103D6000ADE0ADCFA83011F4EC9AA9CF8DCF03C050
:103D700007C009C00FC0A0912F14A0932F709FCF30
:103D8000A0912F709CCFEA2F0E943413EFE2F0E74E
:103D90001ED095CFEFE2A0E092CF2092116A209240
:103DA000126A089504D0FE2FE0E2EF1B0895E0911F
:103DB000126AF091116AEF1B08F4E1950895E09101
:103DC000126AF091116A8894EF1308940895C091D3
:103DD000126ACD5ED0E0D549B993E993F993A993DE
:103DE000C351C03208F0CC27C093126A0895C09125
:103DF000116ACD5ED0E0D549B991E991F991A991C7
:103E0000C351C03208F0CC27C093116A089590E3E3
:103E1000889408C092E102C093E100C0A881A8176D
:103E2000A9F00894A0910210A1FDFCCFA0FDFACF4B
:103E3000ADE9A4BF9093001008F48993A4BFA1E05A
:103E4000A0930010A0910210A1FDFCCF0895EAED0F
:103E5000FAE622C2D3EA19C21AD2CDD118D2E09121
:103E60000210E1FDFACFABDFC0F7C1DFC081CA1796
:103E7000B1F3A083F4E1CDE9D3E1C4BFD093001046
:103E8000A083D1E0C4BFD0930010D1E0D093041040
:103E9000D0930310E2CF84E190E00E942F210E9492
:103EA000D7210E940322F7CFF2D1A5D1F0D10E94F1
:103EB0001E16FBCFEAEDFAE6F4D185E090E00E9411
:103EC0002F218FE090E00E942F21F4CF00003BD201
:103ED000F0910C68E0910D68EF2BA9F02AD282E3F3
:103EE00090E00E942F212AD288EC90E00E942F219E
:103EF00020D282E390E00E942F2120D288EE93E02E
:103F00000E942F21E4CF15D282E390E00E942F215E
:103F100015D282EE94E00E942F21D9CF0C94701418
:103F20000E940B160C94FC14F3ECECE9DAE6C6E5FF
:103F300082E10E94231514D037D03FD047D04FD014
:103F400057D05FD067D06FD011272227D9E0C9E9B9
:103F5000C093926AD093936A089578940C94B71F93
:103F6000E6E5FAE6E0938F6AF093906A08950E947E
:103F70002A1F2092966A2092976A2092986A1D7F43
:103F8000E091966AF091976AC091986A3196C21D45
:103F900011FDEFCF2223D1F3E093966AF093976A55
:103FA000C093986A28D1ECCFEBEDFFE1E0933F6935
:103FB000F0933E6908950C942C1FE4EEFFE1E0932A
:103FC0005F69F0935E6908950C944B1FEDEEFFE17D
:103FD000E0936169F09360690895A2E92DC0E6EF6E
:103FE000FFE1E0936369F09362690895A3E924C057
:103FF000EFEFFFE1E0936569F09364690895A4E948
:104000001BC0E8E0F0E2E0938569F09384690895CD
:104010000C94541FE1E1F0E2E093A569F093A469E8
:1040200008950C945A1FEAE1F0E2E093C569F09319
:10403000C46908950C94661F0C94C31210FD77C0D8
:10404000F093A16AFFB7F093A06A1160E093A26AAF
:10405000D093A36AC093A46AB093A56AA093A66AFA
:104060009093A76A8093A86A1092A96A0092AA6A9C
:10407000C091946AC395C093946A09F41860CF7094
:1040800009F41460C0FD14C01061C091926AD0910F
:10409000936AC15015F41062C97F10F41064C97995
:1040A000D04010F41068D970C093926AD093936A8C
:1040B00017FD4DD06ED014FD0E948E1F13FD0E947F
:1040C000901F14FF1BC0DAE6CCE6A1E0E881F9817D
:1040D000319788F071F42A2BE883F983EA81FB8118
:1040E000FE2B49F0FB810180A0950A22A095018258
:1040F00002C0E883F9832496AA0F41F70090AA6AC8
:104100001090A96A8091A86A9091A76AA091A66A66
:10411000B091A56AC091A46AD091A36AE091A26A05
:104120001270F091A06AFFBFF091A16A0895F8940F
:10413000E1E0F1E00E948722FFEF3197F1F7E0E044
:10414000F1E00E948722F0E43197F1F7F0CFE0919F
:10415000976AF091986AEE0FFF1FEBE8FE9F000C44
:10416000111CE4E6E119E093956A1260C0919A6A25
:10417000D0919B6AC0939C6AD0939D6AD695C7954F
:10418000D695C795C093996A20929B6A20929A6AA5
:104190000895E091946AEF70E093916AEE0FF0E079
:1041A000EC52FF4D099408950C94D3200C94D32025
:1041B0000C94D3200C94D3200C94D3200C94D320B3
:1041C0000C94D3200C94D3200C94D3200C94D320A3
:1041D0000C94D3200C94D3200C94D3200C94D32093
:1041E0000C94D3200C94D320F0918C6AFF0F11F023
:1041F0002F1708F40895E0919A6AF0919B6A31961E
:10420000E0939A6AF0939B6AC0918F6AD091906A0A
:10421000EDB7FEB7E993F883E0E2F22FC0E8FF0FB5
:1042200030F019F0C695E450D1F7CC27EE27C093B3
:104230008C6AE0938E6AE695E0938D6ADAE6C6E5CD
:10424000CE0FD21DC0938F6AD093906AE991F88106
:10425000CFB7F894EDBFFEBFCFBF08959927C8E64A
:10426000DAE6B0918E6ACB0FD21DBFB7F89488837F
:104270009983D0918C6AD0952D23BFBFBCCF07D036
:10428000BACF03D0B8CFD0918C6A2D2B0895D0919E
:104290008C6AD0952D2308952082218208956894F8
:1042A00001C0E894D0918C6ABFB7F894C081CC2348
:1042B00021F0CE7FC083BFBF0895C181CD2BC183C4
:1042C000BFBF0EF0DCCFCBCFBFB7F894C191D08188
:1042D000DD2321F4C160C293BFBF089520822292E2
:1042E000BFBF0DC0BFB7F894D081D260D193D08149
:1042F000DD2311F4BFBF08952082BFBF00C0E8E6F0
:10430000FAE6CD2F3496CC0F41F0E0F7F8942192E5
:10431000219221922192BFBFF6CFB7CF208208957C
:10432000BFB7F894A081AE7FA083BFBF0895F8DF28
:10433000B8CFE1E0F1E00E9487220895E0E0F1E0EB
:104340000E9487220895CCEDDAE6E8E8F3EC0C2E23
:104350009FEFA191B191BF3F81F011968FEF8395AF
:104360001D901120E1F3821183958993981788F3AA
:104370008211982F82110C2EECCF90939E6A089494
:10438000C009C0939F6A0895006920694069606907
:104390006269646966698669A669FFFF1F693D698C
:1043A0005D695F69616963698369A369C369B69976
:1043B00004C0E5E5119B0C94C31207C044245524A6
:1043C0000895AD980895AD9A0895E0910408E7FF27
:1043D0000895E0910008E0930071089502D08CE206
:1043E0003BC001D003C08F93829501C08F938F7023
:1043F000805D8A3308F0895F2FD08F9108958AE01D
:104400002BD08DE029C00F01451451F0F091040824
:10441000F5FF06C0F2E7E52DF081F0930208539412
:10442000F0010895451459F0F0910408F5FFFACF12
:10443000F2E7E52DF081F09302085394F3CF08954D
:10444000C42DD2E70190002029F00882C395C51140
:10445000F9CFCA954C2ED8CF0F01F201FA95EF177C
:1044600019F0F2E780834394CFCF8F938E2FF20120
:10447000FA95EF1719F0F2E7808343948F9108952E
:104480008991ACDF9A95E1F708958991821188139B
:104490000895E2DFFACFCAEAD4ECF7DF80911C6816
:1044A000A0DFCAEBD4ECF1DFBDCF0A0D1B5B3434C7
:1044B0006D2E2E2E5B424C442D005D1B5B6D0A0D54
:1044C0000000CAECD4ECE1DFADCF0A0D1B5B343346
:1044D0006D2E2E2E5B5550445D1B5B6D0A0D00004A
:1044E000C2EFD4ECD2DFC0E0D8E690E1C9DF87DFCD
:1044F00099CF0A0D1B5B34326D2E2E2E5B4150502E
:104500005D1B5B6D202D2000E2E0F2E000C0EF2398
:10451000F0950090C36A0F22E02904C0E0E002C0D9
:10452000EFEF00C0E093C36A00C0E091C36A0C944F
:104530009712EF23F0950090C46A0F22E02906C07D
:10454000E0E004C0E5E502C0EFEF00C0E093C46A1C
:1045500000C0E091C46A0C949512310B0000010771
:1045600001310080446A00010040403100800000B9
:104570000002310B0000010701310081446A000193
:1045800000404031008100000002310B00000101B9
:1045900007310080446A0001004040310080000083
:1045A0000002310B0000010107310081446A000163
:1045B0000040403100810000000231030000010092
:1045C00010310080CF6A00010040403100800000BF
:1045D000000231030000011000310080D16A0001A7
:1045E00000404031008000000002110B000001116A
:1045F00040110080336A0001011140110083466AB6
:104600000001014240110081D36A000100404011C5
:1046100000800000000238CB37CB36CB35CB34CB13
:1046200035CB32CB31CB35CB3ACB3DCB2FCB2CCB93
:104630003ECB2ACB29CB28CB3ACB3DCB25CB24CBA9
:1046400023CB22CB21CBFFFFFFFFFFFFFFFFFFFFAD
:1048000014951E7F080101FF080402FF080403FF3E
:10481000088004FF084005FF0416000014AC1E00C9
:10482000040206FF084007FF081008FF0404000008
:104830000800090008000A0008010BFF08010CFF2E
:1048400008C30DFF08E80EFF08000FFF080010FF67
:1048500008001100080012000800130008001400EE
:104860000800150008001600080017FF0896181128
:10487000080A1911101A7000040000FF04FF00FF5D
:1048800008011BFF08021CFF08041DFF08081EFF8B
:1048900008101FFF082020FF084021FF088022FF8A
:1048A000080023FF080024FF080025FF080026FF5A
:1048B000080027FF080028FF0804290F08002A0F16
:1048C00008042B0F08002C0F08052DFF080A2EFFE7
:1048D00014B71EFF080B30FF0814313F0802320FD7
:1048E00008D433FF08C834FF086435FF086436FF76
:1048F000088037FF088038FF088039FF08803AFFBA
:1049000000000000000000000000000000000000A7
:104910000000000000000000000000000000000097
:104920000000000000000000000000000000000087
:104930000000000000000000000000000000000077
:104940000000000000000000000000000000000067
:104950000000000000000000000000000000000057
:104960000000000000000000000000000000000047
:104970000000000000000000000000000000000037
:104980000C0368000C0268000C0168000C00680051
:104990000C0768000C0668000C0568000C04680031
:1049A00008003BFF08003CFF040100000409000070
:1049B0000401000004000000FFFFFFFFFFFFFFFFF6
:104A00000409000004010000000000000000000094
:104A10000C0368000C0268000C0168000C006800C0
:104A20000C0768000C0668000C0568000C046800A0
:104A30000C0877000C0977000C0A77000C0B770044
:104A40000C0C77000C0D77000C0E77000C0F770024
:104A50000C1077000C1177000C1277000C13770004
:104A60000C1477000C1577000C1677000C177700E4
:104A70000C1877000C1977000C1A77000C1B7700C4
:104A80000C1C77000C1D77000C1E77000C1F7700A4
:104A90000C2077000C2177000C2277000C23770084
:104AA0000C2477000C2577000C2677000C27770064
:104AB0000C2877000C2977000C2A77000C2B770044
:104AC0000C2C77000C2D77000C2E77000C2F770024
:104AD0000C3077000C3177000C3277000C33770004
:104AE0000C3477000C3577000C3677000C397700E2
:104AF0000C3A770000000000000000000C1C680069
:104B00000C1D68000C1E68000C1F68000C2068005B
:104B10000C2368000C2468000C2568000C26680033
:104B20000C1A77000C1B77000C546A000C556A00B5
:104B30000CF669000CF769000CF869000CF96900C3
:104B40000CFA69000CD0690004550000FFFFFFFF5C
:00000001FF
